{
	"hmtRate.sol": {
		"HmtPriceConsumer": {
			"abi": [
				{
					"inputs": [
						{
							"internalType": "address",
							"name": "_router",
							"type": "address"
						},
						{
							"internalType": "address",
							"name": "_hmtAddress",
							"type": "address"
						},
						{
							"internalType": "address",
							"name": "_usdtAddress",
							"type": "address"
						}
					],
					"stateMutability": "nonpayable",
					"type": "constructor"
				},
				{
					"inputs": [],
					"name": "HMT",
					"outputs": [
						{
							"internalType": "address",
							"name": "",
							"type": "address"
						}
					],
					"stateMutability": "view",
					"type": "function"
				},
				{
					"inputs": [],
					"name": "USDT",
					"outputs": [
						{
							"internalType": "address",
							"name": "",
							"type": "address"
						}
					],
					"stateMutability": "view",
					"type": "function"
				},
				{
					"inputs": [
						{
							"internalType": "uint256",
							"name": "usdtAmount",
							"type": "uint256"
						}
					],
					"name": "getHmtForUsdt",
					"outputs": [
						{
							"internalType": "uint256",
							"name": "hmtAmount",
							"type": "uint256"
						}
					],
					"stateMutability": "view",
					"type": "function"
				},
				{
					"inputs": [],
					"name": "getLiveRate",
					"outputs": [
						{
							"internalType": "uint256",
							"name": "",
							"type": "uint256"
						}
					],
					"stateMutability": "view",
					"type": "function"
				},
				{
					"inputs": [],
					"name": "router",
					"outputs": [
						{
							"internalType": "contract IPancakeRouter",
							"name": "",
							"type": "address"
						}
					],
					"stateMutability": "view",
					"type": "function"
				}
			],
			"devdoc": {
				"kind": "dev",
				"methods": {
					"constructor": {
						"params": {
							"_hmtAddress": "Your HMT token’s BSC address",
							"_router": "PancakeSwap V2 router (e.g. 0x10ED43C718714eb63d5aA57B78B54704E256024E)",
							"_usdtAddress": "USDT on BSC (0x55d398326f99059fF775485246999027B3197955)"
						}
					},
					"getHmtForUsdt(uint256)": {
						"details": "`usdtAmount` must be in USDT’s base units (e.g. to ask for 10 USDT, pass 10 * 10^18)"
					}
				},
				"version": 1
			},
			"evm": {
				"assembly": "    /* \"hmtRate.sol\":426:1973  contract HmtPriceConsumer {... */\n  mstore(0x40, 0xe0)\n    /* \"hmtRate.sol\":836:1219  constructor(... */\n  callvalue\n  dup1\n  iszero\n  tag_1\n  jumpi\n  revert(0x00, 0x00)\ntag_1:\n  pop\n  mload(0x40)\n  sub(codesize, bytecodeSize)\n  dup1\n  bytecodeSize\n  dup4\n  codecopy\n  dup2\n  dup2\n  add\n  0x40\n  mstore\n  dup2\n  add\n  swap1\n  tag_2\n  swap2\n  swap1\n  tag_3\n  jump\t// in\ntag_2:\n    /* \"hmtRate.sol\":984:985  0 */\n  0x00\n    /* \"hmtRate.sol\":961:986  _router     != address(0) */\n  0xffffffffffffffffffffffffffffffffffffffff\n  and\n    /* \"hmtRate.sol\":961:968  _router */\n  dup4\n    /* \"hmtRate.sol\":961:986  _router     != address(0) */\n  0xffffffffffffffffffffffffffffffffffffffff\n  and\n  eq\n  iszero\n    /* \"hmtRate.sol\":961:1029  _router     != address(0)... */\n  dup1\n  iszero\n  tag_6\n  jumpi\n  pop\n    /* \"hmtRate.sol\":1027:1028  0 */\n  0x00\n    /* \"hmtRate.sol\":1004:1029  _hmtAddress != address(0) */\n  0xffffffffffffffffffffffffffffffffffffffff\n  and\n    /* \"hmtRate.sol\":1004:1015  _hmtAddress */\n  dup3\n    /* \"hmtRate.sol\":1004:1029  _hmtAddress != address(0) */\n  0xffffffffffffffffffffffffffffffffffffffff\n  and\n  eq\n  iszero\n    /* \"hmtRate.sol\":961:1029  _router     != address(0)... */\ntag_6:\n    /* \"hmtRate.sol\":961:1072  _router     != address(0)... */\n  dup1\n  iszero\n  tag_7\n  jumpi\n  pop\n    /* \"hmtRate.sol\":1070:1071  0 */\n  0x00\n    /* \"hmtRate.sol\":1047:1072  _usdtAddress!= address(0) */\n  0xffffffffffffffffffffffffffffffffffffffff\n  and\n    /* \"hmtRate.sol\":1047:1059  _usdtAddress */\n  dup2\n    /* \"hmtRate.sol\":1047:1072  _usdtAddress!= address(0) */\n  0xffffffffffffffffffffffffffffffffffffffff\n  and\n  eq\n  iszero\n    /* \"hmtRate.sol\":961:1072  _router     != address(0)... */\ntag_7:\n    /* \"hmtRate.sol\":953:1103  require(_router     != address(0)... */\n  tag_8\n  jumpi\n  mload(0x40)\n  0x08c379a000000000000000000000000000000000000000000000000000000000\n  dup2\n  mstore\n  0x04\n  add\n  tag_9\n  swap1\n  tag_10\n  jump\t// in\ntag_9:\n  mload(0x40)\n  dup1\n  swap2\n  sub\n  swap1\n  revert\ntag_8:\n    /* \"hmtRate.sol\":1140:1147  _router */\n  dup3\n    /* \"hmtRate.sol\":1116:1148  router = IPancakeRouter(_router) */\n  0xffffffffffffffffffffffffffffffffffffffff\n  and\n  0x80\n  dup2\n  0xffffffffffffffffffffffffffffffffffffffff\n  and\n  dup2\n  mstore\n  pop\n  pop\n    /* \"hmtRate.sol\":1168:1179  _hmtAddress */\n  dup2\n    /* \"hmtRate.sol\":1159:1179  HMT    = _hmtAddress */\n  0xffffffffffffffffffffffffffffffffffffffff\n  and\n  0xa0\n  dup2\n  0xffffffffffffffffffffffffffffffffffffffff\n  and\n  dup2\n  mstore\n  pop\n  pop\n    /* \"hmtRate.sol\":1199:1211  _usdtAddress */\n  dup1\n    /* \"hmtRate.sol\":1190:1211  USDT   = _usdtAddress */\n  0xffffffffffffffffffffffffffffffffffffffff\n  and\n  0xc0\n  dup2\n  0xffffffffffffffffffffffffffffffffffffffff\n  and\n  dup2\n  mstore\n  pop\n  pop\n    /* \"hmtRate.sol\":836:1219  constructor(... */\n  pop\n  pop\n  pop\n    /* \"hmtRate.sol\":426:1973  contract HmtPriceConsumer {... */\n  jump(tag_11)\n    /* \"#utility.yul\":88:205   */\ntag_13:\n    /* \"#utility.yul\":197:198   */\n  0x00\n    /* \"#utility.yul\":194:195   */\n  0x00\n    /* \"#utility.yul\":187:199   */\n  revert\n    /* \"#utility.yul\":334:460   */\ntag_15:\n    /* \"#utility.yul\":371:378   */\n  0x00\n    /* \"#utility.yul\":411:453   */\n  0xffffffffffffffffffffffffffffffffffffffff\n    /* \"#utility.yul\":404:409   */\n  dup3\n    /* \"#utility.yul\":400:454   */\n  and\n    /* \"#utility.yul\":389:454   */\n  swap1\n  pop\n    /* \"#utility.yul\":334:460   */\n  swap2\n  swap1\n  pop\n  jump\t// out\n    /* \"#utility.yul\":466:562   */\ntag_16:\n    /* \"#utility.yul\":503:510   */\n  0x00\n    /* \"#utility.yul\":532:556   */\n  tag_28\n    /* \"#utility.yul\":550:555   */\n  dup3\n    /* \"#utility.yul\":532:556   */\n  tag_15\n  jump\t// in\ntag_28:\n    /* \"#utility.yul\":521:556   */\n  swap1\n  pop\n    /* \"#utility.yul\":466:562   */\n  swap2\n  swap1\n  pop\n  jump\t// out\n    /* \"#utility.yul\":568:690   */\ntag_17:\n    /* \"#utility.yul\":641:665   */\n  tag_30\n    /* \"#utility.yul\":659:664   */\n  dup2\n    /* \"#utility.yul\":641:665   */\n  tag_16\n  jump\t// in\ntag_30:\n    /* \"#utility.yul\":634:639   */\n  dup2\n    /* \"#utility.yul\":631:666   */\n  eq\n    /* \"#utility.yul\":621:684   */\n  tag_31\n  jumpi\n    /* \"#utility.yul\":680:681   */\n  0x00\n    /* \"#utility.yul\":677:678   */\n  0x00\n    /* \"#utility.yul\":670:682   */\n  revert\n    /* \"#utility.yul\":621:684   */\ntag_31:\n    /* \"#utility.yul\":568:690   */\n  pop\n  jump\t// out\n    /* \"#utility.yul\":696:839   */\ntag_18:\n    /* \"#utility.yul\":753:758   */\n  0x00\n    /* \"#utility.yul\":784:790   */\n  dup2\n    /* \"#utility.yul\":778:791   */\n  mload\n    /* \"#utility.yul\":769:791   */\n  swap1\n  pop\n    /* \"#utility.yul\":800:833   */\n  tag_33\n    /* \"#utility.yul\":827:832   */\n  dup2\n    /* \"#utility.yul\":800:833   */\n  tag_17\n  jump\t// in\ntag_33:\n    /* \"#utility.yul\":696:839   */\n  swap3\n  swap2\n  pop\n  pop\n  jump\t// out\n    /* \"#utility.yul\":845:1508   */\ntag_3:\n    /* \"#utility.yul\":933:939   */\n  0x00\n    /* \"#utility.yul\":941:947   */\n  0x00\n    /* \"#utility.yul\":949:955   */\n  0x00\n    /* \"#utility.yul\":998:1000   */\n  0x60\n    /* \"#utility.yul\":986:995   */\n  dup5\n    /* \"#utility.yul\":977:984   */\n  dup7\n    /* \"#utility.yul\":973:996   */\n  sub\n    /* \"#utility.yul\":969:1001   */\n  slt\n    /* \"#utility.yul\":966:1085   */\n  iszero\n  tag_35\n  jumpi\n    /* \"#utility.yul\":1004:1083   */\n  tag_36\n  tag_13\n  jump\t// in\ntag_36:\n    /* \"#utility.yul\":966:1085   */\ntag_35:\n    /* \"#utility.yul\":1124:1125   */\n  0x00\n    /* \"#utility.yul\":1149:1213   */\n  tag_37\n    /* \"#utility.yul\":1205:1212   */\n  dup7\n    /* \"#utility.yul\":1196:1202   */\n  dup3\n    /* \"#utility.yul\":1185:1194   */\n  dup8\n    /* \"#utility.yul\":1181:1203   */\n  add\n    /* \"#utility.yul\":1149:1213   */\n  tag_18\n  jump\t// in\ntag_37:\n    /* \"#utility.yul\":1139:1213   */\n  swap4\n  pop\n    /* \"#utility.yul\":1095:1223   */\n  pop\n    /* \"#utility.yul\":1262:1264   */\n  0x20\n    /* \"#utility.yul\":1288:1352   */\n  tag_38\n    /* \"#utility.yul\":1344:1351   */\n  dup7\n    /* \"#utility.yul\":1335:1341   */\n  dup3\n    /* \"#utility.yul\":1324:1333   */\n  dup8\n    /* \"#utility.yul\":1320:1342   */\n  add\n    /* \"#utility.yul\":1288:1352   */\n  tag_18\n  jump\t// in\ntag_38:\n    /* \"#utility.yul\":1278:1352   */\n  swap3\n  pop\n    /* \"#utility.yul\":1233:1362   */\n  pop\n    /* \"#utility.yul\":1401:1403   */\n  0x40\n    /* \"#utility.yul\":1427:1491   */\n  tag_39\n    /* \"#utility.yul\":1483:1490   */\n  dup7\n    /* \"#utility.yul\":1474:1480   */\n  dup3\n    /* \"#utility.yul\":1463:1472   */\n  dup8\n    /* \"#utility.yul\":1459:1481   */\n  add\n    /* \"#utility.yul\":1427:1491   */\n  tag_18\n  jump\t// in\ntag_39:\n    /* \"#utility.yul\":1417:1491   */\n  swap2\n  pop\n    /* \"#utility.yul\":1372:1501   */\n  pop\n    /* \"#utility.yul\":845:1508   */\n  swap3\n  pop\n  swap3\n  pop\n  swap3\n  jump\t// out\n    /* \"#utility.yul\":1514:1683   */\ntag_19:\n    /* \"#utility.yul\":1598:1609   */\n  0x00\n    /* \"#utility.yul\":1632:1638   */\n  dup3\n    /* \"#utility.yul\":1627:1630   */\n  dup3\n    /* \"#utility.yul\":1620:1639   */\n  mstore\n    /* \"#utility.yul\":1672:1676   */\n  0x20\n    /* \"#utility.yul\":1667:1670   */\n  dup3\n    /* \"#utility.yul\":1663:1677   */\n  add\n    /* \"#utility.yul\":1648:1677   */\n  swap1\n  pop\n    /* \"#utility.yul\":1514:1683   */\n  swap3\n  swap2\n  pop\n  pop\n  jump\t// out\n    /* \"#utility.yul\":1689:1851   */\ntag_20:\n    /* \"#utility.yul\":1829:1843   */\n  0x5a65726f20616464726573730000000000000000000000000000000000000000\n    /* \"#utility.yul\":1825:1826   */\n  0x00\n    /* \"#utility.yul\":1817:1823   */\n  dup3\n    /* \"#utility.yul\":1813:1827   */\n  add\n    /* \"#utility.yul\":1806:1844   */\n  mstore\n    /* \"#utility.yul\":1689:1851   */\n  pop\n  jump\t// out\n    /* \"#utility.yul\":1857:2223   */\ntag_21:\n    /* \"#utility.yul\":1999:2002   */\n  0x00\n    /* \"#utility.yul\":2020:2087   */\n  tag_43\n    /* \"#utility.yul\":2084:2086   */\n  0x0c\n    /* \"#utility.yul\":2079:2082   */\n  dup4\n    /* \"#utility.yul\":2020:2087   */\n  tag_19\n  jump\t// in\ntag_43:\n    /* \"#utility.yul\":2013:2087   */\n  swap2\n  pop\n    /* \"#utility.yul\":2096:2189   */\n  tag_44\n    /* \"#utility.yul\":2185:2188   */\n  dup3\n    /* \"#utility.yul\":2096:2189   */\n  tag_20\n  jump\t// in\ntag_44:\n    /* \"#utility.yul\":2214:2216   */\n  0x20\n    /* \"#utility.yul\":2209:2212   */\n  dup3\n    /* \"#utility.yul\":2205:2217   */\n  add\n    /* \"#utility.yul\":2198:2217   */\n  swap1\n  pop\n    /* \"#utility.yul\":1857:2223   */\n  swap2\n  swap1\n  pop\n  jump\t// out\n    /* \"#utility.yul\":2229:2648   */\ntag_10:\n    /* \"#utility.yul\":2395:2399   */\n  0x00\n    /* \"#utility.yul\":2433:2435   */\n  0x20\n    /* \"#utility.yul\":2422:2431   */\n  dup3\n    /* \"#utility.yul\":2418:2436   */\n  add\n    /* \"#utility.yul\":2410:2436   */\n  swap1\n  pop\n    /* \"#utility.yul\":2482:2491   */\n  dup2\n    /* \"#utility.yul\":2476:2480   */\n  dup2\n    /* \"#utility.yul\":2472:2492   */\n  sub\n    /* \"#utility.yul\":2468:2469   */\n  0x00\n    /* \"#utility.yul\":2457:2466   */\n  dup4\n    /* \"#utility.yul\":2453:2470   */\n  add\n    /* \"#utility.yul\":2446:2493   */\n  mstore\n    /* \"#utility.yul\":2510:2641   */\n  tag_46\n    /* \"#utility.yul\":2636:2640   */\n  dup2\n    /* \"#utility.yul\":2510:2641   */\n  tag_21\n  jump\t// in\ntag_46:\n    /* \"#utility.yul\":2502:2641   */\n  swap1\n  pop\n    /* \"#utility.yul\":2229:2648   */\n  swap2\n  swap1\n  pop\n  jump\t// out\n    /* \"hmtRate.sol\":426:1973  contract HmtPriceConsumer {... */\ntag_11:\n  mload(0x80)\n  mload(0xa0)\n  mload(0xc0)\n  codecopy(0x00, dataOffset(sub_0), dataSize(sub_0))\n  0x00\n  assignImmutable(\"0x9560168699514dcd528543d614e81b4f36adf182dc624d2f1eb91df8addd987e\")\n  0x00\n  assignImmutable(\"0x9cce9eb03c9f29c6481fca9f0f942b15bef0bbbc47fda0ddb44df157019835d9\")\n  0x00\n  assignImmutable(\"0x6585423cb6456b1d4957f6454d2f004f0c4f58d53a00082412d5c2ef4b1b31fd\")\n  return(0x00, dataSize(sub_0))\nstop\n\nsub_0: assembly {\n        /* \"hmtRate.sol\":426:1973  contract HmtPriceConsumer {... */\n      mstore(0x40, 0x80)\n      callvalue\n      dup1\n      iszero\n      tag_1\n      jumpi\n      revert(0x00, 0x00)\n    tag_1:\n      pop\n      jumpi(tag_2, lt(calldatasize, 0x04))\n      shr(0xe0, calldataload(0x00))\n      dup1\n      0x7a9359f7\n      eq\n      tag_3\n      jumpi\n      dup1\n      0xa91d5a1e\n      eq\n      tag_4\n      jumpi\n      dup1\n      0xb24aef1b\n      eq\n      tag_5\n      jumpi\n      dup1\n      0xc54e44eb\n      eq\n      tag_6\n      jumpi\n      dup1\n      0xf887ea40\n      eq\n      tag_7\n      jumpi\n    tag_2:\n      revert(0x00, 0x00)\n        /* \"hmtRate.sol\":1388:1717  function getHmtForUsdt(uint256 usdtAmount)... */\n    tag_3:\n      tag_8\n      0x04\n      dup1\n      calldatasize\n      sub\n      dup2\n      add\n      swap1\n      tag_9\n      swap2\n      swap1\n      tag_10\n      jump\t// in\n    tag_9:\n      tag_11\n      jump\t// in\n    tag_8:\n      mload(0x40)\n      tag_12\n      swap2\n      swap1\n      tag_13\n      jump\t// in\n    tag_12:\n      mload(0x40)\n      dup1\n      swap2\n      sub\n      swap1\n      return\n        /* \"hmtRate.sol\":1785:1970  function getLiveRate() external view returns (uint256) {... */\n    tag_4:\n      tag_14\n      tag_15\n      jump\t// in\n    tag_14:\n      mload(0x40)\n      tag_16\n      swap2\n      swap1\n      tag_13\n      jump\t// in\n    tag_16:\n      mload(0x40)\n      dup1\n      swap2\n      sub\n      swap1\n      return\n        /* \"hmtRate.sol\":504:539  address        public immutable HMT */\n    tag_5:\n      tag_17\n      tag_18\n      jump\t// in\n    tag_17:\n      mload(0x40)\n      tag_19\n      swap2\n      swap1\n      tag_20\n      jump\t// in\n    tag_19:\n      mload(0x40)\n      dup1\n      swap2\n      sub\n      swap1\n      return\n        /* \"hmtRate.sol\":546:582  address        public immutable USDT */\n    tag_6:\n      tag_21\n      tag_22\n      jump\t// in\n    tag_21:\n      mload(0x40)\n      tag_23\n      swap2\n      swap1\n      tag_20\n      jump\t// in\n    tag_23:\n      mload(0x40)\n      dup1\n      swap2\n      sub\n      swap1\n      return\n        /* \"hmtRate.sol\":459:497  IPancakeRouter public immutable router */\n    tag_7:\n      tag_24\n      tag_25\n      jump\t// in\n    tag_24:\n      mload(0x40)\n      tag_26\n      swap2\n      swap1\n      tag_27\n      jump\t// in\n    tag_26:\n      mload(0x40)\n      dup1\n      swap2\n      sub\n      swap1\n      return\n        /* \"hmtRate.sol\":1388:1717  function getHmtForUsdt(uint256 usdtAmount)... */\n    tag_11:\n        /* \"hmtRate.sol\":1470:1487  uint256 hmtAmount */\n      0x00\n        /* \"hmtRate.sol\":1505:1526  address[] memory path */\n      0x00\n        /* \"hmtRate.sol\":1543:1544  2 */\n      0x02\n        /* \"hmtRate.sol\":1529:1545  new address[](2) */\n      0xffffffffffffffff\n      dup2\n      gt\n      iszero\n      tag_29\n      jumpi\n      tag_30\n      tag_31\n      jump\t// in\n    tag_30:\n    tag_29:\n      mload(0x40)\n      swap1\n      dup1\n      dup3\n      mstore\n      dup1\n      0x20\n      mul\n      0x20\n      add\n      dup3\n      add\n      0x40\n      mstore\n      dup1\n      iszero\n      tag_32\n      jumpi\n      dup2\n      0x20\n      add\n      0x20\n      dup3\n      mul\n      dup1\n      calldatasize\n      dup4\n      calldatacopy\n      dup1\n      dup3\n      add\n      swap2\n      pop\n      pop\n      swap1\n      pop\n    tag_32:\n      pop\n        /* \"hmtRate.sol\":1505:1545  address[] memory path = new address[](2) */\n      swap1\n      pop\n        /* \"hmtRate.sol\":1566:1570  USDT */\n      immutable(\"0x9560168699514dcd528543d614e81b4f36adf182dc624d2f1eb91df8addd987e\")\n        /* \"hmtRate.sol\":1556:1560  path */\n      dup2\n        /* \"hmtRate.sol\":1561:1562  0 */\n      0x00\n        /* \"hmtRate.sol\":1556:1563  path[0] */\n      dup2\n      mload\n      dup2\n      lt\n      tag_33\n      jumpi\n      tag_34\n      tag_35\n      jump\t// in\n    tag_34:\n    tag_33:\n      0x20\n      mul\n      0x20\n      add\n      add\n        /* \"hmtRate.sol\":1556:1570  path[0] = USDT */\n      swap1\n      0xffffffffffffffffffffffffffffffffffffffff\n      and\n      swap1\n      dup2\n      0xffffffffffffffffffffffffffffffffffffffff\n      and\n      dup2\n      mstore\n      pop\n      pop\n        /* \"hmtRate.sol\":1591:1594  HMT */\n      immutable(\"0x9cce9eb03c9f29c6481fca9f0f942b15bef0bbbc47fda0ddb44df157019835d9\")\n        /* \"hmtRate.sol\":1581:1585  path */\n      dup2\n        /* \"hmtRate.sol\":1586:1587  1 */\n      0x01\n        /* \"hmtRate.sol\":1581:1588  path[1] */\n      dup2\n      mload\n      dup2\n      lt\n      tag_36\n      jumpi\n      tag_37\n      tag_35\n      jump\t// in\n    tag_37:\n    tag_36:\n      0x20\n      mul\n      0x20\n      add\n      add\n        /* \"hmtRate.sol\":1581:1594  path[1] = HMT */\n      swap1\n      0xffffffffffffffffffffffffffffffffffffffff\n      and\n      swap1\n      dup2\n      0xffffffffffffffffffffffffffffffffffffffff\n      and\n      dup2\n      mstore\n      pop\n      pop\n        /* \"hmtRate.sol\":1611:1635  uint256[] memory amounts */\n      0x00\n        /* \"hmtRate.sol\":1638:1644  router */\n      immutable(\"0x6585423cb6456b1d4957f6454d2f004f0c4f58d53a00082412d5c2ef4b1b31fd\")\n        /* \"hmtRate.sol\":1638:1658  router.getAmountsOut */\n      0xffffffffffffffffffffffffffffffffffffffff\n      and\n      0xd06ca61f\n        /* \"hmtRate.sol\":1659:1669  usdtAmount */\n      dup6\n        /* \"hmtRate.sol\":1671:1675  path */\n      dup5\n        /* \"hmtRate.sol\":1638:1676  router.getAmountsOut(usdtAmount, path) */\n      mload(0x40)\n      dup4\n      0xffffffff\n      and\n      0xe0\n      shl\n      dup2\n      mstore\n      0x04\n      add\n      tag_38\n      swap3\n      swap2\n      swap1\n      tag_39\n      jump\t// in\n    tag_38:\n      0x00\n      mload(0x40)\n      dup1\n      dup4\n      sub\n      dup2\n      dup7\n      gas\n      staticcall\n      iszero\n      dup1\n      iszero\n      tag_41\n      jumpi\n      returndatacopy(0x00, 0x00, returndatasize)\n      revert(0x00, returndatasize)\n    tag_41:\n      pop\n      pop\n      pop\n      pop\n      mload(0x40)\n      returndatasize\n      0x00\n      dup3\n      returndatacopy\n      returndatasize\n      not(0x1f)\n      0x1f\n      dup3\n      add\n      and\n      dup3\n      add\n      dup1\n      0x40\n      mstore\n      pop\n      dup2\n      add\n      swap1\n      tag_42\n      swap2\n      swap1\n      tag_43\n      jump\t// in\n    tag_42:\n        /* \"hmtRate.sol\":1611:1676  uint256[] memory amounts = router.getAmountsOut(usdtAmount, path) */\n      swap1\n      pop\n        /* \"hmtRate.sol\":1699:1706  amounts */\n      dup1\n        /* \"hmtRate.sol\":1707:1708  1 */\n      0x01\n        /* \"hmtRate.sol\":1699:1709  amounts[1] */\n      dup2\n      mload\n      dup2\n      lt\n      tag_44\n      jumpi\n      tag_45\n      tag_35\n      jump\t// in\n    tag_45:\n    tag_44:\n      0x20\n      mul\n      0x20\n      add\n      add\n      mload\n        /* \"hmtRate.sol\":1687:1709  hmtAmount = amounts[1] */\n      swap3\n      pop\n        /* \"hmtRate.sol\":1494:1717  {... */\n      pop\n      pop\n        /* \"hmtRate.sol\":1388:1717  function getHmtForUsdt(uint256 usdtAmount)... */\n      swap2\n      swap1\n      pop\n      jump\t// out\n        /* \"hmtRate.sol\":1785:1970  function getLiveRate() external view returns (uint256) {... */\n    tag_15:\n        /* \"hmtRate.sol\":1831:1838  uint256 */\n      0x00\n        /* \"hmtRate.sol\":1851:1860  uint8   d */\n      0x00\n        /* \"hmtRate.sol\":1870:1874  USDT */\n      immutable(\"0x9560168699514dcd528543d614e81b4f36adf182dc624d2f1eb91df8addd987e\")\n        /* \"hmtRate.sol\":1863:1884  IERC20(USDT).decimals */\n      0xffffffffffffffffffffffffffffffffffffffff\n      and\n      0x313ce567\n        /* \"hmtRate.sol\":1863:1886  IERC20(USDT).decimals() */\n      mload(0x40)\n      dup2\n      0xffffffff\n      and\n      0xe0\n      shl\n      dup2\n      mstore\n      0x04\n      add\n      0x20\n      mload(0x40)\n      dup1\n      dup4\n      sub\n      dup2\n      dup7\n      gas\n      staticcall\n      iszero\n      dup1\n      iszero\n      tag_48\n      jumpi\n      returndatacopy(0x00, 0x00, returndatasize)\n      revert(0x00, returndatasize)\n    tag_48:\n      pop\n      pop\n      pop\n      pop\n      mload(0x40)\n      returndatasize\n      not(0x1f)\n      0x1f\n      dup3\n      add\n      and\n      dup3\n      add\n      dup1\n      0x40\n      mstore\n      pop\n      dup2\n      add\n      swap1\n      tag_49\n      swap2\n      swap1\n      tag_50\n      jump\t// in\n    tag_49:\n        /* \"hmtRate.sol\":1851:1886  uint8   d = IERC20(USDT).decimals() */\n      swap1\n      pop\n        /* \"hmtRate.sol\":1897:1912  uint256 oneUsdt */\n      0x00\n        /* \"hmtRate.sol\":1921:1922  d */\n      dup2\n        /* \"hmtRate.sol\":1915:1917  10 */\n      0x0a\n        /* \"hmtRate.sol\":1915:1922  10 ** d */\n      tag_51\n      swap2\n      swap1\n      tag_52\n      jump\t// in\n    tag_51:\n        /* \"hmtRate.sol\":1897:1922  uint256 oneUsdt = 10 ** d */\n      swap1\n      pop\n        /* \"hmtRate.sol\":1940:1962  getHmtForUsdt(oneUsdt) */\n      tag_53\n        /* \"hmtRate.sol\":1954:1961  oneUsdt */\n      dup2\n        /* \"hmtRate.sol\":1940:1953  getHmtForUsdt */\n      tag_11\n        /* \"hmtRate.sol\":1940:1962  getHmtForUsdt(oneUsdt) */\n      jump\t// in\n    tag_53:\n        /* \"hmtRate.sol\":1933:1962  return getHmtForUsdt(oneUsdt) */\n      swap3\n      pop\n      pop\n      pop\n        /* \"hmtRate.sol\":1785:1970  function getLiveRate() external view returns (uint256) {... */\n      swap1\n      jump\t// out\n        /* \"hmtRate.sol\":504:539  address        public immutable HMT */\n    tag_18:\n      immutable(\"0x9cce9eb03c9f29c6481fca9f0f942b15bef0bbbc47fda0ddb44df157019835d9\")\n      dup2\n      jump\t// out\n        /* \"hmtRate.sol\":546:582  address        public immutable USDT */\n    tag_22:\n      immutable(\"0x9560168699514dcd528543d614e81b4f36adf182dc624d2f1eb91df8addd987e\")\n      dup2\n      jump\t// out\n        /* \"hmtRate.sol\":459:497  IPancakeRouter public immutable router */\n    tag_25:\n      immutable(\"0x6585423cb6456b1d4957f6454d2f004f0c4f58d53a00082412d5c2ef4b1b31fd\")\n      dup2\n      jump\t// out\n        /* \"#utility.yul\":7:82   */\n    tag_54:\n        /* \"#utility.yul\":40:46   */\n      0x00\n        /* \"#utility.yul\":73:75   */\n      0x40\n        /* \"#utility.yul\":67:76   */\n      mload\n        /* \"#utility.yul\":57:76   */\n      swap1\n      pop\n        /* \"#utility.yul\":7:82   */\n      swap1\n      jump\t// out\n        /* \"#utility.yul\":88:205   */\n    tag_55:\n        /* \"#utility.yul\":197:198   */\n      0x00\n        /* \"#utility.yul\":194:195   */\n      0x00\n        /* \"#utility.yul\":187:199   */\n      revert\n        /* \"#utility.yul\":211:328   */\n    tag_56:\n        /* \"#utility.yul\":320:321   */\n      0x00\n        /* \"#utility.yul\":317:318   */\n      0x00\n        /* \"#utility.yul\":310:322   */\n      revert\n        /* \"#utility.yul\":334:411   */\n    tag_57:\n        /* \"#utility.yul\":371:378   */\n      0x00\n        /* \"#utility.yul\":400:405   */\n      dup2\n        /* \"#utility.yul\":389:405   */\n      swap1\n      pop\n        /* \"#utility.yul\":334:411   */\n      swap2\n      swap1\n      pop\n      jump\t// out\n        /* \"#utility.yul\":417:539   */\n    tag_58:\n        /* \"#utility.yul\":490:514   */\n      tag_98\n        /* \"#utility.yul\":508:513   */\n      dup2\n        /* \"#utility.yul\":490:514   */\n      tag_57\n      jump\t// in\n    tag_98:\n        /* \"#utility.yul\":483:488   */\n      dup2\n        /* \"#utility.yul\":480:515   */\n      eq\n        /* \"#utility.yul\":470:533   */\n      tag_99\n      jumpi\n        /* \"#utility.yul\":529:530   */\n      0x00\n        /* \"#utility.yul\":526:527   */\n      0x00\n        /* \"#utility.yul\":519:531   */\n      revert\n        /* \"#utility.yul\":470:533   */\n    tag_99:\n        /* \"#utility.yul\":417:539   */\n      pop\n      jump\t// out\n        /* \"#utility.yul\":545:684   */\n    tag_59:\n        /* \"#utility.yul\":591:596   */\n      0x00\n        /* \"#utility.yul\":629:635   */\n      dup2\n        /* \"#utility.yul\":616:636   */\n      calldataload\n        /* \"#utility.yul\":607:636   */\n      swap1\n      pop\n        /* \"#utility.yul\":645:678   */\n      tag_101\n        /* \"#utility.yul\":672:677   */\n      dup2\n        /* \"#utility.yul\":645:678   */\n      tag_58\n      jump\t// in\n    tag_101:\n        /* \"#utility.yul\":545:684   */\n      swap3\n      swap2\n      pop\n      pop\n      jump\t// out\n        /* \"#utility.yul\":690:1019   */\n    tag_10:\n        /* \"#utility.yul\":749:755   */\n      0x00\n        /* \"#utility.yul\":798:800   */\n      0x20\n        /* \"#utility.yul\":786:795   */\n      dup3\n        /* \"#utility.yul\":777:784   */\n      dup5\n        /* \"#utility.yul\":773:796   */\n      sub\n        /* \"#utility.yul\":769:801   */\n      slt\n        /* \"#utility.yul\":766:885   */\n      iszero\n      tag_103\n      jumpi\n        /* \"#utility.yul\":804:883   */\n      tag_104\n      tag_55\n      jump\t// in\n    tag_104:\n        /* \"#utility.yul\":766:885   */\n    tag_103:\n        /* \"#utility.yul\":924:925   */\n      0x00\n        /* \"#utility.yul\":949:1002   */\n      tag_105\n        /* \"#utility.yul\":994:1001   */\n      dup5\n        /* \"#utility.yul\":985:991   */\n      dup3\n        /* \"#utility.yul\":974:983   */\n      dup6\n        /* \"#utility.yul\":970:992   */\n      add\n        /* \"#utility.yul\":949:1002   */\n      tag_59\n      jump\t// in\n    tag_105:\n        /* \"#utility.yul\":939:1002   */\n      swap2\n      pop\n        /* \"#utility.yul\":895:1012   */\n      pop\n        /* \"#utility.yul\":690:1019   */\n      swap3\n      swap2\n      pop\n      pop\n      jump\t// out\n        /* \"#utility.yul\":1025:1143   */\n    tag_60:\n        /* \"#utility.yul\":1112:1136   */\n      tag_107\n        /* \"#utility.yul\":1130:1135   */\n      dup2\n        /* \"#utility.yul\":1112:1136   */\n      tag_57\n      jump\t// in\n    tag_107:\n        /* \"#utility.yul\":1107:1110   */\n      dup3\n        /* \"#utility.yul\":1100:1137   */\n      mstore\n        /* \"#utility.yul\":1025:1143   */\n      pop\n      pop\n      jump\t// out\n        /* \"#utility.yul\":1149:1371   */\n    tag_13:\n        /* \"#utility.yul\":1242:1246   */\n      0x00\n        /* \"#utility.yul\":1280:1282   */\n      0x20\n        /* \"#utility.yul\":1269:1278   */\n      dup3\n        /* \"#utility.yul\":1265:1283   */\n      add\n        /* \"#utility.yul\":1257:1283   */\n      swap1\n      pop\n        /* \"#utility.yul\":1293:1364   */\n      tag_109\n        /* \"#utility.yul\":1361:1362   */\n      0x00\n        /* \"#utility.yul\":1350:1359   */\n      dup4\n        /* \"#utility.yul\":1346:1363   */\n      add\n        /* \"#utility.yul\":1337:1343   */\n      dup5\n        /* \"#utility.yul\":1293:1364   */\n      tag_60\n      jump\t// in\n    tag_109:\n        /* \"#utility.yul\":1149:1371   */\n      swap3\n      swap2\n      pop\n      pop\n      jump\t// out\n        /* \"#utility.yul\":1377:1503   */\n    tag_61:\n        /* \"#utility.yul\":1414:1421   */\n      0x00\n        /* \"#utility.yul\":1454:1496   */\n      0xffffffffffffffffffffffffffffffffffffffff\n        /* \"#utility.yul\":1447:1452   */\n      dup3\n        /* \"#utility.yul\":1443:1497   */\n      and\n        /* \"#utility.yul\":1432:1497   */\n      swap1\n      pop\n        /* \"#utility.yul\":1377:1503   */\n      swap2\n      swap1\n      pop\n      jump\t// out\n        /* \"#utility.yul\":1509:1605   */\n    tag_62:\n        /* \"#utility.yul\":1546:1553   */\n      0x00\n        /* \"#utility.yul\":1575:1599   */\n      tag_112\n        /* \"#utility.yul\":1593:1598   */\n      dup3\n        /* \"#utility.yul\":1575:1599   */\n      tag_61\n      jump\t// in\n    tag_112:\n        /* \"#utility.yul\":1564:1599   */\n      swap1\n      pop\n        /* \"#utility.yul\":1509:1605   */\n      swap2\n      swap1\n      pop\n      jump\t// out\n        /* \"#utility.yul\":1611:1729   */\n    tag_63:\n        /* \"#utility.yul\":1698:1722   */\n      tag_114\n        /* \"#utility.yul\":1716:1721   */\n      dup2\n        /* \"#utility.yul\":1698:1722   */\n      tag_62\n      jump\t// in\n    tag_114:\n        /* \"#utility.yul\":1693:1696   */\n      dup3\n        /* \"#utility.yul\":1686:1723   */\n      mstore\n        /* \"#utility.yul\":1611:1729   */\n      pop\n      pop\n      jump\t// out\n        /* \"#utility.yul\":1735:1957   */\n    tag_20:\n        /* \"#utility.yul\":1828:1832   */\n      0x00\n        /* \"#utility.yul\":1866:1868   */\n      0x20\n        /* \"#utility.yul\":1855:1864   */\n      dup3\n        /* \"#utility.yul\":1851:1869   */\n      add\n        /* \"#utility.yul\":1843:1869   */\n      swap1\n      pop\n        /* \"#utility.yul\":1879:1950   */\n      tag_116\n        /* \"#utility.yul\":1947:1948   */\n      0x00\n        /* \"#utility.yul\":1936:1945   */\n      dup4\n        /* \"#utility.yul\":1932:1949   */\n      add\n        /* \"#utility.yul\":1923:1929   */\n      dup5\n        /* \"#utility.yul\":1879:1950   */\n      tag_63\n      jump\t// in\n    tag_116:\n        /* \"#utility.yul\":1735:1957   */\n      swap3\n      swap2\n      pop\n      pop\n      jump\t// out\n        /* \"#utility.yul\":1963:2023   */\n    tag_64:\n        /* \"#utility.yul\":1991:1994   */\n      0x00\n        /* \"#utility.yul\":2012:2017   */\n      dup2\n        /* \"#utility.yul\":2005:2017   */\n      swap1\n      pop\n        /* \"#utility.yul\":1963:2023   */\n      swap2\n      swap1\n      pop\n      jump\t// out\n        /* \"#utility.yul\":2029:2171   */\n    tag_65:\n        /* \"#utility.yul\":2079:2088   */\n      0x00\n        /* \"#utility.yul\":2112:2165   */\n      tag_119\n        /* \"#utility.yul\":2130:2164   */\n      tag_120\n        /* \"#utility.yul\":2139:2163   */\n      tag_121\n        /* \"#utility.yul\":2157:2162   */\n      dup5\n        /* \"#utility.yul\":2139:2163   */\n      tag_61\n      jump\t// in\n    tag_121:\n        /* \"#utility.yul\":2130:2164   */\n      tag_64\n      jump\t// in\n    tag_120:\n        /* \"#utility.yul\":2112:2165   */\n      tag_61\n      jump\t// in\n    tag_119:\n        /* \"#utility.yul\":2099:2165   */\n      swap1\n      pop\n        /* \"#utility.yul\":2029:2171   */\n      swap2\n      swap1\n      pop\n      jump\t// out\n        /* \"#utility.yul\":2177:2303   */\n    tag_66:\n        /* \"#utility.yul\":2227:2236   */\n      0x00\n        /* \"#utility.yul\":2260:2297   */\n      tag_123\n        /* \"#utility.yul\":2291:2296   */\n      dup3\n        /* \"#utility.yul\":2260:2297   */\n      tag_65\n      jump\t// in\n    tag_123:\n        /* \"#utility.yul\":2247:2297   */\n      swap1\n      pop\n        /* \"#utility.yul\":2177:2303   */\n      swap2\n      swap1\n      pop\n      jump\t// out\n        /* \"#utility.yul\":2309:2456   */\n    tag_67:\n        /* \"#utility.yul\":2380:2389   */\n      0x00\n        /* \"#utility.yul\":2413:2450   */\n      tag_125\n        /* \"#utility.yul\":2444:2449   */\n      dup3\n        /* \"#utility.yul\":2413:2450   */\n      tag_66\n      jump\t// in\n    tag_125:\n        /* \"#utility.yul\":2400:2450   */\n      swap1\n      pop\n        /* \"#utility.yul\":2309:2456   */\n      swap2\n      swap1\n      pop\n      jump\t// out\n        /* \"#utility.yul\":2462:2635   */\n    tag_68:\n        /* \"#utility.yul\":2570:2628   */\n      tag_127\n        /* \"#utility.yul\":2622:2627   */\n      dup2\n        /* \"#utility.yul\":2570:2628   */\n      tag_67\n      jump\t// in\n    tag_127:\n        /* \"#utility.yul\":2565:2568   */\n      dup3\n        /* \"#utility.yul\":2558:2629   */\n      mstore\n        /* \"#utility.yul\":2462:2635   */\n      pop\n      pop\n      jump\t// out\n        /* \"#utility.yul\":2641:2905   */\n    tag_27:\n        /* \"#utility.yul\":2755:2759   */\n      0x00\n        /* \"#utility.yul\":2793:2795   */\n      0x20\n        /* \"#utility.yul\":2782:2791   */\n      dup3\n        /* \"#utility.yul\":2778:2796   */\n      add\n        /* \"#utility.yul\":2770:2796   */\n      swap1\n      pop\n        /* \"#utility.yul\":2806:2898   */\n      tag_129\n        /* \"#utility.yul\":2895:2896   */\n      0x00\n        /* \"#utility.yul\":2884:2893   */\n      dup4\n        /* \"#utility.yul\":2880:2897   */\n      add\n        /* \"#utility.yul\":2871:2877   */\n      dup5\n        /* \"#utility.yul\":2806:2898   */\n      tag_68\n      jump\t// in\n    tag_129:\n        /* \"#utility.yul\":2641:2905   */\n      swap3\n      swap2\n      pop\n      pop\n      jump\t// out\n        /* \"#utility.yul\":2911:3091   */\n    tag_31:\n        /* \"#utility.yul\":2959:3036   */\n      0x4e487b7100000000000000000000000000000000000000000000000000000000\n        /* \"#utility.yul\":2956:2957   */\n      0x00\n        /* \"#utility.yul\":2949:3037   */\n      mstore\n        /* \"#utility.yul\":3056:3060   */\n      0x41\n        /* \"#utility.yul\":3053:3054   */\n      0x04\n        /* \"#utility.yul\":3046:3061   */\n      mstore\n        /* \"#utility.yul\":3080:3084   */\n      0x24\n        /* \"#utility.yul\":3077:3078   */\n      0x00\n        /* \"#utility.yul\":3070:3085   */\n      revert\n        /* \"#utility.yul\":3097:3277   */\n    tag_35:\n        /* \"#utility.yul\":3145:3222   */\n      0x4e487b7100000000000000000000000000000000000000000000000000000000\n        /* \"#utility.yul\":3142:3143   */\n      0x00\n        /* \"#utility.yul\":3135:3223   */\n      mstore\n        /* \"#utility.yul\":3242:3246   */\n      0x32\n        /* \"#utility.yul\":3239:3240   */\n      0x04\n        /* \"#utility.yul\":3232:3247   */\n      mstore\n        /* \"#utility.yul\":3266:3270   */\n      0x24\n        /* \"#utility.yul\":3263:3264   */\n      0x00\n        /* \"#utility.yul\":3256:3271   */\n      revert\n        /* \"#utility.yul\":3283:3397   */\n    tag_69:\n        /* \"#utility.yul\":3350:3356   */\n      0x00\n        /* \"#utility.yul\":3384:3389   */\n      dup2\n        /* \"#utility.yul\":3378:3390   */\n      mload\n        /* \"#utility.yul\":3368:3390   */\n      swap1\n      pop\n        /* \"#utility.yul\":3283:3397   */\n      swap2\n      swap1\n      pop\n      jump\t// out\n        /* \"#utility.yul\":3403:3587   */\n    tag_70:\n        /* \"#utility.yul\":3502:3513   */\n      0x00\n        /* \"#utility.yul\":3536:3542   */\n      dup3\n        /* \"#utility.yul\":3531:3534   */\n      dup3\n        /* \"#utility.yul\":3524:3543   */\n      mstore\n        /* \"#utility.yul\":3576:3580   */\n      0x20\n        /* \"#utility.yul\":3571:3574   */\n      dup3\n        /* \"#utility.yul\":3567:3581   */\n      add\n        /* \"#utility.yul\":3552:3581   */\n      swap1\n      pop\n        /* \"#utility.yul\":3403:3587   */\n      swap3\n      swap2\n      pop\n      pop\n      jump\t// out\n        /* \"#utility.yul\":3593:3725   */\n    tag_71:\n        /* \"#utility.yul\":3660:3664   */\n      0x00\n        /* \"#utility.yul\":3683:3686   */\n      dup2\n        /* \"#utility.yul\":3675:3686   */\n      swap1\n      pop\n        /* \"#utility.yul\":3713:3717   */\n      0x20\n        /* \"#utility.yul\":3708:3711   */\n      dup3\n        /* \"#utility.yul\":3704:3718   */\n      add\n        /* \"#utility.yul\":3696:3718   */\n      swap1\n      pop\n        /* \"#utility.yul\":3593:3725   */\n      swap2\n      swap1\n      pop\n      jump\t// out\n        /* \"#utility.yul\":3731:3839   */\n    tag_72:\n        /* \"#utility.yul\":3808:3832   */\n      tag_136\n        /* \"#utility.yul\":3826:3831   */\n      dup2\n        /* \"#utility.yul\":3808:3832   */\n      tag_62\n      jump\t// in\n    tag_136:\n        /* \"#utility.yul\":3803:3806   */\n      dup3\n        /* \"#utility.yul\":3796:3833   */\n      mstore\n        /* \"#utility.yul\":3731:3839   */\n      pop\n      pop\n      jump\t// out\n        /* \"#utility.yul\":3845:4024   */\n    tag_73:\n        /* \"#utility.yul\":3914:3924   */\n      0x00\n        /* \"#utility.yul\":3935:3981   */\n      tag_138\n        /* \"#utility.yul\":3977:3980   */\n      dup4\n        /* \"#utility.yul\":3969:3975   */\n      dup4\n        /* \"#utility.yul\":3935:3981   */\n      tag_72\n      jump\t// in\n    tag_138:\n        /* \"#utility.yul\":4013:4017   */\n      0x20\n        /* \"#utility.yul\":4008:4011   */\n      dup4\n        /* \"#utility.yul\":4004:4018   */\n      add\n        /* \"#utility.yul\":3990:4018   */\n      swap1\n      pop\n        /* \"#utility.yul\":3845:4024   */\n      swap3\n      swap2\n      pop\n      pop\n      jump\t// out\n        /* \"#utility.yul\":4030:4143   */\n    tag_74:\n        /* \"#utility.yul\":4100:4104   */\n      0x00\n        /* \"#utility.yul\":4132:4136   */\n      0x20\n        /* \"#utility.yul\":4127:4130   */\n      dup3\n        /* \"#utility.yul\":4123:4137   */\n      add\n        /* \"#utility.yul\":4115:4137   */\n      swap1\n      pop\n        /* \"#utility.yul\":4030:4143   */\n      swap2\n      swap1\n      pop\n      jump\t// out\n        /* \"#utility.yul\":4179:4911   */\n    tag_75:\n        /* \"#utility.yul\":4298:4301   */\n      0x00\n        /* \"#utility.yul\":4327:4381   */\n      tag_141\n        /* \"#utility.yul\":4375:4380   */\n      dup3\n        /* \"#utility.yul\":4327:4381   */\n      tag_69\n      jump\t// in\n    tag_141:\n        /* \"#utility.yul\":4397:4483   */\n      tag_142\n        /* \"#utility.yul\":4476:4482   */\n      dup2\n        /* \"#utility.yul\":4471:4474   */\n      dup6\n        /* \"#utility.yul\":4397:4483   */\n      tag_70\n      jump\t// in\n    tag_142:\n        /* \"#utility.yul\":4390:4483   */\n      swap4\n      pop\n        /* \"#utility.yul\":4507:4563   */\n      tag_143\n        /* \"#utility.yul\":4557:4562   */\n      dup4\n        /* \"#utility.yul\":4507:4563   */\n      tag_71\n      jump\t// in\n    tag_143:\n        /* \"#utility.yul\":4586:4593   */\n      dup1\n        /* \"#utility.yul\":4617:4618   */\n      0x00\n        /* \"#utility.yul\":4602:4886   */\n    tag_144:\n        /* \"#utility.yul\":4627:4633   */\n      dup4\n        /* \"#utility.yul\":4624:4625   */\n      dup2\n        /* \"#utility.yul\":4621:4634   */\n      lt\n        /* \"#utility.yul\":4602:4886   */\n      iszero\n      tag_146\n      jumpi\n        /* \"#utility.yul\":4703:4709   */\n      dup2\n        /* \"#utility.yul\":4697:4710   */\n      mload\n        /* \"#utility.yul\":4730:4793   */\n      tag_147\n        /* \"#utility.yul\":4789:4792   */\n      dup9\n        /* \"#utility.yul\":4774:4787   */\n      dup3\n        /* \"#utility.yul\":4730:4793   */\n      tag_73\n      jump\t// in\n    tag_147:\n        /* \"#utility.yul\":4723:4793   */\n      swap8\n      pop\n        /* \"#utility.yul\":4816:4876   */\n      tag_148\n        /* \"#utility.yul\":4869:4875   */\n      dup4\n        /* \"#utility.yul\":4816:4876   */\n      tag_74\n      jump\t// in\n    tag_148:\n        /* \"#utility.yul\":4806:4876   */\n      swap3\n      pop\n        /* \"#utility.yul\":4662:4886   */\n      pop\n        /* \"#utility.yul\":4649:4650   */\n      0x01\n        /* \"#utility.yul\":4646:4647   */\n      dup2\n        /* \"#utility.yul\":4642:4651   */\n      add\n        /* \"#utility.yul\":4637:4651   */\n      swap1\n      pop\n        /* \"#utility.yul\":4602:4886   */\n      jump(tag_144)\n    tag_146:\n        /* \"#utility.yul\":4606:4620   */\n      pop\n        /* \"#utility.yul\":4902:4905   */\n      dup6\n        /* \"#utility.yul\":4895:4905   */\n      swap4\n      pop\n        /* \"#utility.yul\":4303:4911   */\n      pop\n      pop\n      pop\n        /* \"#utility.yul\":4179:4911   */\n      swap3\n      swap2\n      pop\n      pop\n      jump\t// out\n        /* \"#utility.yul\":4917:5400   */\n    tag_39:\n        /* \"#utility.yul\":5088:5092   */\n      0x00\n        /* \"#utility.yul\":5126:5128   */\n      0x40\n        /* \"#utility.yul\":5115:5124   */\n      dup3\n        /* \"#utility.yul\":5111:5129   */\n      add\n        /* \"#utility.yul\":5103:5129   */\n      swap1\n      pop\n        /* \"#utility.yul\":5139:5210   */\n      tag_150\n        /* \"#utility.yul\":5207:5208   */\n      0x00\n        /* \"#utility.yul\":5196:5205   */\n      dup4\n        /* \"#utility.yul\":5192:5209   */\n      add\n        /* \"#utility.yul\":5183:5189   */\n      dup6\n        /* \"#utility.yul\":5139:5210   */\n      tag_60\n      jump\t// in\n    tag_150:\n        /* \"#utility.yul\":5257:5266   */\n      dup2\n        /* \"#utility.yul\":5251:5255   */\n      dup2\n        /* \"#utility.yul\":5247:5267   */\n      sub\n        /* \"#utility.yul\":5242:5244   */\n      0x20\n        /* \"#utility.yul\":5231:5240   */\n      dup4\n        /* \"#utility.yul\":5227:5245   */\n      add\n        /* \"#utility.yul\":5220:5268   */\n      mstore\n        /* \"#utility.yul\":5285:5393   */\n      tag_151\n        /* \"#utility.yul\":5388:5392   */\n      dup2\n        /* \"#utility.yul\":5379:5385   */\n      dup5\n        /* \"#utility.yul\":5285:5393   */\n      tag_75\n      jump\t// in\n    tag_151:\n        /* \"#utility.yul\":5277:5393   */\n      swap1\n      pop\n        /* \"#utility.yul\":4917:5400   */\n      swap4\n      swap3\n      pop\n      pop\n      pop\n      jump\t// out\n        /* \"#utility.yul\":5406:5523   */\n    tag_76:\n        /* \"#utility.yul\":5515:5516   */\n      0x00\n        /* \"#utility.yul\":5512:5513   */\n      0x00\n        /* \"#utility.yul\":5505:5517   */\n      revert\n        /* \"#utility.yul\":5529:5631   */\n    tag_77:\n        /* \"#utility.yul\":5570:5576   */\n      0x00\n        /* \"#utility.yul\":5621:5623   */\n      0x1f\n        /* \"#utility.yul\":5617:5624   */\n      not\n        /* \"#utility.yul\":5612:5614   */\n      0x1f\n        /* \"#utility.yul\":5605:5610   */\n      dup4\n        /* \"#utility.yul\":5601:5615   */\n      add\n        /* \"#utility.yul\":5597:5625   */\n      and\n        /* \"#utility.yul\":5587:5625   */\n      swap1\n      pop\n        /* \"#utility.yul\":5529:5631   */\n      swap2\n      swap1\n      pop\n      jump\t// out\n        /* \"#utility.yul\":5637:5918   */\n    tag_78:\n        /* \"#utility.yul\":5720:5747   */\n      tag_155\n        /* \"#utility.yul\":5742:5746   */\n      dup3\n        /* \"#utility.yul\":5720:5747   */\n      tag_77\n      jump\t// in\n    tag_155:\n        /* \"#utility.yul\":5712:5718   */\n      dup2\n        /* \"#utility.yul\":5708:5748   */\n      add\n        /* \"#utility.yul\":5850:5856   */\n      dup2\n        /* \"#utility.yul\":5838:5848   */\n      dup2\n        /* \"#utility.yul\":5835:5857   */\n      lt\n        /* \"#utility.yul\":5814:5832   */\n      0xffffffffffffffff\n        /* \"#utility.yul\":5802:5812   */\n      dup3\n        /* \"#utility.yul\":5799:5833   */\n      gt\n        /* \"#utility.yul\":5796:5858   */\n      or\n        /* \"#utility.yul\":5793:5881   */\n      iszero\n      tag_156\n      jumpi\n        /* \"#utility.yul\":5861:5879   */\n      tag_157\n      tag_31\n      jump\t// in\n    tag_157:\n        /* \"#utility.yul\":5793:5881   */\n    tag_156:\n        /* \"#utility.yul\":5901:5911   */\n      dup1\n        /* \"#utility.yul\":5897:5899   */\n      0x40\n        /* \"#utility.yul\":5890:5912   */\n      mstore\n        /* \"#utility.yul\":5680:5918   */\n      pop\n        /* \"#utility.yul\":5637:5918   */\n      pop\n      pop\n      jump\t// out\n        /* \"#utility.yul\":5924:6053   */\n    tag_79:\n        /* \"#utility.yul\":5958:5964   */\n      0x00\n        /* \"#utility.yul\":5985:6005   */\n      tag_159\n      tag_54\n      jump\t// in\n    tag_159:\n        /* \"#utility.yul\":5975:6005   */\n      swap1\n      pop\n        /* \"#utility.yul\":6014:6047   */\n      tag_160\n        /* \"#utility.yul\":6042:6046   */\n      dup3\n        /* \"#utility.yul\":6034:6040   */\n      dup3\n        /* \"#utility.yul\":6014:6047   */\n      tag_78\n      jump\t// in\n    tag_160:\n        /* \"#utility.yul\":5924:6053   */\n      swap2\n      swap1\n      pop\n      jump\t// out\n        /* \"#utility.yul\":6059:6370   */\n    tag_80:\n        /* \"#utility.yul\":6136:6140   */\n      0x00\n        /* \"#utility.yul\":6226:6244   */\n      0xffffffffffffffff\n        /* \"#utility.yul\":6218:6224   */\n      dup3\n        /* \"#utility.yul\":6215:6245   */\n      gt\n        /* \"#utility.yul\":6212:6268   */\n      iszero\n      tag_162\n      jumpi\n        /* \"#utility.yul\":6248:6266   */\n      tag_163\n      tag_31\n      jump\t// in\n    tag_163:\n        /* \"#utility.yul\":6212:6268   */\n    tag_162:\n        /* \"#utility.yul\":6298:6302   */\n      0x20\n        /* \"#utility.yul\":6290:6296   */\n      dup3\n        /* \"#utility.yul\":6286:6303   */\n      mul\n        /* \"#utility.yul\":6278:6303   */\n      swap1\n      pop\n        /* \"#utility.yul\":6358:6362   */\n      0x20\n        /* \"#utility.yul\":6352:6356   */\n      dup2\n        /* \"#utility.yul\":6348:6363   */\n      add\n        /* \"#utility.yul\":6340:6363   */\n      swap1\n      pop\n        /* \"#utility.yul\":6059:6370   */\n      swap2\n      swap1\n      pop\n      jump\t// out\n        /* \"#utility.yul\":6376:6493   */\n    tag_81:\n        /* \"#utility.yul\":6485:6486   */\n      0x00\n        /* \"#utility.yul\":6482:6483   */\n      0x00\n        /* \"#utility.yul\":6475:6487   */\n      revert\n        /* \"#utility.yul\":6499:6642   */\n    tag_82:\n        /* \"#utility.yul\":6556:6561   */\n      0x00\n        /* \"#utility.yul\":6587:6593   */\n      dup2\n        /* \"#utility.yul\":6581:6594   */\n      mload\n        /* \"#utility.yul\":6572:6594   */\n      swap1\n      pop\n        /* \"#utility.yul\":6603:6636   */\n      tag_166\n        /* \"#utility.yul\":6630:6635   */\n      dup2\n        /* \"#utility.yul\":6603:6636   */\n      tag_58\n      jump\t// in\n    tag_166:\n        /* \"#utility.yul\":6499:6642   */\n      swap3\n      swap2\n      pop\n      pop\n      jump\t// out\n        /* \"#utility.yul\":6665:7397   */\n    tag_83:\n        /* \"#utility.yul\":6772:6777   */\n      0x00\n        /* \"#utility.yul\":6797:6878   */\n      tag_168\n        /* \"#utility.yul\":6813:6877   */\n      tag_169\n        /* \"#utility.yul\":6870:6876   */\n      dup5\n        /* \"#utility.yul\":6813:6877   */\n      tag_80\n      jump\t// in\n    tag_169:\n        /* \"#utility.yul\":6797:6878   */\n      tag_79\n      jump\t// in\n    tag_168:\n        /* \"#utility.yul\":6788:6878   */\n      swap1\n      pop\n        /* \"#utility.yul\":6898:6903   */\n      dup1\n        /* \"#utility.yul\":6927:6933   */\n      dup4\n        /* \"#utility.yul\":6920:6925   */\n      dup3\n        /* \"#utility.yul\":6913:6934   */\n      mstore\n        /* \"#utility.yul\":6961:6965   */\n      0x20\n        /* \"#utility.yul\":6954:6959   */\n      dup3\n        /* \"#utility.yul\":6950:6966   */\n      add\n        /* \"#utility.yul\":6943:6966   */\n      swap1\n      pop\n        /* \"#utility.yul\":7014:7018   */\n      0x20\n        /* \"#utility.yul\":7006:7012   */\n      dup5\n        /* \"#utility.yul\":7002:7019   */\n      mul\n        /* \"#utility.yul\":6994:7000   */\n      dup4\n        /* \"#utility.yul\":6990:7020   */\n      add\n        /* \"#utility.yul\":7043:7046   */\n      dup6\n        /* \"#utility.yul\":7035:7041   */\n      dup2\n        /* \"#utility.yul\":7032:7047   */\n      gt\n        /* \"#utility.yul\":7029:7151   */\n      iszero\n      tag_170\n      jumpi\n        /* \"#utility.yul\":7062:7141   */\n      tag_171\n      tag_81\n      jump\t// in\n    tag_171:\n        /* \"#utility.yul\":7029:7151   */\n    tag_170:\n        /* \"#utility.yul\":7177:7183   */\n      dup4\n        /* \"#utility.yul\":7160:7391   */\n    tag_172:\n        /* \"#utility.yul\":7194:7200   */\n      dup2\n        /* \"#utility.yul\":7189:7192   */\n      dup2\n        /* \"#utility.yul\":7186:7201   */\n      lt\n        /* \"#utility.yul\":7160:7391   */\n      iszero\n      tag_174\n      jumpi\n        /* \"#utility.yul\":7269:7272   */\n      dup1\n        /* \"#utility.yul\":7298:7346   */\n      tag_175\n        /* \"#utility.yul\":7342:7345   */\n      dup9\n        /* \"#utility.yul\":7330:7340   */\n      dup3\n        /* \"#utility.yul\":7298:7346   */\n      tag_82\n      jump\t// in\n    tag_175:\n        /* \"#utility.yul\":7293:7296   */\n      dup5\n        /* \"#utility.yul\":7286:7347   */\n      mstore\n        /* \"#utility.yul\":7376:7380   */\n      0x20\n        /* \"#utility.yul\":7371:7374   */\n      dup5\n        /* \"#utility.yul\":7367:7381   */\n      add\n        /* \"#utility.yul\":7360:7381   */\n      swap4\n      pop\n        /* \"#utility.yul\":7236:7391   */\n      pop\n        /* \"#utility.yul\":7220:7224   */\n      0x20\n        /* \"#utility.yul\":7215:7218   */\n      dup2\n        /* \"#utility.yul\":7211:7225   */\n      add\n        /* \"#utility.yul\":7204:7225   */\n      swap1\n      pop\n        /* \"#utility.yul\":7160:7391   */\n      jump(tag_172)\n    tag_174:\n        /* \"#utility.yul\":7164:7185   */\n      pop\n        /* \"#utility.yul\":6778:7397   */\n      pop\n      pop\n        /* \"#utility.yul\":6665:7397   */\n      swap4\n      swap3\n      pop\n      pop\n      pop\n      jump\t// out\n        /* \"#utility.yul\":7420:7805   */\n    tag_84:\n        /* \"#utility.yul\":7502:7507   */\n      0x00\n        /* \"#utility.yul\":7551:7554   */\n      dup3\n        /* \"#utility.yul\":7544:7548   */\n      0x1f\n        /* \"#utility.yul\":7536:7542   */\n      dup4\n        /* \"#utility.yul\":7532:7549   */\n      add\n        /* \"#utility.yul\":7528:7555   */\n      slt\n        /* \"#utility.yul\":7518:7640   */\n      tag_177\n      jumpi\n        /* \"#utility.yul\":7559:7638   */\n      tag_178\n      tag_76\n      jump\t// in\n    tag_178:\n        /* \"#utility.yul\":7518:7640   */\n    tag_177:\n        /* \"#utility.yul\":7669:7675   */\n      dup2\n        /* \"#utility.yul\":7663:7676   */\n      mload\n        /* \"#utility.yul\":7694:7799   */\n      tag_179\n        /* \"#utility.yul\":7795:7798   */\n      dup5\n        /* \"#utility.yul\":7787:7793   */\n      dup3\n        /* \"#utility.yul\":7780:7784   */\n      0x20\n        /* \"#utility.yul\":7772:7778   */\n      dup7\n        /* \"#utility.yul\":7768:7785   */\n      add\n        /* \"#utility.yul\":7694:7799   */\n      tag_83\n      jump\t// in\n    tag_179:\n        /* \"#utility.yul\":7685:7799   */\n      swap2\n      pop\n        /* \"#utility.yul\":7508:7805   */\n      pop\n        /* \"#utility.yul\":7420:7805   */\n      swap3\n      swap2\n      pop\n      pop\n      jump\t// out\n        /* \"#utility.yul\":7811:8365   */\n    tag_43:\n        /* \"#utility.yul\":7906:7912   */\n      0x00\n        /* \"#utility.yul\":7955:7957   */\n      0x20\n        /* \"#utility.yul\":7943:7952   */\n      dup3\n        /* \"#utility.yul\":7934:7941   */\n      dup5\n        /* \"#utility.yul\":7930:7953   */\n      sub\n        /* \"#utility.yul\":7926:7958   */\n      slt\n        /* \"#utility.yul\":7923:8042   */\n      iszero\n      tag_181\n      jumpi\n        /* \"#utility.yul\":7961:8040   */\n      tag_182\n      tag_55\n      jump\t// in\n    tag_182:\n        /* \"#utility.yul\":7923:8042   */\n    tag_181:\n        /* \"#utility.yul\":8102:8103   */\n      0x00\n        /* \"#utility.yul\":8091:8100   */\n      dup3\n        /* \"#utility.yul\":8087:8104   */\n      add\n        /* \"#utility.yul\":8081:8105   */\n      mload\n        /* \"#utility.yul\":8132:8150   */\n      0xffffffffffffffff\n        /* \"#utility.yul\":8124:8130   */\n      dup2\n        /* \"#utility.yul\":8121:8151   */\n      gt\n        /* \"#utility.yul\":8118:8235   */\n      iszero\n      tag_183\n      jumpi\n        /* \"#utility.yul\":8154:8233   */\n      tag_184\n      tag_56\n      jump\t// in\n    tag_184:\n        /* \"#utility.yul\":8118:8235   */\n    tag_183:\n        /* \"#utility.yul\":8259:8348   */\n      tag_185\n        /* \"#utility.yul\":8340:8347   */\n      dup5\n        /* \"#utility.yul\":8331:8337   */\n      dup3\n        /* \"#utility.yul\":8320:8329   */\n      dup6\n        /* \"#utility.yul\":8316:8338   */\n      add\n        /* \"#utility.yul\":8259:8348   */\n      tag_84\n      jump\t// in\n    tag_185:\n        /* \"#utility.yul\":8249:8348   */\n      swap2\n      pop\n        /* \"#utility.yul\":8052:8358   */\n      pop\n        /* \"#utility.yul\":7811:8365   */\n      swap3\n      swap2\n      pop\n      pop\n      jump\t// out\n        /* \"#utility.yul\":8371:8457   */\n    tag_85:\n        /* \"#utility.yul\":8406:8413   */\n      0x00\n        /* \"#utility.yul\":8446:8450   */\n      0xff\n        /* \"#utility.yul\":8439:8444   */\n      dup3\n        /* \"#utility.yul\":8435:8451   */\n      and\n        /* \"#utility.yul\":8424:8451   */\n      swap1\n      pop\n        /* \"#utility.yul\":8371:8457   */\n      swap2\n      swap1\n      pop\n      jump\t// out\n        /* \"#utility.yul\":8463:8581   */\n    tag_86:\n        /* \"#utility.yul\":8534:8556   */\n      tag_188\n        /* \"#utility.yul\":8550:8555   */\n      dup2\n        /* \"#utility.yul\":8534:8556   */\n      tag_85\n      jump\t// in\n    tag_188:\n        /* \"#utility.yul\":8527:8532   */\n      dup2\n        /* \"#utility.yul\":8524:8557   */\n      eq\n        /* \"#utility.yul\":8514:8575   */\n      tag_189\n      jumpi\n        /* \"#utility.yul\":8571:8572   */\n      0x00\n        /* \"#utility.yul\":8568:8569   */\n      0x00\n        /* \"#utility.yul\":8561:8573   */\n      revert\n        /* \"#utility.yul\":8514:8575   */\n    tag_189:\n        /* \"#utility.yul\":8463:8581   */\n      pop\n      jump\t// out\n        /* \"#utility.yul\":8587:8726   */\n    tag_87:\n        /* \"#utility.yul\":8642:8647   */\n      0x00\n        /* \"#utility.yul\":8673:8679   */\n      dup2\n        /* \"#utility.yul\":8667:8680   */\n      mload\n        /* \"#utility.yul\":8658:8680   */\n      swap1\n      pop\n        /* \"#utility.yul\":8689:8720   */\n      tag_191\n        /* \"#utility.yul\":8714:8719   */\n      dup2\n        /* \"#utility.yul\":8689:8720   */\n      tag_86\n      jump\t// in\n    tag_191:\n        /* \"#utility.yul\":8587:8726   */\n      swap3\n      swap2\n      pop\n      pop\n      jump\t// out\n        /* \"#utility.yul\":8732:9079   */\n    tag_50:\n        /* \"#utility.yul\":8800:8806   */\n      0x00\n        /* \"#utility.yul\":8849:8851   */\n      0x20\n        /* \"#utility.yul\":8837:8846   */\n      dup3\n        /* \"#utility.yul\":8828:8835   */\n      dup5\n        /* \"#utility.yul\":8824:8847   */\n      sub\n        /* \"#utility.yul\":8820:8852   */\n      slt\n        /* \"#utility.yul\":8817:8936   */\n      iszero\n      tag_193\n      jumpi\n        /* \"#utility.yul\":8855:8934   */\n      tag_194\n      tag_55\n      jump\t// in\n    tag_194:\n        /* \"#utility.yul\":8817:8936   */\n    tag_193:\n        /* \"#utility.yul\":8975:8976   */\n      0x00\n        /* \"#utility.yul\":9000:9062   */\n      tag_195\n        /* \"#utility.yul\":9054:9061   */\n      dup5\n        /* \"#utility.yul\":9045:9051   */\n      dup3\n        /* \"#utility.yul\":9034:9043   */\n      dup6\n        /* \"#utility.yul\":9030:9052   */\n      add\n        /* \"#utility.yul\":9000:9062   */\n      tag_87\n      jump\t// in\n    tag_195:\n        /* \"#utility.yul\":8990:9062   */\n      swap2\n      pop\n        /* \"#utility.yul\":8946:9072   */\n      pop\n        /* \"#utility.yul\":8732:9079   */\n      swap3\n      swap2\n      pop\n      pop\n      jump\t// out\n        /* \"#utility.yul\":9085:9265   */\n    tag_88:\n        /* \"#utility.yul\":9133:9210   */\n      0x4e487b7100000000000000000000000000000000000000000000000000000000\n        /* \"#utility.yul\":9130:9131   */\n      0x00\n        /* \"#utility.yul\":9123:9211   */\n      mstore\n        /* \"#utility.yul\":9230:9234   */\n      0x11\n        /* \"#utility.yul\":9227:9228   */\n      0x04\n        /* \"#utility.yul\":9220:9235   */\n      mstore\n        /* \"#utility.yul\":9254:9258   */\n      0x24\n        /* \"#utility.yul\":9251:9252   */\n      0x00\n        /* \"#utility.yul\":9244:9259   */\n      revert\n        /* \"#utility.yul\":9271:9373   */\n    tag_89:\n        /* \"#utility.yul\":9313:9321   */\n      0x00\n        /* \"#utility.yul\":9360:9365   */\n      dup2\n        /* \"#utility.yul\":9357:9358   */\n      0x01\n        /* \"#utility.yul\":9353:9366   */\n      shr\n        /* \"#utility.yul\":9332:9366   */\n      swap1\n      pop\n        /* \"#utility.yul\":9271:9373   */\n      swap2\n      swap1\n      pop\n      jump\t// out\n        /* \"#utility.yul\":9379:10227   */\n    tag_90:\n        /* \"#utility.yul\":9440:9445   */\n      0x00\n        /* \"#utility.yul\":9447:9451   */\n      0x00\n        /* \"#utility.yul\":9471:9477   */\n      dup3\n        /* \"#utility.yul\":9462:9477   */\n      swap2\n      pop\n        /* \"#utility.yul\":9495:9500   */\n      dup4\n        /* \"#utility.yul\":9486:9500   */\n      swap1\n      pop\n        /* \"#utility.yul\":9509:10221   */\n    tag_199:\n        /* \"#utility.yul\":9530:9531   */\n      0x01\n        /* \"#utility.yul\":9520:9528   */\n      dup6\n        /* \"#utility.yul\":9517:9532   */\n      gt\n        /* \"#utility.yul\":9509:10221   */\n      iszero\n      tag_201\n      jumpi\n        /* \"#utility.yul\":9625:9629   */\n      dup1\n        /* \"#utility.yul\":9620:9623   */\n      dup7\n        /* \"#utility.yul\":9616:9630   */\n      div\n        /* \"#utility.yul\":9610:9614   */\n      dup2\n        /* \"#utility.yul\":9607:9631   */\n      gt\n        /* \"#utility.yul\":9604:9654   */\n      iszero\n      tag_202\n      jumpi\n        /* \"#utility.yul\":9634:9652   */\n      tag_203\n      tag_88\n      jump\t// in\n    tag_203:\n        /* \"#utility.yul\":9604:9654   */\n    tag_202:\n        /* \"#utility.yul\":9684:9685   */\n      0x01\n        /* \"#utility.yul\":9674:9682   */\n      dup6\n        /* \"#utility.yul\":9670:9686   */\n      and\n        /* \"#utility.yul\":9667:10118   */\n      iszero\n      tag_204\n      jumpi\n        /* \"#utility.yul\":10099:10103   */\n      dup1\n        /* \"#utility.yul\":10092:10097   */\n      dup3\n        /* \"#utility.yul\":10088:10104   */\n      mul\n        /* \"#utility.yul\":10079:10104   */\n      swap2\n      pop\n        /* \"#utility.yul\":9667:10118   */\n    tag_204:\n        /* \"#utility.yul\":10149:10153   */\n      dup1\n        /* \"#utility.yul\":10143:10147   */\n      dup2\n        /* \"#utility.yul\":10139:10154   */\n      mul\n        /* \"#utility.yul\":10131:10154   */\n      swap1\n      pop\n        /* \"#utility.yul\":10179:10211   */\n      tag_205\n        /* \"#utility.yul\":10202:10210   */\n      dup6\n        /* \"#utility.yul\":10179:10211   */\n      tag_89\n      jump\t// in\n    tag_205:\n        /* \"#utility.yul\":10167:10211   */\n      swap5\n      pop\n        /* \"#utility.yul\":9509:10221   */\n      jump(tag_199)\n    tag_201:\n        /* \"#utility.yul\":9379:10227   */\n      swap5\n      pop\n      swap5\n      swap3\n      pop\n      pop\n      pop\n      jump\t// out\n        /* \"#utility.yul\":10233:11306   */\n    tag_91:\n        /* \"#utility.yul\":10287:10292   */\n      0x00\n        /* \"#utility.yul\":10478:10486   */\n      dup3\n        /* \"#utility.yul\":10468:10508   */\n      tag_207\n      jumpi\n        /* \"#utility.yul\":10499:10500   */\n      0x01\n        /* \"#utility.yul\":10490:10500   */\n      swap1\n      pop\n        /* \"#utility.yul\":10501:10506   */\n      jump(tag_206)\n        /* \"#utility.yul\":10468:10508   */\n    tag_207:\n        /* \"#utility.yul\":10527:10531   */\n      dup2\n        /* \"#utility.yul\":10517:10553   */\n      tag_208\n      jumpi\n        /* \"#utility.yul\":10544:10545   */\n      0x00\n        /* \"#utility.yul\":10535:10545   */\n      swap1\n      pop\n        /* \"#utility.yul\":10546:10551   */\n      jump(tag_206)\n        /* \"#utility.yul\":10517:10553   */\n    tag_208:\n        /* \"#utility.yul\":10613:10617   */\n      dup2\n        /* \"#utility.yul\":10661:10662   */\n      0x01\n        /* \"#utility.yul\":10656:10683   */\n      dup2\n      eq\n      tag_210\n      jumpi\n        /* \"#utility.yul\":10697:10698   */\n      0x02\n        /* \"#utility.yul\":10692:10883   */\n      dup2\n      eq\n      tag_211\n      jumpi\n        /* \"#utility.yul\":10606:10883   */\n      jump(tag_209)\n        /* \"#utility.yul\":10656:10683   */\n    tag_210:\n        /* \"#utility.yul\":10674:10675   */\n      0x01\n        /* \"#utility.yul\":10665:10675   */\n      swap2\n      pop\n        /* \"#utility.yul\":10676:10681   */\n      pop\n      jump(tag_206)\n        /* \"#utility.yul\":10692:10883   */\n    tag_211:\n        /* \"#utility.yul\":10737:10740   */\n      0xff\n        /* \"#utility.yul\":10727:10735   */\n      dup5\n        /* \"#utility.yul\":10724:10741   */\n      gt\n        /* \"#utility.yul\":10721:10764   */\n      iszero\n      tag_212\n      jumpi\n        /* \"#utility.yul\":10744:10762   */\n      tag_213\n      tag_88\n      jump\t// in\n    tag_213:\n        /* \"#utility.yul\":10721:10764   */\n    tag_212:\n        /* \"#utility.yul\":10793:10801   */\n      dup4\n        /* \"#utility.yul\":10790:10791   */\n      0x02\n        /* \"#utility.yul\":10786:10802   */\n      exp\n        /* \"#utility.yul\":10777:10802   */\n      swap2\n      pop\n        /* \"#utility.yul\":10828:10831   */\n      dup5\n        /* \"#utility.yul\":10821:10826   */\n      dup3\n        /* \"#utility.yul\":10818:10832   */\n      gt\n        /* \"#utility.yul\":10815:10855   */\n      iszero\n      tag_214\n      jumpi\n        /* \"#utility.yul\":10835:10853   */\n      tag_215\n      tag_88\n      jump\t// in\n    tag_215:\n        /* \"#utility.yul\":10815:10855   */\n    tag_214:\n        /* \"#utility.yul\":10868:10873   */\n      pop\n      jump(tag_206)\n        /* \"#utility.yul\":10606:10883   */\n    tag_209:\n      pop\n        /* \"#utility.yul\":10992:10994   */\n      0x20\n        /* \"#utility.yul\":10982:10990   */\n      dup4\n        /* \"#utility.yul\":10979:10995   */\n      lt\n        /* \"#utility.yul\":10973:10976   */\n      0x0133\n        /* \"#utility.yul\":10967:10971   */\n      dup4\n        /* \"#utility.yul\":10964:10977   */\n      lt\n        /* \"#utility.yul\":10960:10996   */\n      and\n        /* \"#utility.yul\":10942:10944   */\n      0x4e\n        /* \"#utility.yul\":10932:10940   */\n      dup5\n        /* \"#utility.yul\":10929:10945   */\n      lt\n        /* \"#utility.yul\":10924:10926   */\n      0x0b\n        /* \"#utility.yul\":10918:10922   */\n      dup5\n        /* \"#utility.yul\":10915:10927   */\n      lt\n        /* \"#utility.yul\":10911:10946   */\n      and\n        /* \"#utility.yul\":10895:11006   */\n      or\n        /* \"#utility.yul\":10892:11138   */\n      iszero\n      tag_216\n      jumpi\n        /* \"#utility.yul\":11048:11056   */\n      dup3\n        /* \"#utility.yul\":11042:11046   */\n      dup3\n        /* \"#utility.yul\":11038:11057   */\n      exp\n        /* \"#utility.yul\":11029:11057   */\n      swap1\n      pop\n        /* \"#utility.yul\":11083:11086   */\n      dup4\n        /* \"#utility.yul\":11076:11081   */\n      dup2\n        /* \"#utility.yul\":11073:11087   */\n      gt\n        /* \"#utility.yul\":11070:11110   */\n      iszero\n      tag_217\n      jumpi\n        /* \"#utility.yul\":11090:11108   */\n      tag_218\n      tag_88\n      jump\t// in\n    tag_218:\n        /* \"#utility.yul\":11070:11110   */\n    tag_217:\n        /* \"#utility.yul\":11123:11128   */\n      jump(tag_206)\n        /* \"#utility.yul\":10892:11138   */\n    tag_216:\n        /* \"#utility.yul\":11163:11205   */\n      tag_219\n        /* \"#utility.yul\":11201:11204   */\n      dup5\n        /* \"#utility.yul\":11191:11199   */\n      dup5\n        /* \"#utility.yul\":11185:11189   */\n      dup5\n        /* \"#utility.yul\":11182:11183   */\n      0x01\n        /* \"#utility.yul\":11163:11205   */\n      tag_90\n      jump\t// in\n    tag_219:\n        /* \"#utility.yul\":11148:11205   */\n      swap3\n      pop\n      swap1\n      pop\n        /* \"#utility.yul\":11237:11241   */\n      dup2\n        /* \"#utility.yul\":11232:11235   */\n      dup5\n        /* \"#utility.yul\":11228:11242   */\n      div\n        /* \"#utility.yul\":11221:11226   */\n      dup2\n        /* \"#utility.yul\":11218:11243   */\n      gt\n        /* \"#utility.yul\":11215:11266   */\n      iszero\n      tag_220\n      jumpi\n        /* \"#utility.yul\":11246:11264   */\n      tag_221\n      tag_88\n      jump\t// in\n    tag_221:\n        /* \"#utility.yul\":11215:11266   */\n    tag_220:\n        /* \"#utility.yul\":11295:11299   */\n      dup2\n        /* \"#utility.yul\":11288:11293   */\n      dup2\n        /* \"#utility.yul\":11284:11300   */\n      mul\n        /* \"#utility.yul\":11275:11300   */\n      swap1\n      pop\n        /* \"#utility.yul\":10233:11306   */\n    tag_206:\n      swap4\n      swap3\n      pop\n      pop\n      pop\n      jump\t// out\n        /* \"#utility.yul\":11312:11593   */\n    tag_52:\n        /* \"#utility.yul\":11370:11375   */\n      0x00\n        /* \"#utility.yul\":11394:11417   */\n      tag_223\n        /* \"#utility.yul\":11412:11416   */\n      dup3\n        /* \"#utility.yul\":11394:11417   */\n      tag_57\n      jump\t// in\n    tag_223:\n        /* \"#utility.yul\":11386:11417   */\n      swap2\n      pop\n        /* \"#utility.yul\":11438:11463   */\n      tag_224\n        /* \"#utility.yul\":11454:11462   */\n      dup4\n        /* \"#utility.yul\":11438:11463   */\n      tag_85\n      jump\t// in\n    tag_224:\n        /* \"#utility.yul\":11426:11463   */\n      swap3\n      pop\n        /* \"#utility.yul\":11482:11586   */\n      tag_225\n        /* \"#utility.yul\":11519:11585   */\n      0xffffffffffffffffffffffffffffffffffffffffffffffffffffffffffffffff\n        /* \"#utility.yul\":11509:11517   */\n      dup5\n        /* \"#utility.yul\":11503:11507   */\n      dup5\n        /* \"#utility.yul\":11482:11586   */\n      tag_91\n      jump\t// in\n    tag_225:\n        /* \"#utility.yul\":11473:11586   */\n      swap1\n      pop\n        /* \"#utility.yul\":11312:11593   */\n      swap3\n      swap2\n      pop\n      pop\n      jump\t// out\n\n    auxdata: 0xa2646970667358221220c34520c20594256da81ed1eeb5ecf755cf1d235a4526546515479b56b5dc402564736f6c634300081e0033\n}\n",
				"bytecode": {
					"linkReferences": {},
					"object": "60e060405234801561000f575f5ffd5b50604051610d8b380380610d8b83398181016040528101906100319190610212565b5f73ffffffffffffffffffffffffffffffffffffffff168373ffffffffffffffffffffffffffffffffffffffff161415801561009957505f73ffffffffffffffffffffffffffffffffffffffff168273ffffffffffffffffffffffffffffffffffffffff1614155b80156100d157505f73ffffffffffffffffffffffffffffffffffffffff168173ffffffffffffffffffffffffffffffffffffffff1614155b610110576040517f08c379a0000000000000000000000000000000000000000000000000000000008152600401610107906102bc565b60405180910390fd5b8273ffffffffffffffffffffffffffffffffffffffff1660808173ffffffffffffffffffffffffffffffffffffffff16815250508173ffffffffffffffffffffffffffffffffffffffff1660a08173ffffffffffffffffffffffffffffffffffffffff16815250508073ffffffffffffffffffffffffffffffffffffffff1660c08173ffffffffffffffffffffffffffffffffffffffff16815250505050506102da565b5f5ffd5b5f73ffffffffffffffffffffffffffffffffffffffff82169050919050565b5f6101e1826101b8565b9050919050565b6101f1816101d7565b81146101fb575f5ffd5b50565b5f8151905061020c816101e8565b92915050565b5f5f5f60608486031215610229576102286101b4565b5b5f610236868287016101fe565b9350506020610247868287016101fe565b9250506040610258868287016101fe565b9150509250925092565b5f82825260208201905092915050565b7f5a65726f206164647265737300000000000000000000000000000000000000005f82015250565b5f6102a6600c83610262565b91506102b182610272565b602082019050919050565b5f6020820190508181035f8301526102d38161029a565b9050919050565b60805160a05160c051610a6b6103205f395f8181610151015281816102f501526103c801525f81816101bf01526103a401525f818161022f01526103ec0152610a6b5ff3fe608060405234801561000f575f5ffd5b5060043610610055575f3560e01c80637a9359f714610059578063a91d5a1e14610089578063b24aef1b146100a7578063c54e44eb146100c5578063f887ea40146100e3575b5f5ffd5b610073600480360381019061006e9190610452565b610101565b604051610080919061048c565b60405180910390f35b6100916102f1565b60405161009e919061048c565b60405180910390f35b6100af6103a2565b6040516100bc91906104e4565b60405180910390f35b6100cd6103c6565b6040516100da91906104e4565b60405180910390f35b6100eb6103ea565b6040516100f89190610558565b60405180910390f35b5f5f600267ffffffffffffffff81111561011e5761011d610571565b5b60405190808252806020026020018201604052801561014c5781602001602082028036833780820191505090505b5090507f0000000000000000000000000000000000000000000000000000000000000000815f815181106101835761018261059e565b5b602002602001019073ffffffffffffffffffffffffffffffffffffffff16908173ffffffffffffffffffffffffffffffffffffffff16815250507f0000000000000000000000000000000000000000000000000000000000000000816001815181106101f2576101f161059e565b5b602002602001019073ffffffffffffffffffffffffffffffffffffffff16908173ffffffffffffffffffffffffffffffffffffffff16815250505f7f000000000000000000000000000000000000000000000000000000000000000073ffffffffffffffffffffffffffffffffffffffff1663d06ca61f85846040518363ffffffff1660e01b8152600401610288929190610682565b5f60405180830381865afa1580156102a2573d5f5f3e3d5ffd5b505050506040513d5f823e3d601f19601f820116820180604052508101906102ca91906107e7565b9050806001815181106102e0576102df61059e565b5b602002602001015192505050919050565b5f5f7f000000000000000000000000000000000000000000000000000000000000000073ffffffffffffffffffffffffffffffffffffffff1663313ce5676040518163ffffffff1660e01b8152600401602060405180830381865afa15801561035c573d5f5f3e3d5ffd5b505050506040513d601f19601f820116820180604052508101906103809190610864565b90505f81600a61039091906109eb565b905061039b81610101565b9250505090565b7f000000000000000000000000000000000000000000000000000000000000000081565b7f000000000000000000000000000000000000000000000000000000000000000081565b7f000000000000000000000000000000000000000000000000000000000000000081565b5f604051905090565b5f5ffd5b5f5ffd5b5f819050919050565b6104318161041f565b811461043b575f5ffd5b50565b5f8135905061044c81610428565b92915050565b5f6020828403121561046757610466610417565b5b5f6104748482850161043e565b91505092915050565b6104868161041f565b82525050565b5f60208201905061049f5f83018461047d565b92915050565b5f73ffffffffffffffffffffffffffffffffffffffff82169050919050565b5f6104ce826104a5565b9050919050565b6104de816104c4565b82525050565b5f6020820190506104f75f8301846104d5565b92915050565b5f819050919050565b5f61052061051b610516846104a5565b6104fd565b6104a5565b9050919050565b5f61053182610506565b9050919050565b5f61054282610527565b9050919050565b61055281610538565b82525050565b5f60208201905061056b5f830184610549565b92915050565b7f4e487b71000000000000000000000000000000000000000000000000000000005f52604160045260245ffd5b7f4e487b71000000000000000000000000000000000000000000000000000000005f52603260045260245ffd5b5f81519050919050565b5f82825260208201905092915050565b5f819050602082019050919050565b6105fd816104c4565b82525050565b5f61060e83836105f4565b60208301905092915050565b5f602082019050919050565b5f610630826105cb565b61063a81856105d5565b9350610645836105e5565b805f5b8381101561067557815161065c8882610603565b97506106678361061a565b925050600181019050610648565b5085935050505092915050565b5f6040820190506106955f83018561047d565b81810360208301526106a78184610626565b90509392505050565b5f5ffd5b5f601f19601f8301169050919050565b6106cd826106b4565b810181811067ffffffffffffffff821117156106ec576106eb610571565b5b80604052505050565b5f6106fe61040e565b905061070a82826106c4565b919050565b5f67ffffffffffffffff82111561072957610728610571565b5b602082029050602081019050919050565b5f5ffd5b5f8151905061074c81610428565b92915050565b5f61076461075f8461070f565b6106f5565b905080838252602082019050602084028301858111156107875761078661073a565b5b835b818110156107b0578061079c888261073e565b845260208401935050602081019050610789565b5050509392505050565b5f82601f8301126107ce576107cd6106b0565b5b81516107de848260208601610752565b91505092915050565b5f602082840312156107fc576107fb610417565b5b5f82015167ffffffffffffffff8111156108195761081861041b565b5b610825848285016107ba565b91505092915050565b5f60ff82169050919050565b6108438161082e565b811461084d575f5ffd5b50565b5f8151905061085e8161083a565b92915050565b5f6020828403121561087957610878610417565b5b5f61088684828501610850565b91505092915050565b7f4e487b71000000000000000000000000000000000000000000000000000000005f52601160045260245ffd5b5f8160011c9050919050565b5f5f8291508390505b6001851115610911578086048111156108ed576108ec61088f565b5b60018516156108fc5780820291505b808102905061090a856108bc565b94506108d1565b94509492505050565b5f8261092957600190506109e4565b81610936575f90506109e4565b816001811461094c576002811461095657610985565b60019150506109e4565b60ff8411156109685761096761088f565b5b8360020a91508482111561097f5761097e61088f565b5b506109e4565b5060208310610133831016604e8410600b84101617156109ba5782820a9050838111156109b5576109b461088f565b5b6109e4565b6109c784848460016108c8565b925090508184048111156109de576109dd61088f565b5b81810290505b9392505050565b5f6109f58261041f565b9150610a008361082e565b9250610a2d7fffffffffffffffffffffffffffffffffffffffffffffffffffffffffffffffff848461091a565b90509291505056fea2646970667358221220c34520c20594256da81ed1eeb5ecf755cf1d235a4526546515479b56b5dc402564736f6c634300081e0033",
					"opcodes": "PUSH1 0xE0 PUSH1 0x40 MSTORE CALLVALUE DUP1 ISZERO PUSH2 0xF JUMPI PUSH0 PUSH0 REVERT JUMPDEST POP PUSH1 0x40 MLOAD PUSH2 0xD8B CODESIZE SUB DUP1 PUSH2 0xD8B DUP4 CODECOPY DUP2 DUP2 ADD PUSH1 0x40 MSTORE DUP2 ADD SWAP1 PUSH2 0x31 SWAP2 SWAP1 PUSH2 0x212 JUMP JUMPDEST PUSH0 PUSH20 0xFFFFFFFFFFFFFFFFFFFFFFFFFFFFFFFFFFFFFFFF AND DUP4 PUSH20 0xFFFFFFFFFFFFFFFFFFFFFFFFFFFFFFFFFFFFFFFF AND EQ ISZERO DUP1 ISZERO PUSH2 0x99 JUMPI POP PUSH0 PUSH20 0xFFFFFFFFFFFFFFFFFFFFFFFFFFFFFFFFFFFFFFFF AND DUP3 PUSH20 0xFFFFFFFFFFFFFFFFFFFFFFFFFFFFFFFFFFFFFFFF AND EQ ISZERO JUMPDEST DUP1 ISZERO PUSH2 0xD1 JUMPI POP PUSH0 PUSH20 0xFFFFFFFFFFFFFFFFFFFFFFFFFFFFFFFFFFFFFFFF AND DUP2 PUSH20 0xFFFFFFFFFFFFFFFFFFFFFFFFFFFFFFFFFFFFFFFF AND EQ ISZERO JUMPDEST PUSH2 0x110 JUMPI PUSH1 0x40 MLOAD PUSH32 0x8C379A000000000000000000000000000000000000000000000000000000000 DUP2 MSTORE PUSH1 0x4 ADD PUSH2 0x107 SWAP1 PUSH2 0x2BC JUMP JUMPDEST PUSH1 0x40 MLOAD DUP1 SWAP2 SUB SWAP1 REVERT JUMPDEST DUP3 PUSH20 0xFFFFFFFFFFFFFFFFFFFFFFFFFFFFFFFFFFFFFFFF AND PUSH1 0x80 DUP2 PUSH20 0xFFFFFFFFFFFFFFFFFFFFFFFFFFFFFFFFFFFFFFFF AND DUP2 MSTORE POP POP DUP2 PUSH20 0xFFFFFFFFFFFFFFFFFFFFFFFFFFFFFFFFFFFFFFFF AND PUSH1 0xA0 DUP2 PUSH20 0xFFFFFFFFFFFFFFFFFFFFFFFFFFFFFFFFFFFFFFFF AND DUP2 MSTORE POP POP DUP1 PUSH20 0xFFFFFFFFFFFFFFFFFFFFFFFFFFFFFFFFFFFFFFFF AND PUSH1 0xC0 DUP2 PUSH20 0xFFFFFFFFFFFFFFFFFFFFFFFFFFFFFFFFFFFFFFFF AND DUP2 MSTORE POP POP POP POP POP PUSH2 0x2DA JUMP JUMPDEST PUSH0 PUSH0 REVERT JUMPDEST PUSH0 PUSH20 0xFFFFFFFFFFFFFFFFFFFFFFFFFFFFFFFFFFFFFFFF DUP3 AND SWAP1 POP SWAP2 SWAP1 POP JUMP JUMPDEST PUSH0 PUSH2 0x1E1 DUP3 PUSH2 0x1B8 JUMP JUMPDEST SWAP1 POP SWAP2 SWAP1 POP JUMP JUMPDEST PUSH2 0x1F1 DUP2 PUSH2 0x1D7 JUMP JUMPDEST DUP2 EQ PUSH2 0x1FB JUMPI PUSH0 PUSH0 REVERT JUMPDEST POP JUMP JUMPDEST PUSH0 DUP2 MLOAD SWAP1 POP PUSH2 0x20C DUP2 PUSH2 0x1E8 JUMP JUMPDEST SWAP3 SWAP2 POP POP JUMP JUMPDEST PUSH0 PUSH0 PUSH0 PUSH1 0x60 DUP5 DUP7 SUB SLT ISZERO PUSH2 0x229 JUMPI PUSH2 0x228 PUSH2 0x1B4 JUMP JUMPDEST JUMPDEST PUSH0 PUSH2 0x236 DUP7 DUP3 DUP8 ADD PUSH2 0x1FE JUMP JUMPDEST SWAP4 POP POP PUSH1 0x20 PUSH2 0x247 DUP7 DUP3 DUP8 ADD PUSH2 0x1FE JUMP JUMPDEST SWAP3 POP POP PUSH1 0x40 PUSH2 0x258 DUP7 DUP3 DUP8 ADD PUSH2 0x1FE JUMP JUMPDEST SWAP2 POP POP SWAP3 POP SWAP3 POP SWAP3 JUMP JUMPDEST PUSH0 DUP3 DUP3 MSTORE PUSH1 0x20 DUP3 ADD SWAP1 POP SWAP3 SWAP2 POP POP JUMP JUMPDEST PUSH32 0x5A65726F20616464726573730000000000000000000000000000000000000000 PUSH0 DUP3 ADD MSTORE POP JUMP JUMPDEST PUSH0 PUSH2 0x2A6 PUSH1 0xC DUP4 PUSH2 0x262 JUMP JUMPDEST SWAP2 POP PUSH2 0x2B1 DUP3 PUSH2 0x272 JUMP JUMPDEST PUSH1 0x20 DUP3 ADD SWAP1 POP SWAP2 SWAP1 POP JUMP JUMPDEST PUSH0 PUSH1 0x20 DUP3 ADD SWAP1 POP DUP2 DUP2 SUB PUSH0 DUP4 ADD MSTORE PUSH2 0x2D3 DUP2 PUSH2 0x29A JUMP JUMPDEST SWAP1 POP SWAP2 SWAP1 POP JUMP JUMPDEST PUSH1 0x80 MLOAD PUSH1 0xA0 MLOAD PUSH1 0xC0 MLOAD PUSH2 0xA6B PUSH2 0x320 PUSH0 CODECOPY PUSH0 DUP2 DUP2 PUSH2 0x151 ADD MSTORE DUP2 DUP2 PUSH2 0x2F5 ADD MSTORE PUSH2 0x3C8 ADD MSTORE PUSH0 DUP2 DUP2 PUSH2 0x1BF ADD MSTORE PUSH2 0x3A4 ADD MSTORE PUSH0 DUP2 DUP2 PUSH2 0x22F ADD MSTORE PUSH2 0x3EC ADD MSTORE PUSH2 0xA6B PUSH0 RETURN INVALID PUSH1 0x80 PUSH1 0x40 MSTORE CALLVALUE DUP1 ISZERO PUSH2 0xF JUMPI PUSH0 PUSH0 REVERT JUMPDEST POP PUSH1 0x4 CALLDATASIZE LT PUSH2 0x55 JUMPI PUSH0 CALLDATALOAD PUSH1 0xE0 SHR DUP1 PUSH4 0x7A9359F7 EQ PUSH2 0x59 JUMPI DUP1 PUSH4 0xA91D5A1E EQ PUSH2 0x89 JUMPI DUP1 PUSH4 0xB24AEF1B EQ PUSH2 0xA7 JUMPI DUP1 PUSH4 0xC54E44EB EQ PUSH2 0xC5 JUMPI DUP1 PUSH4 0xF887EA40 EQ PUSH2 0xE3 JUMPI JUMPDEST PUSH0 PUSH0 REVERT JUMPDEST PUSH2 0x73 PUSH1 0x4 DUP1 CALLDATASIZE SUB DUP2 ADD SWAP1 PUSH2 0x6E SWAP2 SWAP1 PUSH2 0x452 JUMP JUMPDEST PUSH2 0x101 JUMP JUMPDEST PUSH1 0x40 MLOAD PUSH2 0x80 SWAP2 SWAP1 PUSH2 0x48C JUMP JUMPDEST PUSH1 0x40 MLOAD DUP1 SWAP2 SUB SWAP1 RETURN JUMPDEST PUSH2 0x91 PUSH2 0x2F1 JUMP JUMPDEST PUSH1 0x40 MLOAD PUSH2 0x9E SWAP2 SWAP1 PUSH2 0x48C JUMP JUMPDEST PUSH1 0x40 MLOAD DUP1 SWAP2 SUB SWAP1 RETURN JUMPDEST PUSH2 0xAF PUSH2 0x3A2 JUMP JUMPDEST PUSH1 0x40 MLOAD PUSH2 0xBC SWAP2 SWAP1 PUSH2 0x4E4 JUMP JUMPDEST PUSH1 0x40 MLOAD DUP1 SWAP2 SUB SWAP1 RETURN JUMPDEST PUSH2 0xCD PUSH2 0x3C6 JUMP JUMPDEST PUSH1 0x40 MLOAD PUSH2 0xDA SWAP2 SWAP1 PUSH2 0x4E4 JUMP JUMPDEST PUSH1 0x40 MLOAD DUP1 SWAP2 SUB SWAP1 RETURN JUMPDEST PUSH2 0xEB PUSH2 0x3EA JUMP JUMPDEST PUSH1 0x40 MLOAD PUSH2 0xF8 SWAP2 SWAP1 PUSH2 0x558 JUMP JUMPDEST PUSH1 0x40 MLOAD DUP1 SWAP2 SUB SWAP1 RETURN JUMPDEST PUSH0 PUSH0 PUSH1 0x2 PUSH8 0xFFFFFFFFFFFFFFFF DUP2 GT ISZERO PUSH2 0x11E JUMPI PUSH2 0x11D PUSH2 0x571 JUMP JUMPDEST JUMPDEST PUSH1 0x40 MLOAD SWAP1 DUP1 DUP3 MSTORE DUP1 PUSH1 0x20 MUL PUSH1 0x20 ADD DUP3 ADD PUSH1 0x40 MSTORE DUP1 ISZERO PUSH2 0x14C JUMPI DUP2 PUSH1 0x20 ADD PUSH1 0x20 DUP3 MUL DUP1 CALLDATASIZE DUP4 CALLDATACOPY DUP1 DUP3 ADD SWAP2 POP POP SWAP1 POP JUMPDEST POP SWAP1 POP PUSH32 0x0 DUP2 PUSH0 DUP2 MLOAD DUP2 LT PUSH2 0x183 JUMPI PUSH2 0x182 PUSH2 0x59E JUMP JUMPDEST JUMPDEST PUSH1 0x20 MUL PUSH1 0x20 ADD ADD SWAP1 PUSH20 0xFFFFFFFFFFFFFFFFFFFFFFFFFFFFFFFFFFFFFFFF AND SWAP1 DUP2 PUSH20 0xFFFFFFFFFFFFFFFFFFFFFFFFFFFFFFFFFFFFFFFF AND DUP2 MSTORE POP POP PUSH32 0x0 DUP2 PUSH1 0x1 DUP2 MLOAD DUP2 LT PUSH2 0x1F2 JUMPI PUSH2 0x1F1 PUSH2 0x59E JUMP JUMPDEST JUMPDEST PUSH1 0x20 MUL PUSH1 0x20 ADD ADD SWAP1 PUSH20 0xFFFFFFFFFFFFFFFFFFFFFFFFFFFFFFFFFFFFFFFF AND SWAP1 DUP2 PUSH20 0xFFFFFFFFFFFFFFFFFFFFFFFFFFFFFFFFFFFFFFFF AND DUP2 MSTORE POP POP PUSH0 PUSH32 0x0 PUSH20 0xFFFFFFFFFFFFFFFFFFFFFFFFFFFFFFFFFFFFFFFF AND PUSH4 0xD06CA61F DUP6 DUP5 PUSH1 0x40 MLOAD DUP4 PUSH4 0xFFFFFFFF AND PUSH1 0xE0 SHL DUP2 MSTORE PUSH1 0x4 ADD PUSH2 0x288 SWAP3 SWAP2 SWAP1 PUSH2 0x682 JUMP JUMPDEST PUSH0 PUSH1 0x40 MLOAD DUP1 DUP4 SUB DUP2 DUP7 GAS STATICCALL ISZERO DUP1 ISZERO PUSH2 0x2A2 JUMPI RETURNDATASIZE PUSH0 PUSH0 RETURNDATACOPY RETURNDATASIZE PUSH0 REVERT JUMPDEST POP POP POP POP PUSH1 0x40 MLOAD RETURNDATASIZE PUSH0 DUP3 RETURNDATACOPY RETURNDATASIZE PUSH1 0x1F NOT PUSH1 0x1F DUP3 ADD AND DUP3 ADD DUP1 PUSH1 0x40 MSTORE POP DUP2 ADD SWAP1 PUSH2 0x2CA SWAP2 SWAP1 PUSH2 0x7E7 JUMP JUMPDEST SWAP1 POP DUP1 PUSH1 0x1 DUP2 MLOAD DUP2 LT PUSH2 0x2E0 JUMPI PUSH2 0x2DF PUSH2 0x59E JUMP JUMPDEST JUMPDEST PUSH1 0x20 MUL PUSH1 0x20 ADD ADD MLOAD SWAP3 POP POP POP SWAP2 SWAP1 POP JUMP JUMPDEST PUSH0 PUSH0 PUSH32 0x0 PUSH20 0xFFFFFFFFFFFFFFFFFFFFFFFFFFFFFFFFFFFFFFFF AND PUSH4 0x313CE567 PUSH1 0x40 MLOAD DUP2 PUSH4 0xFFFFFFFF AND PUSH1 0xE0 SHL DUP2 MSTORE PUSH1 0x4 ADD PUSH1 0x20 PUSH1 0x40 MLOAD DUP1 DUP4 SUB DUP2 DUP7 GAS STATICCALL ISZERO DUP1 ISZERO PUSH2 0x35C JUMPI RETURNDATASIZE PUSH0 PUSH0 RETURNDATACOPY RETURNDATASIZE PUSH0 REVERT JUMPDEST POP POP POP POP PUSH1 0x40 MLOAD RETURNDATASIZE PUSH1 0x1F NOT PUSH1 0x1F DUP3 ADD AND DUP3 ADD DUP1 PUSH1 0x40 MSTORE POP DUP2 ADD SWAP1 PUSH2 0x380 SWAP2 SWAP1 PUSH2 0x864 JUMP JUMPDEST SWAP1 POP PUSH0 DUP2 PUSH1 0xA PUSH2 0x390 SWAP2 SWAP1 PUSH2 0x9EB JUMP JUMPDEST SWAP1 POP PUSH2 0x39B DUP2 PUSH2 0x101 JUMP JUMPDEST SWAP3 POP POP POP SWAP1 JUMP JUMPDEST PUSH32 0x0 DUP2 JUMP JUMPDEST PUSH32 0x0 DUP2 JUMP JUMPDEST PUSH32 0x0 DUP2 JUMP JUMPDEST PUSH0 PUSH1 0x40 MLOAD SWAP1 POP SWAP1 JUMP JUMPDEST PUSH0 PUSH0 REVERT JUMPDEST PUSH0 PUSH0 REVERT JUMPDEST PUSH0 DUP2 SWAP1 POP SWAP2 SWAP1 POP JUMP JUMPDEST PUSH2 0x431 DUP2 PUSH2 0x41F JUMP JUMPDEST DUP2 EQ PUSH2 0x43B JUMPI PUSH0 PUSH0 REVERT JUMPDEST POP JUMP JUMPDEST PUSH0 DUP2 CALLDATALOAD SWAP1 POP PUSH2 0x44C DUP2 PUSH2 0x428 JUMP JUMPDEST SWAP3 SWAP2 POP POP JUMP JUMPDEST PUSH0 PUSH1 0x20 DUP3 DUP5 SUB SLT ISZERO PUSH2 0x467 JUMPI PUSH2 0x466 PUSH2 0x417 JUMP JUMPDEST JUMPDEST PUSH0 PUSH2 0x474 DUP5 DUP3 DUP6 ADD PUSH2 0x43E JUMP JUMPDEST SWAP2 POP POP SWAP3 SWAP2 POP POP JUMP JUMPDEST PUSH2 0x486 DUP2 PUSH2 0x41F JUMP JUMPDEST DUP3 MSTORE POP POP JUMP JUMPDEST PUSH0 PUSH1 0x20 DUP3 ADD SWAP1 POP PUSH2 0x49F PUSH0 DUP4 ADD DUP5 PUSH2 0x47D JUMP JUMPDEST SWAP3 SWAP2 POP POP JUMP JUMPDEST PUSH0 PUSH20 0xFFFFFFFFFFFFFFFFFFFFFFFFFFFFFFFFFFFFFFFF DUP3 AND SWAP1 POP SWAP2 SWAP1 POP JUMP JUMPDEST PUSH0 PUSH2 0x4CE DUP3 PUSH2 0x4A5 JUMP JUMPDEST SWAP1 POP SWAP2 SWAP1 POP JUMP JUMPDEST PUSH2 0x4DE DUP2 PUSH2 0x4C4 JUMP JUMPDEST DUP3 MSTORE POP POP JUMP JUMPDEST PUSH0 PUSH1 0x20 DUP3 ADD SWAP1 POP PUSH2 0x4F7 PUSH0 DUP4 ADD DUP5 PUSH2 0x4D5 JUMP JUMPDEST SWAP3 SWAP2 POP POP JUMP JUMPDEST PUSH0 DUP2 SWAP1 POP SWAP2 SWAP1 POP JUMP JUMPDEST PUSH0 PUSH2 0x520 PUSH2 0x51B PUSH2 0x516 DUP5 PUSH2 0x4A5 JUMP JUMPDEST PUSH2 0x4FD JUMP JUMPDEST PUSH2 0x4A5 JUMP JUMPDEST SWAP1 POP SWAP2 SWAP1 POP JUMP JUMPDEST PUSH0 PUSH2 0x531 DUP3 PUSH2 0x506 JUMP JUMPDEST SWAP1 POP SWAP2 SWAP1 POP JUMP JUMPDEST PUSH0 PUSH2 0x542 DUP3 PUSH2 0x527 JUMP JUMPDEST SWAP1 POP SWAP2 SWAP1 POP JUMP JUMPDEST PUSH2 0x552 DUP2 PUSH2 0x538 JUMP JUMPDEST DUP3 MSTORE POP POP JUMP JUMPDEST PUSH0 PUSH1 0x20 DUP3 ADD SWAP1 POP PUSH2 0x56B PUSH0 DUP4 ADD DUP5 PUSH2 0x549 JUMP JUMPDEST SWAP3 SWAP2 POP POP JUMP JUMPDEST PUSH32 0x4E487B7100000000000000000000000000000000000000000000000000000000 PUSH0 MSTORE PUSH1 0x41 PUSH1 0x4 MSTORE PUSH1 0x24 PUSH0 REVERT JUMPDEST PUSH32 0x4E487B7100000000000000000000000000000000000000000000000000000000 PUSH0 MSTORE PUSH1 0x32 PUSH1 0x4 MSTORE PUSH1 0x24 PUSH0 REVERT JUMPDEST PUSH0 DUP2 MLOAD SWAP1 POP SWAP2 SWAP1 POP JUMP JUMPDEST PUSH0 DUP3 DUP3 MSTORE PUSH1 0x20 DUP3 ADD SWAP1 POP SWAP3 SWAP2 POP POP JUMP JUMPDEST PUSH0 DUP2 SWAP1 POP PUSH1 0x20 DUP3 ADD SWAP1 POP SWAP2 SWAP1 POP JUMP JUMPDEST PUSH2 0x5FD DUP2 PUSH2 0x4C4 JUMP JUMPDEST DUP3 MSTORE POP POP JUMP JUMPDEST PUSH0 PUSH2 0x60E DUP4 DUP4 PUSH2 0x5F4 JUMP JUMPDEST PUSH1 0x20 DUP4 ADD SWAP1 POP SWAP3 SWAP2 POP POP JUMP JUMPDEST PUSH0 PUSH1 0x20 DUP3 ADD SWAP1 POP SWAP2 SWAP1 POP JUMP JUMPDEST PUSH0 PUSH2 0x630 DUP3 PUSH2 0x5CB JUMP JUMPDEST PUSH2 0x63A DUP2 DUP6 PUSH2 0x5D5 JUMP JUMPDEST SWAP4 POP PUSH2 0x645 DUP4 PUSH2 0x5E5 JUMP JUMPDEST DUP1 PUSH0 JUMPDEST DUP4 DUP2 LT ISZERO PUSH2 0x675 JUMPI DUP2 MLOAD PUSH2 0x65C DUP9 DUP3 PUSH2 0x603 JUMP JUMPDEST SWAP8 POP PUSH2 0x667 DUP4 PUSH2 0x61A JUMP JUMPDEST SWAP3 POP POP PUSH1 0x1 DUP2 ADD SWAP1 POP PUSH2 0x648 JUMP JUMPDEST POP DUP6 SWAP4 POP POP POP POP SWAP3 SWAP2 POP POP JUMP JUMPDEST PUSH0 PUSH1 0x40 DUP3 ADD SWAP1 POP PUSH2 0x695 PUSH0 DUP4 ADD DUP6 PUSH2 0x47D JUMP JUMPDEST DUP2 DUP2 SUB PUSH1 0x20 DUP4 ADD MSTORE PUSH2 0x6A7 DUP2 DUP5 PUSH2 0x626 JUMP JUMPDEST SWAP1 POP SWAP4 SWAP3 POP POP POP JUMP JUMPDEST PUSH0 PUSH0 REVERT JUMPDEST PUSH0 PUSH1 0x1F NOT PUSH1 0x1F DUP4 ADD AND SWAP1 POP SWAP2 SWAP1 POP JUMP JUMPDEST PUSH2 0x6CD DUP3 PUSH2 0x6B4 JUMP JUMPDEST DUP2 ADD DUP2 DUP2 LT PUSH8 0xFFFFFFFFFFFFFFFF DUP3 GT OR ISZERO PUSH2 0x6EC JUMPI PUSH2 0x6EB PUSH2 0x571 JUMP JUMPDEST JUMPDEST DUP1 PUSH1 0x40 MSTORE POP POP POP JUMP JUMPDEST PUSH0 PUSH2 0x6FE PUSH2 0x40E JUMP JUMPDEST SWAP1 POP PUSH2 0x70A DUP3 DUP3 PUSH2 0x6C4 JUMP JUMPDEST SWAP2 SWAP1 POP JUMP JUMPDEST PUSH0 PUSH8 0xFFFFFFFFFFFFFFFF DUP3 GT ISZERO PUSH2 0x729 JUMPI PUSH2 0x728 PUSH2 0x571 JUMP JUMPDEST JUMPDEST PUSH1 0x20 DUP3 MUL SWAP1 POP PUSH1 0x20 DUP2 ADD SWAP1 POP SWAP2 SWAP1 POP JUMP JUMPDEST PUSH0 PUSH0 REVERT JUMPDEST PUSH0 DUP2 MLOAD SWAP1 POP PUSH2 0x74C DUP2 PUSH2 0x428 JUMP JUMPDEST SWAP3 SWAP2 POP POP JUMP JUMPDEST PUSH0 PUSH2 0x764 PUSH2 0x75F DUP5 PUSH2 0x70F JUMP JUMPDEST PUSH2 0x6F5 JUMP JUMPDEST SWAP1 POP DUP1 DUP4 DUP3 MSTORE PUSH1 0x20 DUP3 ADD SWAP1 POP PUSH1 0x20 DUP5 MUL DUP4 ADD DUP6 DUP2 GT ISZERO PUSH2 0x787 JUMPI PUSH2 0x786 PUSH2 0x73A JUMP JUMPDEST JUMPDEST DUP4 JUMPDEST DUP2 DUP2 LT ISZERO PUSH2 0x7B0 JUMPI DUP1 PUSH2 0x79C DUP9 DUP3 PUSH2 0x73E JUMP JUMPDEST DUP5 MSTORE PUSH1 0x20 DUP5 ADD SWAP4 POP POP PUSH1 0x20 DUP2 ADD SWAP1 POP PUSH2 0x789 JUMP JUMPDEST POP POP POP SWAP4 SWAP3 POP POP POP JUMP JUMPDEST PUSH0 DUP3 PUSH1 0x1F DUP4 ADD SLT PUSH2 0x7CE JUMPI PUSH2 0x7CD PUSH2 0x6B0 JUMP JUMPDEST JUMPDEST DUP2 MLOAD PUSH2 0x7DE DUP5 DUP3 PUSH1 0x20 DUP7 ADD PUSH2 0x752 JUMP JUMPDEST SWAP2 POP POP SWAP3 SWAP2 POP POP JUMP JUMPDEST PUSH0 PUSH1 0x20 DUP3 DUP5 SUB SLT ISZERO PUSH2 0x7FC JUMPI PUSH2 0x7FB PUSH2 0x417 JUMP JUMPDEST JUMPDEST PUSH0 DUP3 ADD MLOAD PUSH8 0xFFFFFFFFFFFFFFFF DUP2 GT ISZERO PUSH2 0x819 JUMPI PUSH2 0x818 PUSH2 0x41B JUMP JUMPDEST JUMPDEST PUSH2 0x825 DUP5 DUP3 DUP6 ADD PUSH2 0x7BA JUMP JUMPDEST SWAP2 POP POP SWAP3 SWAP2 POP POP JUMP JUMPDEST PUSH0 PUSH1 0xFF DUP3 AND SWAP1 POP SWAP2 SWAP1 POP JUMP JUMPDEST PUSH2 0x843 DUP2 PUSH2 0x82E JUMP JUMPDEST DUP2 EQ PUSH2 0x84D JUMPI PUSH0 PUSH0 REVERT JUMPDEST POP JUMP JUMPDEST PUSH0 DUP2 MLOAD SWAP1 POP PUSH2 0x85E DUP2 PUSH2 0x83A JUMP JUMPDEST SWAP3 SWAP2 POP POP JUMP JUMPDEST PUSH0 PUSH1 0x20 DUP3 DUP5 SUB SLT ISZERO PUSH2 0x879 JUMPI PUSH2 0x878 PUSH2 0x417 JUMP JUMPDEST JUMPDEST PUSH0 PUSH2 0x886 DUP5 DUP3 DUP6 ADD PUSH2 0x850 JUMP JUMPDEST SWAP2 POP POP SWAP3 SWAP2 POP POP JUMP JUMPDEST PUSH32 0x4E487B7100000000000000000000000000000000000000000000000000000000 PUSH0 MSTORE PUSH1 0x11 PUSH1 0x4 MSTORE PUSH1 0x24 PUSH0 REVERT JUMPDEST PUSH0 DUP2 PUSH1 0x1 SHR SWAP1 POP SWAP2 SWAP1 POP JUMP JUMPDEST PUSH0 PUSH0 DUP3 SWAP2 POP DUP4 SWAP1 POP JUMPDEST PUSH1 0x1 DUP6 GT ISZERO PUSH2 0x911 JUMPI DUP1 DUP7 DIV DUP2 GT ISZERO PUSH2 0x8ED JUMPI PUSH2 0x8EC PUSH2 0x88F JUMP JUMPDEST JUMPDEST PUSH1 0x1 DUP6 AND ISZERO PUSH2 0x8FC JUMPI DUP1 DUP3 MUL SWAP2 POP JUMPDEST DUP1 DUP2 MUL SWAP1 POP PUSH2 0x90A DUP6 PUSH2 0x8BC JUMP JUMPDEST SWAP5 POP PUSH2 0x8D1 JUMP JUMPDEST SWAP5 POP SWAP5 SWAP3 POP POP POP JUMP JUMPDEST PUSH0 DUP3 PUSH2 0x929 JUMPI PUSH1 0x1 SWAP1 POP PUSH2 0x9E4 JUMP JUMPDEST DUP2 PUSH2 0x936 JUMPI PUSH0 SWAP1 POP PUSH2 0x9E4 JUMP JUMPDEST DUP2 PUSH1 0x1 DUP2 EQ PUSH2 0x94C JUMPI PUSH1 0x2 DUP2 EQ PUSH2 0x956 JUMPI PUSH2 0x985 JUMP JUMPDEST PUSH1 0x1 SWAP2 POP POP PUSH2 0x9E4 JUMP JUMPDEST PUSH1 0xFF DUP5 GT ISZERO PUSH2 0x968 JUMPI PUSH2 0x967 PUSH2 0x88F JUMP JUMPDEST JUMPDEST DUP4 PUSH1 0x2 EXP SWAP2 POP DUP5 DUP3 GT ISZERO PUSH2 0x97F JUMPI PUSH2 0x97E PUSH2 0x88F JUMP JUMPDEST JUMPDEST POP PUSH2 0x9E4 JUMP JUMPDEST POP PUSH1 0x20 DUP4 LT PUSH2 0x133 DUP4 LT AND PUSH1 0x4E DUP5 LT PUSH1 0xB DUP5 LT AND OR ISZERO PUSH2 0x9BA JUMPI DUP3 DUP3 EXP SWAP1 POP DUP4 DUP2 GT ISZERO PUSH2 0x9B5 JUMPI PUSH2 0x9B4 PUSH2 0x88F JUMP JUMPDEST JUMPDEST PUSH2 0x9E4 JUMP JUMPDEST PUSH2 0x9C7 DUP5 DUP5 DUP5 PUSH1 0x1 PUSH2 0x8C8 JUMP JUMPDEST SWAP3 POP SWAP1 POP DUP2 DUP5 DIV DUP2 GT ISZERO PUSH2 0x9DE JUMPI PUSH2 0x9DD PUSH2 0x88F JUMP JUMPDEST JUMPDEST DUP2 DUP2 MUL SWAP1 POP JUMPDEST SWAP4 SWAP3 POP POP POP JUMP JUMPDEST PUSH0 PUSH2 0x9F5 DUP3 PUSH2 0x41F JUMP JUMPDEST SWAP2 POP PUSH2 0xA00 DUP4 PUSH2 0x82E JUMP JUMPDEST SWAP3 POP PUSH2 0xA2D PUSH32 0xFFFFFFFFFFFFFFFFFFFFFFFFFFFFFFFFFFFFFFFFFFFFFFFFFFFFFFFFFFFFFFFF DUP5 DUP5 PUSH2 0x91A JUMP JUMPDEST SWAP1 POP SWAP3 SWAP2 POP POP JUMP INVALID LOG2 PUSH5 0x6970667358 0x22 SLT KECCAK256 0xC3 GASLIMIT KECCAK256 0xC2 SDIV SWAP5 0x25 PUSH14 0xA81ED1EEB5ECF755CF1D235A4526 SLOAD PUSH6 0x15479B56B5DC BLOCKHASH 0x25 PUSH5 0x736F6C6343 STOP ADDMOD 0x1E STOP CALLER "
				},
				"gasEstimates": {
					"creation": {
						"codeDepositCost": "533400",
						"executionCost": "infinite",
						"totalCost": "infinite"
					},
					"external": {
						"HMT()": "infinite",
						"USDT()": "infinite",
						"getHmtForUsdt(uint256)": "infinite",
						"getLiveRate()": "infinite",
						"router()": "infinite"
					}
				},
				"methodIdentifiers": {
					"HMT()": "b24aef1b",
					"USDT()": "c54e44eb",
					"getHmtForUsdt(uint256)": "7a9359f7",
					"getLiveRate()": "a91d5a1e",
					"router()": "f887ea40"
				}
			},
			"storageLayout": {
				"storage": [],
				"types": null
			},
			"userdoc": {
				"kind": "user",
				"methods": {
					"getHmtForUsdt(uint256)": {
						"notice": "How many HMT you get for `usdtAmount` USDT"
					},
					"getLiveRate()": {
						"notice": "Raw HMT amount returned for exactly 1 USDT"
					}
				},
				"version": 1
			}
		}
	}
}