{
	"HopeSwapForward.sol": {
		"HopeSwapForward": {
			"abi": [
				{
					"inputs": [
						{
							"internalType": "address",
							"name": "_router",
							"type": "address"
						},
						{
							"internalType": "address",
							"name": "_usdt",
							"type": "address"
						},
						{
							"internalType": "address",
							"name": "_hope",
							"type": "address"
						},
						{
							"internalType": "address",
							"name": "_wbnb",
							"type": "address"
						}
					],
					"stateMutability": "nonpayable",
					"type": "constructor"
				},
				{
					"anonymous": false,
					"inputs": [
						{
							"indexed": false,
							"internalType": "uint256",
							"name": "inAmt",
							"type": "uint256"
						},
						{
							"indexed": false,
							"internalType": "uint256",
							"name": "outAmt",
							"type": "uint256"
						}
					],
					"name": "Swapped",
					"type": "event"
				},
				{
					"inputs": [],
					"name": "hope",
					"outputs": [
						{
							"internalType": "contract IERC20",
							"name": "",
							"type": "address"
						}
					],
					"stateMutability": "view",
					"type": "function"
				},
				{
					"inputs": [],
					"name": "owner",
					"outputs": [
						{
							"internalType": "address",
							"name": "",
							"type": "address"
						}
					],
					"stateMutability": "view",
					"type": "function"
				},
				{
					"inputs": [],
					"name": "router",
					"outputs": [
						{
							"internalType": "contract IPancakeRouter",
							"name": "",
							"type": "address"
						}
					],
					"stateMutability": "view",
					"type": "function"
				},
				{
					"inputs": [
						{
							"internalType": "uint256",
							"name": "amountIn",
							"type": "uint256"
						},
						{
							"internalType": "uint256",
							"name": "amountOutMin",
							"type": "uint256"
						},
						{
							"internalType": "uint256",
							"name": "deadline",
							"type": "uint256"
						}
					],
					"name": "swapThenForward",
					"outputs": [],
					"stateMutability": "nonpayable",
					"type": "function"
				},
				{
					"inputs": [],
					"name": "usdt",
					"outputs": [
						{
							"internalType": "contract IERC20",
							"name": "",
							"type": "address"
						}
					],
					"stateMutability": "view",
					"type": "function"
				},
				{
					"inputs": [],
					"name": "wbnb",
					"outputs": [
						{
							"internalType": "contract IERC20",
							"name": "",
							"type": "address"
						}
					],
					"stateMutability": "view",
					"type": "function"
				}
			],
			"devdoc": {
				"kind": "dev",
				"methods": {},
				"version": 1
			},
			"evm": {
				"assembly": "    /* \"HopeSwapForward.sol\":655:2333  contract HopeSwapForward {... */\n  mstore(0x40, 0x0120)\n    /* \"HopeSwapForward.sol\":928:1273  constructor(address _router, address _usdt, address _hope, address _wbnb) {... */\n  callvalue\n  dup1\n  iszero\n  tag_1\n  jumpi\n  revert(0x00, 0x00)\ntag_1:\n  pop\n  mload(0x40)\n  sub(codesize, bytecodeSize)\n  dup1\n  bytecodeSize\n  dup4\n  codecopy\n  dup2\n  dup2\n  add\n  0x40\n  mstore\n  dup2\n  add\n  swap1\n  tag_2\n  swap2\n  swap1\n  tag_3\n  jump\t// in\ntag_2:\n    /* \"HopeSwapForward.sol\":1036:1037  0 */\n  0x00\n    /* \"HopeSwapForward.sol\":1017:1038  _router != address(0) */\n  0xffffffffffffffffffffffffffffffffffffffff\n  and\n    /* \"HopeSwapForward.sol\":1017:1024  _router */\n  dup5\n    /* \"HopeSwapForward.sol\":1017:1038  _router != address(0) */\n  0xffffffffffffffffffffffffffffffffffffffff\n  and\n  eq\n  iszero\n    /* \"HopeSwapForward.sol\":1017:1061  _router != address(0) && _usdt != address(0) */\n  dup1\n  iszero\n  tag_6\n  jumpi\n  pop\n    /* \"HopeSwapForward.sol\":1059:1060  0 */\n  0x00\n    /* \"HopeSwapForward.sol\":1042:1061  _usdt != address(0) */\n  0xffffffffffffffffffffffffffffffffffffffff\n  and\n    /* \"HopeSwapForward.sol\":1042:1047  _usdt */\n  dup4\n    /* \"HopeSwapForward.sol\":1042:1061  _usdt != address(0) */\n  0xffffffffffffffffffffffffffffffffffffffff\n  and\n  eq\n  iszero\n    /* \"HopeSwapForward.sol\":1017:1061  _router != address(0) && _usdt != address(0) */\ntag_6:\n    /* \"HopeSwapForward.sol\":1017:1084  _router != address(0) && _usdt != address(0) && _hope != address(0) */\n  dup1\n  iszero\n  tag_7\n  jumpi\n  pop\n    /* \"HopeSwapForward.sol\":1082:1083  0 */\n  0x00\n    /* \"HopeSwapForward.sol\":1065:1084  _hope != address(0) */\n  0xffffffffffffffffffffffffffffffffffffffff\n  and\n    /* \"HopeSwapForward.sol\":1065:1070  _hope */\n  dup3\n    /* \"HopeSwapForward.sol\":1065:1084  _hope != address(0) */\n  0xffffffffffffffffffffffffffffffffffffffff\n  and\n  eq\n  iszero\n    /* \"HopeSwapForward.sol\":1017:1084  _router != address(0) && _usdt != address(0) && _hope != address(0) */\ntag_7:\n    /* \"HopeSwapForward.sol\":1017:1107  _router != address(0) && _usdt != address(0) && _hope != address(0) && _wbnb != address(0) */\n  dup1\n  iszero\n  tag_8\n  jumpi\n  pop\n    /* \"HopeSwapForward.sol\":1105:1106  0 */\n  0x00\n    /* \"HopeSwapForward.sol\":1088:1107  _wbnb != address(0) */\n  0xffffffffffffffffffffffffffffffffffffffff\n  and\n    /* \"HopeSwapForward.sol\":1088:1093  _wbnb */\n  dup2\n    /* \"HopeSwapForward.sol\":1088:1107  _wbnb != address(0) */\n  0xffffffffffffffffffffffffffffffffffffffff\n  and\n  eq\n  iszero\n    /* \"HopeSwapForward.sol\":1017:1107  _router != address(0) && _usdt != address(0) && _hope != address(0) && _wbnb != address(0) */\ntag_8:\n    /* \"HopeSwapForward.sol\":1009:1124  require(_router != address(0) && _usdt != address(0) && _hope != address(0) && _wbnb != address(0), \"Zero address\") */\n  tag_9\n  jumpi\n  mload(0x40)\n  0x08c379a000000000000000000000000000000000000000000000000000000000\n  dup2\n  mstore\n  0x04\n  add\n  tag_10\n  swap1\n  tag_11\n  jump\t// in\ntag_10:\n  mload(0x40)\n  dup1\n  swap2\n  sub\n  swap1\n  revert\ntag_9:\n    /* \"HopeSwapForward.sol\":1155:1162  _router */\n  dup4\n    /* \"HopeSwapForward.sol\":1131:1163  router = IPancakeRouter(_router) */\n  0xffffffffffffffffffffffffffffffffffffffff\n  and\n  0xe0\n  dup2\n  0xffffffffffffffffffffffffffffffffffffffff\n  and\n  dup2\n  mstore\n  pop\n  pop\n    /* \"HopeSwapForward.sol\":1184:1189  _usdt */\n  dup3\n    /* \"HopeSwapForward.sol\":1170:1190  usdt = IERC20(_usdt) */\n  0xffffffffffffffffffffffffffffffffffffffff\n  and\n  0x80\n  dup2\n  0xffffffffffffffffffffffffffffffffffffffff\n  and\n  dup2\n  mstore\n  pop\n  pop\n    /* \"HopeSwapForward.sol\":1211:1216  _hope */\n  dup2\n    /* \"HopeSwapForward.sol\":1197:1217  hope = IERC20(_hope) */\n  0xffffffffffffffffffffffffffffffffffffffff\n  and\n  0xa0\n  dup2\n  0xffffffffffffffffffffffffffffffffffffffff\n  and\n  dup2\n  mstore\n  pop\n  pop\n    /* \"HopeSwapForward.sol\":1238:1243  _wbnb */\n  dup1\n    /* \"HopeSwapForward.sol\":1224:1244  wbnb = IERC20(_wbnb) */\n  0xffffffffffffffffffffffffffffffffffffffff\n  and\n  0xc0\n  dup2\n  0xffffffffffffffffffffffffffffffffffffffff\n  and\n  dup2\n  mstore\n  pop\n  pop\n    /* \"HopeSwapForward.sol\":1259:1269  msg.sender */\n  caller\n    /* \"HopeSwapForward.sol\":1251:1269  owner = msg.sender */\n  0xffffffffffffffffffffffffffffffffffffffff\n  and\n  0x0100\n  dup2\n  0xffffffffffffffffffffffffffffffffffffffff\n  and\n  dup2\n  mstore\n  pop\n  pop\n    /* \"HopeSwapForward.sol\":928:1273  constructor(address _router, address _usdt, address _hope, address _wbnb) {... */\n  pop\n  pop\n  pop\n  pop\n    /* \"HopeSwapForward.sol\":655:2333  contract HopeSwapForward {... */\n  jump(tag_12)\n    /* \"#utility.yul\":88:205   */\ntag_14:\n    /* \"#utility.yul\":197:198   */\n  0x00\n    /* \"#utility.yul\":194:195   */\n  0x00\n    /* \"#utility.yul\":187:199   */\n  revert\n    /* \"#utility.yul\":334:460   */\ntag_16:\n    /* \"#utility.yul\":371:378   */\n  0x00\n    /* \"#utility.yul\":411:453   */\n  0xffffffffffffffffffffffffffffffffffffffff\n    /* \"#utility.yul\":404:409   */\n  dup3\n    /* \"#utility.yul\":400:454   */\n  and\n    /* \"#utility.yul\":389:454   */\n  swap1\n  pop\n    /* \"#utility.yul\":334:460   */\n  swap2\n  swap1\n  pop\n  jump\t// out\n    /* \"#utility.yul\":466:562   */\ntag_17:\n    /* \"#utility.yul\":503:510   */\n  0x00\n    /* \"#utility.yul\":532:556   */\n  tag_29\n    /* \"#utility.yul\":550:555   */\n  dup3\n    /* \"#utility.yul\":532:556   */\n  tag_16\n  jump\t// in\ntag_29:\n    /* \"#utility.yul\":521:556   */\n  swap1\n  pop\n    /* \"#utility.yul\":466:562   */\n  swap2\n  swap1\n  pop\n  jump\t// out\n    /* \"#utility.yul\":568:690   */\ntag_18:\n    /* \"#utility.yul\":641:665   */\n  tag_31\n    /* \"#utility.yul\":659:664   */\n  dup2\n    /* \"#utility.yul\":641:665   */\n  tag_17\n  jump\t// in\ntag_31:\n    /* \"#utility.yul\":634:639   */\n  dup2\n    /* \"#utility.yul\":631:666   */\n  eq\n    /* \"#utility.yul\":621:684   */\n  tag_32\n  jumpi\n    /* \"#utility.yul\":680:681   */\n  0x00\n    /* \"#utility.yul\":677:678   */\n  0x00\n    /* \"#utility.yul\":670:682   */\n  revert\n    /* \"#utility.yul\":621:684   */\ntag_32:\n    /* \"#utility.yul\":568:690   */\n  pop\n  jump\t// out\n    /* \"#utility.yul\":696:839   */\ntag_19:\n    /* \"#utility.yul\":753:758   */\n  0x00\n    /* \"#utility.yul\":784:790   */\n  dup2\n    /* \"#utility.yul\":778:791   */\n  mload\n    /* \"#utility.yul\":769:791   */\n  swap1\n  pop\n    /* \"#utility.yul\":800:833   */\n  tag_34\n    /* \"#utility.yul\":827:832   */\n  dup2\n    /* \"#utility.yul\":800:833   */\n  tag_18\n  jump\t// in\ntag_34:\n    /* \"#utility.yul\":696:839   */\n  swap3\n  swap2\n  pop\n  pop\n  jump\t// out\n    /* \"#utility.yul\":845:1665   */\ntag_3:\n    /* \"#utility.yul\":942:948   */\n  0x00\n    /* \"#utility.yul\":950:956   */\n  0x00\n    /* \"#utility.yul\":958:964   */\n  0x00\n    /* \"#utility.yul\":966:972   */\n  0x00\n    /* \"#utility.yul\":1015:1018   */\n  0x80\n    /* \"#utility.yul\":1003:1012   */\n  dup6\n    /* \"#utility.yul\":994:1001   */\n  dup8\n    /* \"#utility.yul\":990:1013   */\n  sub\n    /* \"#utility.yul\":986:1019   */\n  slt\n    /* \"#utility.yul\":983:1103   */\n  iszero\n  tag_36\n  jumpi\n    /* \"#utility.yul\":1022:1101   */\n  tag_37\n  tag_14\n  jump\t// in\ntag_37:\n    /* \"#utility.yul\":983:1103   */\ntag_36:\n    /* \"#utility.yul\":1142:1143   */\n  0x00\n    /* \"#utility.yul\":1167:1231   */\n  tag_38\n    /* \"#utility.yul\":1223:1230   */\n  dup8\n    /* \"#utility.yul\":1214:1220   */\n  dup3\n    /* \"#utility.yul\":1203:1212   */\n  dup9\n    /* \"#utility.yul\":1199:1221   */\n  add\n    /* \"#utility.yul\":1167:1231   */\n  tag_19\n  jump\t// in\ntag_38:\n    /* \"#utility.yul\":1157:1231   */\n  swap5\n  pop\n    /* \"#utility.yul\":1113:1241   */\n  pop\n    /* \"#utility.yul\":1280:1282   */\n  0x20\n    /* \"#utility.yul\":1306:1370   */\n  tag_39\n    /* \"#utility.yul\":1362:1369   */\n  dup8\n    /* \"#utility.yul\":1353:1359   */\n  dup3\n    /* \"#utility.yul\":1342:1351   */\n  dup9\n    /* \"#utility.yul\":1338:1360   */\n  add\n    /* \"#utility.yul\":1306:1370   */\n  tag_19\n  jump\t// in\ntag_39:\n    /* \"#utility.yul\":1296:1370   */\n  swap4\n  pop\n    /* \"#utility.yul\":1251:1380   */\n  pop\n    /* \"#utility.yul\":1419:1421   */\n  0x40\n    /* \"#utility.yul\":1445:1509   */\n  tag_40\n    /* \"#utility.yul\":1501:1508   */\n  dup8\n    /* \"#utility.yul\":1492:1498   */\n  dup3\n    /* \"#utility.yul\":1481:1490   */\n  dup9\n    /* \"#utility.yul\":1477:1499   */\n  add\n    /* \"#utility.yul\":1445:1509   */\n  tag_19\n  jump\t// in\ntag_40:\n    /* \"#utility.yul\":1435:1509   */\n  swap3\n  pop\n    /* \"#utility.yul\":1390:1519   */\n  pop\n    /* \"#utility.yul\":1558:1560   */\n  0x60\n    /* \"#utility.yul\":1584:1648   */\n  tag_41\n    /* \"#utility.yul\":1640:1647   */\n  dup8\n    /* \"#utility.yul\":1631:1637   */\n  dup3\n    /* \"#utility.yul\":1620:1629   */\n  dup9\n    /* \"#utility.yul\":1616:1638   */\n  add\n    /* \"#utility.yul\":1584:1648   */\n  tag_19\n  jump\t// in\ntag_41:\n    /* \"#utility.yul\":1574:1648   */\n  swap2\n  pop\n    /* \"#utility.yul\":1529:1658   */\n  pop\n    /* \"#utility.yul\":845:1665   */\n  swap3\n  swap6\n  swap2\n  swap5\n  pop\n  swap3\n  pop\n  jump\t// out\n    /* \"#utility.yul\":1671:1840   */\ntag_20:\n    /* \"#utility.yul\":1755:1766   */\n  0x00\n    /* \"#utility.yul\":1789:1795   */\n  dup3\n    /* \"#utility.yul\":1784:1787   */\n  dup3\n    /* \"#utility.yul\":1777:1796   */\n  mstore\n    /* \"#utility.yul\":1829:1833   */\n  0x20\n    /* \"#utility.yul\":1824:1827   */\n  dup3\n    /* \"#utility.yul\":1820:1834   */\n  add\n    /* \"#utility.yul\":1805:1834   */\n  swap1\n  pop\n    /* \"#utility.yul\":1671:1840   */\n  swap3\n  swap2\n  pop\n  pop\n  jump\t// out\n    /* \"#utility.yul\":1846:2008   */\ntag_21:\n    /* \"#utility.yul\":1986:2000   */\n  0x5a65726f20616464726573730000000000000000000000000000000000000000\n    /* \"#utility.yul\":1982:1983   */\n  0x00\n    /* \"#utility.yul\":1974:1980   */\n  dup3\n    /* \"#utility.yul\":1970:1984   */\n  add\n    /* \"#utility.yul\":1963:2001   */\n  mstore\n    /* \"#utility.yul\":1846:2008   */\n  pop\n  jump\t// out\n    /* \"#utility.yul\":2014:2380   */\ntag_22:\n    /* \"#utility.yul\":2156:2159   */\n  0x00\n    /* \"#utility.yul\":2177:2244   */\n  tag_45\n    /* \"#utility.yul\":2241:2243   */\n  0x0c\n    /* \"#utility.yul\":2236:2239   */\n  dup4\n    /* \"#utility.yul\":2177:2244   */\n  tag_20\n  jump\t// in\ntag_45:\n    /* \"#utility.yul\":2170:2244   */\n  swap2\n  pop\n    /* \"#utility.yul\":2253:2346   */\n  tag_46\n    /* \"#utility.yul\":2342:2345   */\n  dup3\n    /* \"#utility.yul\":2253:2346   */\n  tag_21\n  jump\t// in\ntag_46:\n    /* \"#utility.yul\":2371:2373   */\n  0x20\n    /* \"#utility.yul\":2366:2369   */\n  dup3\n    /* \"#utility.yul\":2362:2374   */\n  add\n    /* \"#utility.yul\":2355:2374   */\n  swap1\n  pop\n    /* \"#utility.yul\":2014:2380   */\n  swap2\n  swap1\n  pop\n  jump\t// out\n    /* \"#utility.yul\":2386:2805   */\ntag_11:\n    /* \"#utility.yul\":2552:2556   */\n  0x00\n    /* \"#utility.yul\":2590:2592   */\n  0x20\n    /* \"#utility.yul\":2579:2588   */\n  dup3\n    /* \"#utility.yul\":2575:2593   */\n  add\n    /* \"#utility.yul\":2567:2593   */\n  swap1\n  pop\n    /* \"#utility.yul\":2639:2648   */\n  dup2\n    /* \"#utility.yul\":2633:2637   */\n  dup2\n    /* \"#utility.yul\":2629:2649   */\n  sub\n    /* \"#utility.yul\":2625:2626   */\n  0x00\n    /* \"#utility.yul\":2614:2623   */\n  dup4\n    /* \"#utility.yul\":2610:2627   */\n  add\n    /* \"#utility.yul\":2603:2650   */\n  mstore\n    /* \"#utility.yul\":2667:2798   */\n  tag_48\n    /* \"#utility.yul\":2793:2797   */\n  dup2\n    /* \"#utility.yul\":2667:2798   */\n  tag_22\n  jump\t// in\ntag_48:\n    /* \"#utility.yul\":2659:2798   */\n  swap1\n  pop\n    /* \"#utility.yul\":2386:2805   */\n  swap2\n  swap1\n  pop\n  jump\t// out\n    /* \"HopeSwapForward.sol\":655:2333  contract HopeSwapForward {... */\ntag_12:\n  mload(0x80)\n  mload(0xa0)\n  mload(0xc0)\n  mload(0xe0)\n  mload(0x0100)\n  codecopy(0x00, dataOffset(sub_0), dataSize(sub_0))\n  0x00\n  assignImmutable(\"0xeafa31dc210956fc0884ec5660eba9405197797219cbbda41b6aaf7118c651d8\")\n  0x00\n  assignImmutable(\"0x606503ebd6bdca7290248af82fd5a09ca0489398da9f242244210336ae6ece9f\")\n  0x00\n  assignImmutable(\"0xd9670a00d025e59e1bd58d53874bea4ab34fea782716e2c168e89a3c8452d3bb\")\n  0x00\n  assignImmutable(\"0xdec29173c70f4e70086d64e09cb72b415f3d6a1843817cff62483903f0e12f62\")\n  0x00\n  assignImmutable(\"0x32da71dbd53bc029835bc5ecdd3e688035cc92bb61b1811d1685e67ba974e19f\")\n  return(0x00, dataSize(sub_0))\nstop\n\nsub_0: assembly {\n        /* \"HopeSwapForward.sol\":655:2333  contract HopeSwapForward {... */\n      mstore(0x40, 0x80)\n      callvalue\n      dup1\n      iszero\n      tag_1\n      jumpi\n      revert(0x00, 0x00)\n    tag_1:\n      pop\n      jumpi(tag_2, lt(calldatasize, 0x04))\n      shr(0xe0, calldataload(0x00))\n      dup1\n      0x2f48ab7d\n      eq\n      tag_3\n      jumpi\n      dup1\n      0x728e261f\n      eq\n      tag_4\n      jumpi\n      dup1\n      0x8d72647e\n      eq\n      tag_5\n      jumpi\n      dup1\n      0x8da5cb5b\n      eq\n      tag_6\n      jumpi\n      dup1\n      0xb5e37041\n      eq\n      tag_7\n      jumpi\n      dup1\n      0xf887ea40\n      eq\n      tag_8\n      jumpi\n    tag_2:\n      revert(0x00, 0x00)\n        /* \"HopeSwapForward.sol\":687:715  IERC20 public immutable usdt */\n    tag_3:\n      tag_9\n      tag_10\n      jump\t// in\n    tag_9:\n      mload(0x40)\n      tag_11\n      swap2\n      swap1\n      tag_12\n      jump\t// in\n    tag_11:\n      mload(0x40)\n      dup1\n      swap2\n      sub\n      swap1\n      return\n        /* \"HopeSwapForward.sol\":1283:2330  function swapThenForward(... */\n    tag_4:\n      tag_13\n      0x04\n      dup1\n      calldatasize\n      sub\n      dup2\n      add\n      swap1\n      tag_14\n      swap2\n      swap1\n      tag_15\n      jump\t// in\n    tag_14:\n      tag_16\n      jump\t// in\n    tag_13:\n      stop\n        /* \"HopeSwapForward.sol\":757:785  IERC20 public immutable wbnb */\n    tag_5:\n      tag_17\n      tag_18\n      jump\t// in\n    tag_17:\n      mload(0x40)\n      tag_19\n      swap2\n      swap1\n      tag_12\n      jump\t// in\n    tag_19:\n      mload(0x40)\n      dup1\n      swap2\n      sub\n      swap1\n      return\n        /* \"HopeSwapForward.sol\":837:867  address public immutable owner */\n    tag_6:\n      tag_20\n      tag_21\n      jump\t// in\n    tag_20:\n      mload(0x40)\n      tag_22\n      swap2\n      swap1\n      tag_23\n      jump\t// in\n    tag_22:\n      mload(0x40)\n      dup1\n      swap2\n      sub\n      swap1\n      return\n        /* \"HopeSwapForward.sol\":722:750  IERC20 public immutable hope */\n    tag_7:\n      tag_24\n      tag_25\n      jump\t// in\n    tag_24:\n      mload(0x40)\n      tag_26\n      swap2\n      swap1\n      tag_12\n      jump\t// in\n    tag_26:\n      mload(0x40)\n      dup1\n      swap2\n      sub\n      swap1\n      return\n        /* \"HopeSwapForward.sol\":792:830  IPancakeRouter public immutable router */\n    tag_8:\n      tag_27\n      tag_28\n      jump\t// in\n    tag_27:\n      mload(0x40)\n      tag_29\n      swap2\n      swap1\n      tag_30\n      jump\t// in\n    tag_29:\n      mload(0x40)\n      dup1\n      swap2\n      sub\n      swap1\n      return\n        /* \"HopeSwapForward.sol\":687:715  IERC20 public immutable usdt */\n    tag_10:\n      immutable(\"0x32da71dbd53bc029835bc5ecdd3e688035cc92bb61b1811d1685e67ba974e19f\")\n      dup2\n      jump\t// out\n        /* \"HopeSwapForward.sol\":1283:2330  function swapThenForward(... */\n    tag_16:\n        /* \"HopeSwapForward.sol\":1439:1440  0 */\n      0x00\n        /* \"HopeSwapForward.sol\":1428:1436  amountIn */\n      dup4\n        /* \"HopeSwapForward.sol\":1428:1440  amountIn > 0 */\n      gt\n        /* \"HopeSwapForward.sol\":1420:1458  require(amountIn > 0, \"Zero amountIn\") */\n      tag_32\n      jumpi\n      mload(0x40)\n      0x08c379a000000000000000000000000000000000000000000000000000000000\n      dup2\n      mstore\n      0x04\n      add\n      tag_33\n      swap1\n      tag_34\n      jump\t// in\n    tag_33:\n      mload(0x40)\n      dup1\n      swap2\n      sub\n      swap1\n      revert\n    tag_32:\n        /* \"HopeSwapForward.sol\":1489:1504  block.timestamp */\n      timestamp\n        /* \"HopeSwapForward.sol\":1477:1485  deadline */\n      dup2\n        /* \"HopeSwapForward.sol\":1477:1504  deadline >= block.timestamp */\n      lt\n      iszero\n        /* \"HopeSwapForward.sol\":1469:1524  require(deadline >= block.timestamp, \"Deadline passed\") */\n      tag_35\n      jumpi\n      mload(0x40)\n      0x08c379a000000000000000000000000000000000000000000000000000000000\n      dup2\n      mstore\n      0x04\n      add\n      tag_36\n      swap1\n      tag_37\n      jump\t// in\n    tag_36:\n      mload(0x40)\n      dup1\n      swap2\n      sub\n      swap1\n      revert\n    tag_35:\n        /* \"HopeSwapForward.sol\":1537:1541  usdt */\n      immutable(\"0x32da71dbd53bc029835bc5ecdd3e688035cc92bb61b1811d1685e67ba974e19f\")\n        /* \"HopeSwapForward.sol\":1537:1554  usdt.transferFrom */\n      0xffffffffffffffffffffffffffffffffffffffff\n      and\n      0x23b872dd\n        /* \"HopeSwapForward.sol\":1555:1565  msg.sender */\n      caller\n        /* \"HopeSwapForward.sol\":1575:1579  this */\n      address\n        /* \"HopeSwapForward.sol\":1582:1590  amountIn */\n      dup7\n        /* \"HopeSwapForward.sol\":1537:1591  usdt.transferFrom(msg.sender, address(this), amountIn) */\n      mload(0x40)\n      dup5\n      0xffffffff\n      and\n      0xe0\n      shl\n      dup2\n      mstore\n      0x04\n      add\n      tag_38\n      swap4\n      swap3\n      swap2\n      swap1\n      tag_39\n      jump\t// in\n    tag_38:\n      0x20\n      mload(0x40)\n      dup1\n      dup4\n      sub\n      dup2\n      0x00\n      dup8\n      gas\n      call\n      iszero\n      dup1\n      iszero\n      tag_41\n      jumpi\n      returndatacopy(0x00, 0x00, returndatasize)\n      revert(0x00, returndatasize)\n    tag_41:\n      pop\n      pop\n      pop\n      pop\n      mload(0x40)\n      returndatasize\n      not(0x1f)\n      0x1f\n      dup3\n      add\n      and\n      dup3\n      add\n      dup1\n      0x40\n      mstore\n      pop\n      dup2\n      add\n      swap1\n      tag_42\n      swap2\n      swap1\n      tag_43\n      jump\t// in\n    tag_42:\n      pop\n        /* \"HopeSwapForward.sol\":1602:1606  usdt */\n      immutable(\"0x32da71dbd53bc029835bc5ecdd3e688035cc92bb61b1811d1685e67ba974e19f\")\n        /* \"HopeSwapForward.sol\":1602:1614  usdt.approve */\n      0xffffffffffffffffffffffffffffffffffffffff\n      and\n      0x095ea7b3\n        /* \"HopeSwapForward.sol\":1623:1629  router */\n      immutable(\"0x606503ebd6bdca7290248af82fd5a09ca0489398da9f242244210336ae6ece9f\")\n        /* \"HopeSwapForward.sol\":1632:1640  amountIn */\n      dup6\n        /* \"HopeSwapForward.sol\":1602:1641  usdt.approve(address(router), amountIn) */\n      mload(0x40)\n      dup4\n      0xffffffff\n      and\n      0xe0\n      shl\n      dup2\n      mstore\n      0x04\n      add\n      tag_44\n      swap3\n      swap2\n      swap1\n      tag_45\n      jump\t// in\n    tag_44:\n      0x20\n      mload(0x40)\n      dup1\n      dup4\n      sub\n      dup2\n      0x00\n      dup8\n      gas\n      call\n      iszero\n      dup1\n      iszero\n      tag_47\n      jumpi\n      returndatacopy(0x00, 0x00, returndatasize)\n      revert(0x00, returndatasize)\n    tag_47:\n      pop\n      pop\n      pop\n      pop\n      mload(0x40)\n      returndatasize\n      not(0x1f)\n      0x1f\n      dup3\n      add\n      and\n      dup3\n      add\n      dup1\n      0x40\n      mstore\n      pop\n      dup2\n      add\n      swap1\n      tag_48\n      swap2\n      swap1\n      tag_43\n      jump\t// in\n    tag_48:\n      pop\n        /* \"HopeSwapForward.sol\":1771:1792  address[] memory path */\n      0x00\n        /* \"HopeSwapForward.sol\":1809:1810  3 */\n      0x03\n        /* \"HopeSwapForward.sol\":1795:1811  new address[](3) */\n      0xffffffffffffffff\n      dup2\n      gt\n      iszero\n      tag_49\n      jumpi\n      tag_50\n      tag_51\n      jump\t// in\n    tag_50:\n    tag_49:\n      mload(0x40)\n      swap1\n      dup1\n      dup3\n      mstore\n      dup1\n      0x20\n      mul\n      0x20\n      add\n      dup3\n      add\n      0x40\n      mstore\n      dup1\n      iszero\n      tag_52\n      jumpi\n      dup2\n      0x20\n      add\n      0x20\n      dup3\n      mul\n      dup1\n      calldatasize\n      dup4\n      calldatacopy\n      dup1\n      dup3\n      add\n      swap2\n      pop\n      pop\n      swap1\n      pop\n    tag_52:\n      pop\n        /* \"HopeSwapForward.sol\":1771:1811  address[] memory path = new address[](3) */\n      swap1\n      pop\n        /* \"HopeSwapForward.sol\":1840:1844  usdt */\n      immutable(\"0x32da71dbd53bc029835bc5ecdd3e688035cc92bb61b1811d1685e67ba974e19f\")\n        /* \"HopeSwapForward.sol\":1822:1826  path */\n      dup2\n        /* \"HopeSwapForward.sol\":1827:1828  0 */\n      0x00\n        /* \"HopeSwapForward.sol\":1822:1829  path[0] */\n      dup2\n      mload\n      dup2\n      lt\n      tag_53\n      jumpi\n      tag_54\n      tag_55\n      jump\t// in\n    tag_54:\n    tag_53:\n      0x20\n      mul\n      0x20\n      add\n      add\n        /* \"HopeSwapForward.sol\":1822:1845  path[0] = address(usdt) */\n      swap1\n      0xffffffffffffffffffffffffffffffffffffffff\n      and\n      swap1\n      dup2\n      0xffffffffffffffffffffffffffffffffffffffff\n      and\n      dup2\n      mstore\n      pop\n      pop\n        /* \"HopeSwapForward.sol\":1874:1878  wbnb */\n      immutable(\"0xd9670a00d025e59e1bd58d53874bea4ab34fea782716e2c168e89a3c8452d3bb\")\n        /* \"HopeSwapForward.sol\":1856:1860  path */\n      dup2\n        /* \"HopeSwapForward.sol\":1861:1862  1 */\n      0x01\n        /* \"HopeSwapForward.sol\":1856:1863  path[1] */\n      dup2\n      mload\n      dup2\n      lt\n      tag_56\n      jumpi\n      tag_57\n      tag_55\n      jump\t// in\n    tag_57:\n    tag_56:\n      0x20\n      mul\n      0x20\n      add\n      add\n        /* \"HopeSwapForward.sol\":1856:1879  path[1] = address(wbnb) */\n      swap1\n      0xffffffffffffffffffffffffffffffffffffffff\n      and\n      swap1\n      dup2\n      0xffffffffffffffffffffffffffffffffffffffff\n      and\n      dup2\n      mstore\n      pop\n      pop\n        /* \"HopeSwapForward.sol\":1925:1929  hope */\n      immutable(\"0xdec29173c70f4e70086d64e09cb72b415f3d6a1843817cff62483903f0e12f62\")\n        /* \"HopeSwapForward.sol\":1907:1911  path */\n      dup2\n        /* \"HopeSwapForward.sol\":1912:1913  2 */\n      0x02\n        /* \"HopeSwapForward.sol\":1907:1914  path[2] */\n      dup2\n      mload\n      dup2\n      lt\n      tag_58\n      jumpi\n      tag_59\n      tag_55\n      jump\t// in\n    tag_59:\n    tag_58:\n      0x20\n      mul\n      0x20\n      add\n      add\n        /* \"HopeSwapForward.sol\":1907:1930  path[2] = address(hope) */\n      swap1\n      0xffffffffffffffffffffffffffffffffffffffff\n      and\n      swap1\n      dup2\n      0xffffffffffffffffffffffffffffffffffffffff\n      and\n      dup2\n      mstore\n      pop\n      pop\n        /* \"HopeSwapForward.sol\":1945:1951  router */\n      immutable(\"0x606503ebd6bdca7290248af82fd5a09ca0489398da9f242244210336ae6ece9f\")\n        /* \"HopeSwapForward.sol\":1945:2005  router.swapExactTokensForTokensSupportingFeeOnTransferTokens */\n      0xffffffffffffffffffffffffffffffffffffffff\n      and\n      0x5c11d795\n        /* \"HopeSwapForward.sol\":2020:2028  amountIn */\n      dup6\n        /* \"HopeSwapForward.sol\":2043:2055  amountOutMin */\n      dup6\n        /* \"HopeSwapForward.sol\":2070:2074  path */\n      dup5\n        /* \"HopeSwapForward.sol\":2097:2101  this */\n      address\n        /* \"HopeSwapForward.sol\":2117:2125  deadline */\n      dup8\n        /* \"HopeSwapForward.sol\":1945:2136  router.swapExactTokensForTokensSupportingFeeOnTransferTokens(... */\n      mload(0x40)\n      dup7\n      0xffffffff\n      and\n      0xe0\n      shl\n      dup2\n      mstore\n      0x04\n      add\n      tag_60\n      swap6\n      swap5\n      swap4\n      swap3\n      swap2\n      swap1\n      tag_61\n      jump\t// in\n    tag_60:\n      0x00\n      mload(0x40)\n      dup1\n      dup4\n      sub\n      dup2\n      0x00\n      dup8\n      dup1\n      extcodesize\n      iszero\n      dup1\n      iszero\n      tag_62\n      jumpi\n      revert(0x00, 0x00)\n    tag_62:\n      pop\n      gas\n      call\n      iszero\n      dup1\n      iszero\n      tag_64\n      jumpi\n      returndatacopy(0x00, 0x00, returndatasize)\n      revert(0x00, returndatasize)\n    tag_64:\n      pop\n      pop\n      pop\n      pop\n        /* \"HopeSwapForward.sol\":2149:2163  uint256 outAmt */\n      0x00\n        /* \"HopeSwapForward.sol\":2166:2170  hope */\n      immutable(\"0xdec29173c70f4e70086d64e09cb72b415f3d6a1843817cff62483903f0e12f62\")\n        /* \"HopeSwapForward.sol\":2166:2180  hope.balanceOf */\n      0xffffffffffffffffffffffffffffffffffffffff\n      and\n      0x70a08231\n        /* \"HopeSwapForward.sol\":2189:2193  this */\n      address\n        /* \"HopeSwapForward.sol\":2166:2195  hope.balanceOf(address(this)) */\n      mload(0x40)\n      dup3\n      0xffffffff\n      and\n      0xe0\n      shl\n      dup2\n      mstore\n      0x04\n      add\n      tag_65\n      swap2\n      swap1\n      tag_23\n      jump\t// in\n    tag_65:\n      0x20\n      mload(0x40)\n      dup1\n      dup4\n      sub\n      dup2\n      dup7\n      gas\n      staticcall\n      iszero\n      dup1\n      iszero\n      tag_67\n      jumpi\n      returndatacopy(0x00, 0x00, returndatasize)\n      revert(0x00, returndatasize)\n    tag_67:\n      pop\n      pop\n      pop\n      pop\n      mload(0x40)\n      returndatasize\n      not(0x1f)\n      0x1f\n      dup3\n      add\n      and\n      dup3\n      add\n      dup1\n      0x40\n      mstore\n      pop\n      dup2\n      add\n      swap1\n      tag_68\n      swap2\n      swap1\n      tag_69\n      jump\t// in\n    tag_68:\n        /* \"HopeSwapForward.sol\":2149:2195  uint256 outAmt = hope.balanceOf(address(this)) */\n      swap1\n      pop\n        /* \"HopeSwapForward.sol\":2223:2224  0 */\n      0x00\n        /* \"HopeSwapForward.sol\":2214:2220  outAmt */\n      dup2\n        /* \"HopeSwapForward.sol\":2214:2224  outAmt > 0 */\n      gt\n        /* \"HopeSwapForward.sol\":2206:2238  require(outAmt > 0, \"No output\") */\n      tag_70\n      jumpi\n      mload(0x40)\n      0x08c379a000000000000000000000000000000000000000000000000000000000\n      dup2\n      mstore\n      0x04\n      add\n      tag_71\n      swap1\n      tag_72\n      jump\t// in\n    tag_71:\n      mload(0x40)\n      dup1\n      swap2\n      sub\n      swap1\n      revert\n    tag_70:\n        /* \"HopeSwapForward.sol\":2251:2255  hope */\n      immutable(\"0xdec29173c70f4e70086d64e09cb72b415f3d6a1843817cff62483903f0e12f62\")\n        /* \"HopeSwapForward.sol\":2251:2264  hope.transfer */\n      0xffffffffffffffffffffffffffffffffffffffff\n      and\n      0xa9059cbb\n        /* \"HopeSwapForward.sol\":2265:2270  owner */\n      immutable(\"0xeafa31dc210956fc0884ec5660eba9405197797219cbbda41b6aaf7118c651d8\")\n        /* \"HopeSwapForward.sol\":2272:2278  outAmt */\n      dup4\n        /* \"HopeSwapForward.sol\":2251:2279  hope.transfer(owner, outAmt) */\n      mload(0x40)\n      dup4\n      0xffffffff\n      and\n      0xe0\n      shl\n      dup2\n      mstore\n      0x04\n      add\n      tag_73\n      swap3\n      swap2\n      swap1\n      tag_45\n      jump\t// in\n    tag_73:\n      0x20\n      mload(0x40)\n      dup1\n      dup4\n      sub\n      dup2\n      0x00\n      dup8\n      gas\n      call\n      iszero\n      dup1\n      iszero\n      tag_75\n      jumpi\n      returndatacopy(0x00, 0x00, returndatasize)\n      revert(0x00, returndatasize)\n    tag_75:\n      pop\n      pop\n      pop\n      pop\n      mload(0x40)\n      returndatasize\n      not(0x1f)\n      0x1f\n      dup3\n      add\n      and\n      dup3\n      add\n      dup1\n      0x40\n      mstore\n      pop\n      dup2\n      add\n      swap1\n      tag_76\n      swap2\n      swap1\n      tag_43\n      jump\t// in\n    tag_76:\n      pop\n        /* \"HopeSwapForward.sol\":2297:2322  Swapped(amountIn, outAmt) */\n      0x5a6443be634d8594e0dff76c972a6a74f88bf761fb6e334d88dd979516f3bc8f\n        /* \"HopeSwapForward.sol\":2305:2313  amountIn */\n      dup6\n        /* \"HopeSwapForward.sol\":2315:2321  outAmt */\n      dup3\n        /* \"HopeSwapForward.sol\":2297:2322  Swapped(amountIn, outAmt) */\n      mload(0x40)\n      tag_77\n      swap3\n      swap2\n      swap1\n      tag_78\n      jump\t// in\n    tag_77:\n      mload(0x40)\n      dup1\n      swap2\n      sub\n      swap1\n      log1\n        /* \"HopeSwapForward.sol\":1409:2330  {... */\n      pop\n      pop\n        /* \"HopeSwapForward.sol\":1283:2330  function swapThenForward(... */\n      pop\n      pop\n      pop\n      jump\t// out\n        /* \"HopeSwapForward.sol\":757:785  IERC20 public immutable wbnb */\n    tag_18:\n      immutable(\"0xd9670a00d025e59e1bd58d53874bea4ab34fea782716e2c168e89a3c8452d3bb\")\n      dup2\n      jump\t// out\n        /* \"HopeSwapForward.sol\":837:867  address public immutable owner */\n    tag_21:\n      immutable(\"0xeafa31dc210956fc0884ec5660eba9405197797219cbbda41b6aaf7118c651d8\")\n      dup2\n      jump\t// out\n        /* \"HopeSwapForward.sol\":722:750  IERC20 public immutable hope */\n    tag_25:\n      immutable(\"0xdec29173c70f4e70086d64e09cb72b415f3d6a1843817cff62483903f0e12f62\")\n      dup2\n      jump\t// out\n        /* \"HopeSwapForward.sol\":792:830  IPancakeRouter public immutable router */\n    tag_28:\n      immutable(\"0x606503ebd6bdca7290248af82fd5a09ca0489398da9f242244210336ae6ece9f\")\n      dup2\n      jump\t// out\n        /* \"#utility.yul\":7:133   */\n    tag_79:\n        /* \"#utility.yul\":44:51   */\n      0x00\n        /* \"#utility.yul\":84:126   */\n      0xffffffffffffffffffffffffffffffffffffffff\n        /* \"#utility.yul\":77:82   */\n      dup3\n        /* \"#utility.yul\":73:127   */\n      and\n        /* \"#utility.yul\":62:127   */\n      swap1\n      pop\n        /* \"#utility.yul\":7:133   */\n      swap2\n      swap1\n      pop\n      jump\t// out\n        /* \"#utility.yul\":139:199   */\n    tag_80:\n        /* \"#utility.yul\":167:170   */\n      0x00\n        /* \"#utility.yul\":188:193   */\n      dup2\n        /* \"#utility.yul\":181:193   */\n      swap1\n      pop\n        /* \"#utility.yul\":139:199   */\n      swap2\n      swap1\n      pop\n      jump\t// out\n        /* \"#utility.yul\":205:347   */\n    tag_81:\n        /* \"#utility.yul\":255:264   */\n      0x00\n        /* \"#utility.yul\":288:341   */\n      tag_118\n        /* \"#utility.yul\":306:340   */\n      tag_119\n        /* \"#utility.yul\":315:339   */\n      tag_120\n        /* \"#utility.yul\":333:338   */\n      dup5\n        /* \"#utility.yul\":315:339   */\n      tag_79\n      jump\t// in\n    tag_120:\n        /* \"#utility.yul\":306:340   */\n      tag_80\n      jump\t// in\n    tag_119:\n        /* \"#utility.yul\":288:341   */\n      tag_79\n      jump\t// in\n    tag_118:\n        /* \"#utility.yul\":275:341   */\n      swap1\n      pop\n        /* \"#utility.yul\":205:347   */\n      swap2\n      swap1\n      pop\n      jump\t// out\n        /* \"#utility.yul\":353:479   */\n    tag_82:\n        /* \"#utility.yul\":403:412   */\n      0x00\n        /* \"#utility.yul\":436:473   */\n      tag_122\n        /* \"#utility.yul\":467:472   */\n      dup3\n        /* \"#utility.yul\":436:473   */\n      tag_81\n      jump\t// in\n    tag_122:\n        /* \"#utility.yul\":423:473   */\n      swap1\n      pop\n        /* \"#utility.yul\":353:479   */\n      swap2\n      swap1\n      pop\n      jump\t// out\n        /* \"#utility.yul\":485:624   */\n    tag_83:\n        /* \"#utility.yul\":548:557   */\n      0x00\n        /* \"#utility.yul\":581:618   */\n      tag_124\n        /* \"#utility.yul\":612:617   */\n      dup3\n        /* \"#utility.yul\":581:618   */\n      tag_82\n      jump\t// in\n    tag_124:\n        /* \"#utility.yul\":568:618   */\n      swap1\n      pop\n        /* \"#utility.yul\":485:624   */\n      swap2\n      swap1\n      pop\n      jump\t// out\n        /* \"#utility.yul\":630:787   */\n    tag_84:\n        /* \"#utility.yul\":730:780   */\n      tag_126\n        /* \"#utility.yul\":774:779   */\n      dup2\n        /* \"#utility.yul\":730:780   */\n      tag_83\n      jump\t// in\n    tag_126:\n        /* \"#utility.yul\":725:728   */\n      dup3\n        /* \"#utility.yul\":718:781   */\n      mstore\n        /* \"#utility.yul\":630:787   */\n      pop\n      pop\n      jump\t// out\n        /* \"#utility.yul\":793:1041   */\n    tag_12:\n        /* \"#utility.yul\":899:903   */\n      0x00\n        /* \"#utility.yul\":937:939   */\n      0x20\n        /* \"#utility.yul\":926:935   */\n      dup3\n        /* \"#utility.yul\":922:940   */\n      add\n        /* \"#utility.yul\":914:940   */\n      swap1\n      pop\n        /* \"#utility.yul\":950:1034   */\n      tag_128\n        /* \"#utility.yul\":1031:1032   */\n      0x00\n        /* \"#utility.yul\":1020:1029   */\n      dup4\n        /* \"#utility.yul\":1016:1033   */\n      add\n        /* \"#utility.yul\":1007:1013   */\n      dup5\n        /* \"#utility.yul\":950:1034   */\n      tag_84\n      jump\t// in\n    tag_128:\n        /* \"#utility.yul\":793:1041   */\n      swap3\n      swap2\n      pop\n      pop\n      jump\t// out\n        /* \"#utility.yul\":1128:1245   */\n    tag_86:\n        /* \"#utility.yul\":1237:1238   */\n      0x00\n        /* \"#utility.yul\":1234:1235   */\n      0x00\n        /* \"#utility.yul\":1227:1239   */\n      revert\n        /* \"#utility.yul\":1374:1451   */\n    tag_88:\n        /* \"#utility.yul\":1411:1418   */\n      0x00\n        /* \"#utility.yul\":1440:1445   */\n      dup2\n        /* \"#utility.yul\":1429:1445   */\n      swap1\n      pop\n        /* \"#utility.yul\":1374:1451   */\n      swap2\n      swap1\n      pop\n      jump\t// out\n        /* \"#utility.yul\":1457:1579   */\n    tag_89:\n        /* \"#utility.yul\":1530:1554   */\n      tag_134\n        /* \"#utility.yul\":1548:1553   */\n      dup2\n        /* \"#utility.yul\":1530:1554   */\n      tag_88\n      jump\t// in\n    tag_134:\n        /* \"#utility.yul\":1523:1528   */\n      dup2\n        /* \"#utility.yul\":1520:1555   */\n      eq\n        /* \"#utility.yul\":1510:1573   */\n      tag_135\n      jumpi\n        /* \"#utility.yul\":1569:1570   */\n      0x00\n        /* \"#utility.yul\":1566:1567   */\n      0x00\n        /* \"#utility.yul\":1559:1571   */\n      revert\n        /* \"#utility.yul\":1510:1573   */\n    tag_135:\n        /* \"#utility.yul\":1457:1579   */\n      pop\n      jump\t// out\n        /* \"#utility.yul\":1585:1724   */\n    tag_90:\n        /* \"#utility.yul\":1631:1636   */\n      0x00\n        /* \"#utility.yul\":1669:1675   */\n      dup2\n        /* \"#utility.yul\":1656:1676   */\n      calldataload\n        /* \"#utility.yul\":1647:1676   */\n      swap1\n      pop\n        /* \"#utility.yul\":1685:1718   */\n      tag_137\n        /* \"#utility.yul\":1712:1717   */\n      dup2\n        /* \"#utility.yul\":1685:1718   */\n      tag_89\n      jump\t// in\n    tag_137:\n        /* \"#utility.yul\":1585:1724   */\n      swap3\n      swap2\n      pop\n      pop\n      jump\t// out\n        /* \"#utility.yul\":1730:2349   */\n    tag_15:\n        /* \"#utility.yul\":1807:1813   */\n      0x00\n        /* \"#utility.yul\":1815:1821   */\n      0x00\n        /* \"#utility.yul\":1823:1829   */\n      0x00\n        /* \"#utility.yul\":1872:1874   */\n      0x60\n        /* \"#utility.yul\":1860:1869   */\n      dup5\n        /* \"#utility.yul\":1851:1858   */\n      dup7\n        /* \"#utility.yul\":1847:1870   */\n      sub\n        /* \"#utility.yul\":1843:1875   */\n      slt\n        /* \"#utility.yul\":1840:1959   */\n      iszero\n      tag_139\n      jumpi\n        /* \"#utility.yul\":1878:1957   */\n      tag_140\n      tag_86\n      jump\t// in\n    tag_140:\n        /* \"#utility.yul\":1840:1959   */\n    tag_139:\n        /* \"#utility.yul\":1998:1999   */\n      0x00\n        /* \"#utility.yul\":2023:2076   */\n      tag_141\n        /* \"#utility.yul\":2068:2075   */\n      dup7\n        /* \"#utility.yul\":2059:2065   */\n      dup3\n        /* \"#utility.yul\":2048:2057   */\n      dup8\n        /* \"#utility.yul\":2044:2066   */\n      add\n        /* \"#utility.yul\":2023:2076   */\n      tag_90\n      jump\t// in\n    tag_141:\n        /* \"#utility.yul\":2013:2076   */\n      swap4\n      pop\n        /* \"#utility.yul\":1969:2086   */\n      pop\n        /* \"#utility.yul\":2125:2127   */\n      0x20\n        /* \"#utility.yul\":2151:2204   */\n      tag_142\n        /* \"#utility.yul\":2196:2203   */\n      dup7\n        /* \"#utility.yul\":2187:2193   */\n      dup3\n        /* \"#utility.yul\":2176:2185   */\n      dup8\n        /* \"#utility.yul\":2172:2194   */\n      add\n        /* \"#utility.yul\":2151:2204   */\n      tag_90\n      jump\t// in\n    tag_142:\n        /* \"#utility.yul\":2141:2204   */\n      swap3\n      pop\n        /* \"#utility.yul\":2096:2214   */\n      pop\n        /* \"#utility.yul\":2253:2255   */\n      0x40\n        /* \"#utility.yul\":2279:2332   */\n      tag_143\n        /* \"#utility.yul\":2324:2331   */\n      dup7\n        /* \"#utility.yul\":2315:2321   */\n      dup3\n        /* \"#utility.yul\":2304:2313   */\n      dup8\n        /* \"#utility.yul\":2300:2322   */\n      add\n        /* \"#utility.yul\":2279:2332   */\n      tag_90\n      jump\t// in\n    tag_143:\n        /* \"#utility.yul\":2269:2332   */\n      swap2\n      pop\n        /* \"#utility.yul\":2224:2342   */\n      pop\n        /* \"#utility.yul\":1730:2349   */\n      swap3\n      pop\n      swap3\n      pop\n      swap3\n      jump\t// out\n        /* \"#utility.yul\":2355:2451   */\n    tag_91:\n        /* \"#utility.yul\":2392:2399   */\n      0x00\n        /* \"#utility.yul\":2421:2445   */\n      tag_145\n        /* \"#utility.yul\":2439:2444   */\n      dup3\n        /* \"#utility.yul\":2421:2445   */\n      tag_79\n      jump\t// in\n    tag_145:\n        /* \"#utility.yul\":2410:2445   */\n      swap1\n      pop\n        /* \"#utility.yul\":2355:2451   */\n      swap2\n      swap1\n      pop\n      jump\t// out\n        /* \"#utility.yul\":2457:2575   */\n    tag_92:\n        /* \"#utility.yul\":2544:2568   */\n      tag_147\n        /* \"#utility.yul\":2562:2567   */\n      dup2\n        /* \"#utility.yul\":2544:2568   */\n      tag_91\n      jump\t// in\n    tag_147:\n        /* \"#utility.yul\":2539:2542   */\n      dup3\n        /* \"#utility.yul\":2532:2569   */\n      mstore\n        /* \"#utility.yul\":2457:2575   */\n      pop\n      pop\n      jump\t// out\n        /* \"#utility.yul\":2581:2803   */\n    tag_23:\n        /* \"#utility.yul\":2674:2678   */\n      0x00\n        /* \"#utility.yul\":2712:2714   */\n      0x20\n        /* \"#utility.yul\":2701:2710   */\n      dup3\n        /* \"#utility.yul\":2697:2715   */\n      add\n        /* \"#utility.yul\":2689:2715   */\n      swap1\n      pop\n        /* \"#utility.yul\":2725:2796   */\n      tag_149\n        /* \"#utility.yul\":2793:2794   */\n      0x00\n        /* \"#utility.yul\":2782:2791   */\n      dup4\n        /* \"#utility.yul\":2778:2795   */\n      add\n        /* \"#utility.yul\":2769:2775   */\n      dup5\n        /* \"#utility.yul\":2725:2796   */\n      tag_92\n      jump\t// in\n    tag_149:\n        /* \"#utility.yul\":2581:2803   */\n      swap3\n      swap2\n      pop\n      pop\n      jump\t// out\n        /* \"#utility.yul\":2809:2956   */\n    tag_93:\n        /* \"#utility.yul\":2880:2889   */\n      0x00\n        /* \"#utility.yul\":2913:2950   */\n      tag_151\n        /* \"#utility.yul\":2944:2949   */\n      dup3\n        /* \"#utility.yul\":2913:2950   */\n      tag_82\n      jump\t// in\n    tag_151:\n        /* \"#utility.yul\":2900:2950   */\n      swap1\n      pop\n        /* \"#utility.yul\":2809:2956   */\n      swap2\n      swap1\n      pop\n      jump\t// out\n        /* \"#utility.yul\":2962:3135   */\n    tag_94:\n        /* \"#utility.yul\":3070:3128   */\n      tag_153\n        /* \"#utility.yul\":3122:3127   */\n      dup2\n        /* \"#utility.yul\":3070:3128   */\n      tag_93\n      jump\t// in\n    tag_153:\n        /* \"#utility.yul\":3065:3068   */\n      dup3\n        /* \"#utility.yul\":3058:3129   */\n      mstore\n        /* \"#utility.yul\":2962:3135   */\n      pop\n      pop\n      jump\t// out\n        /* \"#utility.yul\":3141:3405   */\n    tag_30:\n        /* \"#utility.yul\":3255:3259   */\n      0x00\n        /* \"#utility.yul\":3293:3295   */\n      0x20\n        /* \"#utility.yul\":3282:3291   */\n      dup3\n        /* \"#utility.yul\":3278:3296   */\n      add\n        /* \"#utility.yul\":3270:3296   */\n      swap1\n      pop\n        /* \"#utility.yul\":3306:3398   */\n      tag_155\n        /* \"#utility.yul\":3395:3396   */\n      0x00\n        /* \"#utility.yul\":3384:3393   */\n      dup4\n        /* \"#utility.yul\":3380:3397   */\n      add\n        /* \"#utility.yul\":3371:3377   */\n      dup5\n        /* \"#utility.yul\":3306:3398   */\n      tag_94\n      jump\t// in\n    tag_155:\n        /* \"#utility.yul\":3141:3405   */\n      swap3\n      swap2\n      pop\n      pop\n      jump\t// out\n        /* \"#utility.yul\":3411:3580   */\n    tag_95:\n        /* \"#utility.yul\":3495:3506   */\n      0x00\n        /* \"#utility.yul\":3529:3535   */\n      dup3\n        /* \"#utility.yul\":3524:3527   */\n      dup3\n        /* \"#utility.yul\":3517:3536   */\n      mstore\n        /* \"#utility.yul\":3569:3573   */\n      0x20\n        /* \"#utility.yul\":3564:3567   */\n      dup3\n        /* \"#utility.yul\":3560:3574   */\n      add\n        /* \"#utility.yul\":3545:3574   */\n      swap1\n      pop\n        /* \"#utility.yul\":3411:3580   */\n      swap3\n      swap2\n      pop\n      pop\n      jump\t// out\n        /* \"#utility.yul\":3586:3749   */\n    tag_96:\n        /* \"#utility.yul\":3726:3741   */\n      0x5a65726f20616d6f756e74496e00000000000000000000000000000000000000\n        /* \"#utility.yul\":3722:3723   */\n      0x00\n        /* \"#utility.yul\":3714:3720   */\n      dup3\n        /* \"#utility.yul\":3710:3724   */\n      add\n        /* \"#utility.yul\":3703:3742   */\n      mstore\n        /* \"#utility.yul\":3586:3749   */\n      pop\n      jump\t// out\n        /* \"#utility.yul\":3755:4121   */\n    tag_97:\n        /* \"#utility.yul\":3897:3900   */\n      0x00\n        /* \"#utility.yul\":3918:3985   */\n      tag_159\n        /* \"#utility.yul\":3982:3984   */\n      0x0d\n        /* \"#utility.yul\":3977:3980   */\n      dup4\n        /* \"#utility.yul\":3918:3985   */\n      tag_95\n      jump\t// in\n    tag_159:\n        /* \"#utility.yul\":3911:3985   */\n      swap2\n      pop\n        /* \"#utility.yul\":3994:4087   */\n      tag_160\n        /* \"#utility.yul\":4083:4086   */\n      dup3\n        /* \"#utility.yul\":3994:4087   */\n      tag_96\n      jump\t// in\n    tag_160:\n        /* \"#utility.yul\":4112:4114   */\n      0x20\n        /* \"#utility.yul\":4107:4110   */\n      dup3\n        /* \"#utility.yul\":4103:4115   */\n      add\n        /* \"#utility.yul\":4096:4115   */\n      swap1\n      pop\n        /* \"#utility.yul\":3755:4121   */\n      swap2\n      swap1\n      pop\n      jump\t// out\n        /* \"#utility.yul\":4127:4546   */\n    tag_34:\n        /* \"#utility.yul\":4293:4297   */\n      0x00\n        /* \"#utility.yul\":4331:4333   */\n      0x20\n        /* \"#utility.yul\":4320:4329   */\n      dup3\n        /* \"#utility.yul\":4316:4334   */\n      add\n        /* \"#utility.yul\":4308:4334   */\n      swap1\n      pop\n        /* \"#utility.yul\":4380:4389   */\n      dup2\n        /* \"#utility.yul\":4374:4378   */\n      dup2\n        /* \"#utility.yul\":4370:4390   */\n      sub\n        /* \"#utility.yul\":4366:4367   */\n      0x00\n        /* \"#utility.yul\":4355:4364   */\n      dup4\n        /* \"#utility.yul\":4351:4368   */\n      add\n        /* \"#utility.yul\":4344:4391   */\n      mstore\n        /* \"#utility.yul\":4408:4539   */\n      tag_162\n        /* \"#utility.yul\":4534:4538   */\n      dup2\n        /* \"#utility.yul\":4408:4539   */\n      tag_97\n      jump\t// in\n    tag_162:\n        /* \"#utility.yul\":4400:4539   */\n      swap1\n      pop\n        /* \"#utility.yul\":4127:4546   */\n      swap2\n      swap1\n      pop\n      jump\t// out\n        /* \"#utility.yul\":4552:4717   */\n    tag_98:\n        /* \"#utility.yul\":4692:4709   */\n      0x446561646c696e65207061737365640000000000000000000000000000000000\n        /* \"#utility.yul\":4688:4689   */\n      0x00\n        /* \"#utility.yul\":4680:4686   */\n      dup3\n        /* \"#utility.yul\":4676:4690   */\n      add\n        /* \"#utility.yul\":4669:4710   */\n      mstore\n        /* \"#utility.yul\":4552:4717   */\n      pop\n      jump\t// out\n        /* \"#utility.yul\":4723:5089   */\n    tag_99:\n        /* \"#utility.yul\":4865:4868   */\n      0x00\n        /* \"#utility.yul\":4886:4953   */\n      tag_165\n        /* \"#utility.yul\":4950:4952   */\n      0x0f\n        /* \"#utility.yul\":4945:4948   */\n      dup4\n        /* \"#utility.yul\":4886:4953   */\n      tag_95\n      jump\t// in\n    tag_165:\n        /* \"#utility.yul\":4879:4953   */\n      swap2\n      pop\n        /* \"#utility.yul\":4962:5055   */\n      tag_166\n        /* \"#utility.yul\":5051:5054   */\n      dup3\n        /* \"#utility.yul\":4962:5055   */\n      tag_98\n      jump\t// in\n    tag_166:\n        /* \"#utility.yul\":5080:5082   */\n      0x20\n        /* \"#utility.yul\":5075:5078   */\n      dup3\n        /* \"#utility.yul\":5071:5083   */\n      add\n        /* \"#utility.yul\":5064:5083   */\n      swap1\n      pop\n        /* \"#utility.yul\":4723:5089   */\n      swap2\n      swap1\n      pop\n      jump\t// out\n        /* \"#utility.yul\":5095:5514   */\n    tag_37:\n        /* \"#utility.yul\":5261:5265   */\n      0x00\n        /* \"#utility.yul\":5299:5301   */\n      0x20\n        /* \"#utility.yul\":5288:5297   */\n      dup3\n        /* \"#utility.yul\":5284:5302   */\n      add\n        /* \"#utility.yul\":5276:5302   */\n      swap1\n      pop\n        /* \"#utility.yul\":5348:5357   */\n      dup2\n        /* \"#utility.yul\":5342:5346   */\n      dup2\n        /* \"#utility.yul\":5338:5358   */\n      sub\n        /* \"#utility.yul\":5334:5335   */\n      0x00\n        /* \"#utility.yul\":5323:5332   */\n      dup4\n        /* \"#utility.yul\":5319:5336   */\n      add\n        /* \"#utility.yul\":5312:5359   */\n      mstore\n        /* \"#utility.yul\":5376:5507   */\n      tag_168\n        /* \"#utility.yul\":5502:5506   */\n      dup2\n        /* \"#utility.yul\":5376:5507   */\n      tag_99\n      jump\t// in\n    tag_168:\n        /* \"#utility.yul\":5368:5507   */\n      swap1\n      pop\n        /* \"#utility.yul\":5095:5514   */\n      swap2\n      swap1\n      pop\n      jump\t// out\n        /* \"#utility.yul\":5520:5638   */\n    tag_100:\n        /* \"#utility.yul\":5607:5631   */\n      tag_170\n        /* \"#utility.yul\":5625:5630   */\n      dup2\n        /* \"#utility.yul\":5607:5631   */\n      tag_88\n      jump\t// in\n    tag_170:\n        /* \"#utility.yul\":5602:5605   */\n      dup3\n        /* \"#utility.yul\":5595:5632   */\n      mstore\n        /* \"#utility.yul\":5520:5638   */\n      pop\n      pop\n      jump\t// out\n        /* \"#utility.yul\":5644:6086   */\n    tag_39:\n        /* \"#utility.yul\":5793:5797   */\n      0x00\n        /* \"#utility.yul\":5831:5833   */\n      0x60\n        /* \"#utility.yul\":5820:5829   */\n      dup3\n        /* \"#utility.yul\":5816:5834   */\n      add\n        /* \"#utility.yul\":5808:5834   */\n      swap1\n      pop\n        /* \"#utility.yul\":5844:5915   */\n      tag_172\n        /* \"#utility.yul\":5912:5913   */\n      0x00\n        /* \"#utility.yul\":5901:5910   */\n      dup4\n        /* \"#utility.yul\":5897:5914   */\n      add\n        /* \"#utility.yul\":5888:5894   */\n      dup7\n        /* \"#utility.yul\":5844:5915   */\n      tag_92\n      jump\t// in\n    tag_172:\n        /* \"#utility.yul\":5925:5997   */\n      tag_173\n        /* \"#utility.yul\":5993:5995   */\n      0x20\n        /* \"#utility.yul\":5982:5991   */\n      dup4\n        /* \"#utility.yul\":5978:5996   */\n      add\n        /* \"#utility.yul\":5969:5975   */\n      dup6\n        /* \"#utility.yul\":5925:5997   */\n      tag_92\n      jump\t// in\n    tag_173:\n        /* \"#utility.yul\":6007:6079   */\n      tag_174\n        /* \"#utility.yul\":6075:6077   */\n      0x40\n        /* \"#utility.yul\":6064:6073   */\n      dup4\n        /* \"#utility.yul\":6060:6078   */\n      add\n        /* \"#utility.yul\":6051:6057   */\n      dup5\n        /* \"#utility.yul\":6007:6079   */\n      tag_100\n      jump\t// in\n    tag_174:\n        /* \"#utility.yul\":5644:6086   */\n      swap5\n      swap4\n      pop\n      pop\n      pop\n      pop\n      jump\t// out\n        /* \"#utility.yul\":6092:6182   */\n    tag_101:\n        /* \"#utility.yul\":6126:6133   */\n      0x00\n        /* \"#utility.yul\":6169:6174   */\n      dup2\n        /* \"#utility.yul\":6162:6175   */\n      iszero\n        /* \"#utility.yul\":6155:6176   */\n      iszero\n        /* \"#utility.yul\":6144:6176   */\n      swap1\n      pop\n        /* \"#utility.yul\":6092:6182   */\n      swap2\n      swap1\n      pop\n      jump\t// out\n        /* \"#utility.yul\":6188:6304   */\n    tag_102:\n        /* \"#utility.yul\":6258:6279   */\n      tag_177\n        /* \"#utility.yul\":6273:6278   */\n      dup2\n        /* \"#utility.yul\":6258:6279   */\n      tag_101\n      jump\t// in\n    tag_177:\n        /* \"#utility.yul\":6251:6256   */\n      dup2\n        /* \"#utility.yul\":6248:6280   */\n      eq\n        /* \"#utility.yul\":6238:6298   */\n      tag_178\n      jumpi\n        /* \"#utility.yul\":6294:6295   */\n      0x00\n        /* \"#utility.yul\":6291:6292   */\n      0x00\n        /* \"#utility.yul\":6284:6296   */\n      revert\n        /* \"#utility.yul\":6238:6298   */\n    tag_178:\n        /* \"#utility.yul\":6188:6304   */\n      pop\n      jump\t// out\n        /* \"#utility.yul\":6310:6447   */\n    tag_103:\n        /* \"#utility.yul\":6364:6369   */\n      0x00\n        /* \"#utility.yul\":6395:6401   */\n      dup2\n        /* \"#utility.yul\":6389:6402   */\n      mload\n        /* \"#utility.yul\":6380:6402   */\n      swap1\n      pop\n        /* \"#utility.yul\":6411:6441   */\n      tag_180\n        /* \"#utility.yul\":6435:6440   */\n      dup2\n        /* \"#utility.yul\":6411:6441   */\n      tag_102\n      jump\t// in\n    tag_180:\n        /* \"#utility.yul\":6310:6447   */\n      swap3\n      swap2\n      pop\n      pop\n      jump\t// out\n        /* \"#utility.yul\":6453:6798   */\n    tag_43:\n        /* \"#utility.yul\":6520:6526   */\n      0x00\n        /* \"#utility.yul\":6569:6571   */\n      0x20\n        /* \"#utility.yul\":6557:6566   */\n      dup3\n        /* \"#utility.yul\":6548:6555   */\n      dup5\n        /* \"#utility.yul\":6544:6567   */\n      sub\n        /* \"#utility.yul\":6540:6572   */\n      slt\n        /* \"#utility.yul\":6537:6656   */\n      iszero\n      tag_182\n      jumpi\n        /* \"#utility.yul\":6575:6654   */\n      tag_183\n      tag_86\n      jump\t// in\n    tag_183:\n        /* \"#utility.yul\":6537:6656   */\n    tag_182:\n        /* \"#utility.yul\":6695:6696   */\n      0x00\n        /* \"#utility.yul\":6720:6781   */\n      tag_184\n        /* \"#utility.yul\":6773:6780   */\n      dup5\n        /* \"#utility.yul\":6764:6770   */\n      dup3\n        /* \"#utility.yul\":6753:6762   */\n      dup6\n        /* \"#utility.yul\":6749:6771   */\n      add\n        /* \"#utility.yul\":6720:6781   */\n      tag_103\n      jump\t// in\n    tag_184:\n        /* \"#utility.yul\":6710:6781   */\n      swap2\n      pop\n        /* \"#utility.yul\":6666:6791   */\n      pop\n        /* \"#utility.yul\":6453:6798   */\n      swap3\n      swap2\n      pop\n      pop\n      jump\t// out\n        /* \"#utility.yul\":6804:7136   */\n    tag_45:\n        /* \"#utility.yul\":6925:6929   */\n      0x00\n        /* \"#utility.yul\":6963:6965   */\n      0x40\n        /* \"#utility.yul\":6952:6961   */\n      dup3\n        /* \"#utility.yul\":6948:6966   */\n      add\n        /* \"#utility.yul\":6940:6966   */\n      swap1\n      pop\n        /* \"#utility.yul\":6976:7047   */\n      tag_186\n        /* \"#utility.yul\":7044:7045   */\n      0x00\n        /* \"#utility.yul\":7033:7042   */\n      dup4\n        /* \"#utility.yul\":7029:7046   */\n      add\n        /* \"#utility.yul\":7020:7026   */\n      dup6\n        /* \"#utility.yul\":6976:7047   */\n      tag_92\n      jump\t// in\n    tag_186:\n        /* \"#utility.yul\":7057:7129   */\n      tag_187\n        /* \"#utility.yul\":7125:7127   */\n      0x20\n        /* \"#utility.yul\":7114:7123   */\n      dup4\n        /* \"#utility.yul\":7110:7128   */\n      add\n        /* \"#utility.yul\":7101:7107   */\n      dup5\n        /* \"#utility.yul\":7057:7129   */\n      tag_100\n      jump\t// in\n    tag_187:\n        /* \"#utility.yul\":6804:7136   */\n      swap4\n      swap3\n      pop\n      pop\n      pop\n      jump\t// out\n        /* \"#utility.yul\":7142:7322   */\n    tag_51:\n        /* \"#utility.yul\":7190:7267   */\n      0x4e487b7100000000000000000000000000000000000000000000000000000000\n        /* \"#utility.yul\":7187:7188   */\n      0x00\n        /* \"#utility.yul\":7180:7268   */\n      mstore\n        /* \"#utility.yul\":7287:7291   */\n      0x41\n        /* \"#utility.yul\":7284:7285   */\n      0x04\n        /* \"#utility.yul\":7277:7292   */\n      mstore\n        /* \"#utility.yul\":7311:7315   */\n      0x24\n        /* \"#utility.yul\":7308:7309   */\n      0x00\n        /* \"#utility.yul\":7301:7316   */\n      revert\n        /* \"#utility.yul\":7328:7508   */\n    tag_55:\n        /* \"#utility.yul\":7376:7453   */\n      0x4e487b7100000000000000000000000000000000000000000000000000000000\n        /* \"#utility.yul\":7373:7374   */\n      0x00\n        /* \"#utility.yul\":7366:7454   */\n      mstore\n        /* \"#utility.yul\":7473:7477   */\n      0x32\n        /* \"#utility.yul\":7470:7471   */\n      0x04\n        /* \"#utility.yul\":7463:7478   */\n      mstore\n        /* \"#utility.yul\":7497:7501   */\n      0x24\n        /* \"#utility.yul\":7494:7495   */\n      0x00\n        /* \"#utility.yul\":7487:7502   */\n      revert\n        /* \"#utility.yul\":7514:7628   */\n    tag_104:\n        /* \"#utility.yul\":7581:7587   */\n      0x00\n        /* \"#utility.yul\":7615:7620   */\n      dup2\n        /* \"#utility.yul\":7609:7621   */\n      mload\n        /* \"#utility.yul\":7599:7621   */\n      swap1\n      pop\n        /* \"#utility.yul\":7514:7628   */\n      swap2\n      swap1\n      pop\n      jump\t// out\n        /* \"#utility.yul\":7634:7818   */\n    tag_105:\n        /* \"#utility.yul\":7733:7744   */\n      0x00\n        /* \"#utility.yul\":7767:7773   */\n      dup3\n        /* \"#utility.yul\":7762:7765   */\n      dup3\n        /* \"#utility.yul\":7755:7774   */\n      mstore\n        /* \"#utility.yul\":7807:7811   */\n      0x20\n        /* \"#utility.yul\":7802:7805   */\n      dup3\n        /* \"#utility.yul\":7798:7812   */\n      add\n        /* \"#utility.yul\":7783:7812   */\n      swap1\n      pop\n        /* \"#utility.yul\":7634:7818   */\n      swap3\n      swap2\n      pop\n      pop\n      jump\t// out\n        /* \"#utility.yul\":7824:7956   */\n    tag_106:\n        /* \"#utility.yul\":7891:7895   */\n      0x00\n        /* \"#utility.yul\":7914:7917   */\n      dup2\n        /* \"#utility.yul\":7906:7917   */\n      swap1\n      pop\n        /* \"#utility.yul\":7944:7948   */\n      0x20\n        /* \"#utility.yul\":7939:7942   */\n      dup3\n        /* \"#utility.yul\":7935:7949   */\n      add\n        /* \"#utility.yul\":7927:7949   */\n      swap1\n      pop\n        /* \"#utility.yul\":7824:7956   */\n      swap2\n      swap1\n      pop\n      jump\t// out\n        /* \"#utility.yul\":7962:8070   */\n    tag_107:\n        /* \"#utility.yul\":8039:8063   */\n      tag_194\n        /* \"#utility.yul\":8057:8062   */\n      dup2\n        /* \"#utility.yul\":8039:8063   */\n      tag_91\n      jump\t// in\n    tag_194:\n        /* \"#utility.yul\":8034:8037   */\n      dup3\n        /* \"#utility.yul\":8027:8064   */\n      mstore\n        /* \"#utility.yul\":7962:8070   */\n      pop\n      pop\n      jump\t// out\n        /* \"#utility.yul\":8076:8255   */\n    tag_108:\n        /* \"#utility.yul\":8145:8155   */\n      0x00\n        /* \"#utility.yul\":8166:8212   */\n      tag_196\n        /* \"#utility.yul\":8208:8211   */\n      dup4\n        /* \"#utility.yul\":8200:8206   */\n      dup4\n        /* \"#utility.yul\":8166:8212   */\n      tag_107\n      jump\t// in\n    tag_196:\n        /* \"#utility.yul\":8244:8248   */\n      0x20\n        /* \"#utility.yul\":8239:8242   */\n      dup4\n        /* \"#utility.yul\":8235:8249   */\n      add\n        /* \"#utility.yul\":8221:8249   */\n      swap1\n      pop\n        /* \"#utility.yul\":8076:8255   */\n      swap3\n      swap2\n      pop\n      pop\n      jump\t// out\n        /* \"#utility.yul\":8261:8374   */\n    tag_109:\n        /* \"#utility.yul\":8331:8335   */\n      0x00\n        /* \"#utility.yul\":8363:8367   */\n      0x20\n        /* \"#utility.yul\":8358:8361   */\n      dup3\n        /* \"#utility.yul\":8354:8368   */\n      add\n        /* \"#utility.yul\":8346:8368   */\n      swap1\n      pop\n        /* \"#utility.yul\":8261:8374   */\n      swap2\n      swap1\n      pop\n      jump\t// out\n        /* \"#utility.yul\":8410:9142   */\n    tag_110:\n        /* \"#utility.yul\":8529:8532   */\n      0x00\n        /* \"#utility.yul\":8558:8612   */\n      tag_199\n        /* \"#utility.yul\":8606:8611   */\n      dup3\n        /* \"#utility.yul\":8558:8612   */\n      tag_104\n      jump\t// in\n    tag_199:\n        /* \"#utility.yul\":8628:8714   */\n      tag_200\n        /* \"#utility.yul\":8707:8713   */\n      dup2\n        /* \"#utility.yul\":8702:8705   */\n      dup6\n        /* \"#utility.yul\":8628:8714   */\n      tag_105\n      jump\t// in\n    tag_200:\n        /* \"#utility.yul\":8621:8714   */\n      swap4\n      pop\n        /* \"#utility.yul\":8738:8794   */\n      tag_201\n        /* \"#utility.yul\":8788:8793   */\n      dup4\n        /* \"#utility.yul\":8738:8794   */\n      tag_106\n      jump\t// in\n    tag_201:\n        /* \"#utility.yul\":8817:8824   */\n      dup1\n        /* \"#utility.yul\":8848:8849   */\n      0x00\n        /* \"#utility.yul\":8833:9117   */\n    tag_202:\n        /* \"#utility.yul\":8858:8864   */\n      dup4\n        /* \"#utility.yul\":8855:8856   */\n      dup2\n        /* \"#utility.yul\":8852:8865   */\n      lt\n        /* \"#utility.yul\":8833:9117   */\n      iszero\n      tag_204\n      jumpi\n        /* \"#utility.yul\":8934:8940   */\n      dup2\n        /* \"#utility.yul\":8928:8941   */\n      mload\n        /* \"#utility.yul\":8961:9024   */\n      tag_205\n        /* \"#utility.yul\":9020:9023   */\n      dup9\n        /* \"#utility.yul\":9005:9018   */\n      dup3\n        /* \"#utility.yul\":8961:9024   */\n      tag_108\n      jump\t// in\n    tag_205:\n        /* \"#utility.yul\":8954:9024   */\n      swap8\n      pop\n        /* \"#utility.yul\":9047:9107   */\n      tag_206\n        /* \"#utility.yul\":9100:9106   */\n      dup4\n        /* \"#utility.yul\":9047:9107   */\n      tag_109\n      jump\t// in\n    tag_206:\n        /* \"#utility.yul\":9037:9107   */\n      swap3\n      pop\n        /* \"#utility.yul\":8893:9117   */\n      pop\n        /* \"#utility.yul\":8880:8881   */\n      0x01\n        /* \"#utility.yul\":8877:8878   */\n      dup2\n        /* \"#utility.yul\":8873:8882   */\n      add\n        /* \"#utility.yul\":8868:8882   */\n      swap1\n      pop\n        /* \"#utility.yul\":8833:9117   */\n      jump(tag_202)\n    tag_204:\n        /* \"#utility.yul\":8837:8851   */\n      pop\n        /* \"#utility.yul\":9133:9136   */\n      dup6\n        /* \"#utility.yul\":9126:9136   */\n      swap4\n      pop\n        /* \"#utility.yul\":8534:9142   */\n      pop\n      pop\n      pop\n        /* \"#utility.yul\":8410:9142   */\n      swap3\n      swap2\n      pop\n      pop\n      jump\t// out\n        /* \"#utility.yul\":9148:9963   */\n    tag_61:\n        /* \"#utility.yul\":9403:9407   */\n      0x00\n        /* \"#utility.yul\":9441:9444   */\n      0xa0\n        /* \"#utility.yul\":9430:9439   */\n      dup3\n        /* \"#utility.yul\":9426:9445   */\n      add\n        /* \"#utility.yul\":9418:9445   */\n      swap1\n      pop\n        /* \"#utility.yul\":9455:9526   */\n      tag_208\n        /* \"#utility.yul\":9523:9524   */\n      0x00\n        /* \"#utility.yul\":9512:9521   */\n      dup4\n        /* \"#utility.yul\":9508:9525   */\n      add\n        /* \"#utility.yul\":9499:9505   */\n      dup9\n        /* \"#utility.yul\":9455:9526   */\n      tag_100\n      jump\t// in\n    tag_208:\n        /* \"#utility.yul\":9536:9608   */\n      tag_209\n        /* \"#utility.yul\":9604:9606   */\n      0x20\n        /* \"#utility.yul\":9593:9602   */\n      dup4\n        /* \"#utility.yul\":9589:9607   */\n      add\n        /* \"#utility.yul\":9580:9586   */\n      dup8\n        /* \"#utility.yul\":9536:9608   */\n      tag_100\n      jump\t// in\n    tag_209:\n        /* \"#utility.yul\":9655:9664   */\n      dup2\n        /* \"#utility.yul\":9649:9653   */\n      dup2\n        /* \"#utility.yul\":9645:9665   */\n      sub\n        /* \"#utility.yul\":9640:9642   */\n      0x40\n        /* \"#utility.yul\":9629:9638   */\n      dup4\n        /* \"#utility.yul\":9625:9643   */\n      add\n        /* \"#utility.yul\":9618:9666   */\n      mstore\n        /* \"#utility.yul\":9683:9791   */\n      tag_210\n        /* \"#utility.yul\":9786:9790   */\n      dup2\n        /* \"#utility.yul\":9777:9783   */\n      dup7\n        /* \"#utility.yul\":9683:9791   */\n      tag_110\n      jump\t// in\n    tag_210:\n        /* \"#utility.yul\":9675:9791   */\n      swap1\n      pop\n        /* \"#utility.yul\":9801:9873   */\n      tag_211\n        /* \"#utility.yul\":9869:9871   */\n      0x60\n        /* \"#utility.yul\":9858:9867   */\n      dup4\n        /* \"#utility.yul\":9854:9872   */\n      add\n        /* \"#utility.yul\":9845:9851   */\n      dup6\n        /* \"#utility.yul\":9801:9873   */\n      tag_92\n      jump\t// in\n    tag_211:\n        /* \"#utility.yul\":9883:9956   */\n      tag_212\n        /* \"#utility.yul\":9951:9954   */\n      0x80\n        /* \"#utility.yul\":9940:9949   */\n      dup4\n        /* \"#utility.yul\":9936:9955   */\n      add\n        /* \"#utility.yul\":9927:9933   */\n      dup5\n        /* \"#utility.yul\":9883:9956   */\n      tag_100\n      jump\t// in\n    tag_212:\n        /* \"#utility.yul\":9148:9963   */\n      swap7\n      swap6\n      pop\n      pop\n      pop\n      pop\n      pop\n      pop\n      jump\t// out\n        /* \"#utility.yul\":9969:10112   */\n    tag_111:\n        /* \"#utility.yul\":10026:10031   */\n      0x00\n        /* \"#utility.yul\":10057:10063   */\n      dup2\n        /* \"#utility.yul\":10051:10064   */\n      mload\n        /* \"#utility.yul\":10042:10064   */\n      swap1\n      pop\n        /* \"#utility.yul\":10073:10106   */\n      tag_214\n        /* \"#utility.yul\":10100:10105   */\n      dup2\n        /* \"#utility.yul\":10073:10106   */\n      tag_89\n      jump\t// in\n    tag_214:\n        /* \"#utility.yul\":9969:10112   */\n      swap3\n      swap2\n      pop\n      pop\n      jump\t// out\n        /* \"#utility.yul\":10118:10469   */\n    tag_69:\n        /* \"#utility.yul\":10188:10194   */\n      0x00\n        /* \"#utility.yul\":10237:10239   */\n      0x20\n        /* \"#utility.yul\":10225:10234   */\n      dup3\n        /* \"#utility.yul\":10216:10223   */\n      dup5\n        /* \"#utility.yul\":10212:10235   */\n      sub\n        /* \"#utility.yul\":10208:10240   */\n      slt\n        /* \"#utility.yul\":10205:10324   */\n      iszero\n      tag_216\n      jumpi\n        /* \"#utility.yul\":10243:10322   */\n      tag_217\n      tag_86\n      jump\t// in\n    tag_217:\n        /* \"#utility.yul\":10205:10324   */\n    tag_216:\n        /* \"#utility.yul\":10363:10364   */\n      0x00\n        /* \"#utility.yul\":10388:10452   */\n      tag_218\n        /* \"#utility.yul\":10444:10451   */\n      dup5\n        /* \"#utility.yul\":10435:10441   */\n      dup3\n        /* \"#utility.yul\":10424:10433   */\n      dup6\n        /* \"#utility.yul\":10420:10442   */\n      add\n        /* \"#utility.yul\":10388:10452   */\n      tag_111\n      jump\t// in\n    tag_218:\n        /* \"#utility.yul\":10378:10452   */\n      swap2\n      pop\n        /* \"#utility.yul\":10334:10462   */\n      pop\n        /* \"#utility.yul\":10118:10469   */\n      swap3\n      swap2\n      pop\n      pop\n      jump\t// out\n        /* \"#utility.yul\":10475:10634   */\n    tag_112:\n        /* \"#utility.yul\":10615:10626   */\n      0x4e6f206f75747075740000000000000000000000000000000000000000000000\n        /* \"#utility.yul\":10611:10612   */\n      0x00\n        /* \"#utility.yul\":10603:10609   */\n      dup3\n        /* \"#utility.yul\":10599:10613   */\n      add\n        /* \"#utility.yul\":10592:10627   */\n      mstore\n        /* \"#utility.yul\":10475:10634   */\n      pop\n      jump\t// out\n        /* \"#utility.yul\":10640:11005   */\n    tag_113:\n        /* \"#utility.yul\":10782:10785   */\n      0x00\n        /* \"#utility.yul\":10803:10869   */\n      tag_221\n        /* \"#utility.yul\":10867:10868   */\n      0x09\n        /* \"#utility.yul\":10862:10865   */\n      dup4\n        /* \"#utility.yul\":10803:10869   */\n      tag_95\n      jump\t// in\n    tag_221:\n        /* \"#utility.yul\":10796:10869   */\n      swap2\n      pop\n        /* \"#utility.yul\":10878:10971   */\n      tag_222\n        /* \"#utility.yul\":10967:10970   */\n      dup3\n        /* \"#utility.yul\":10878:10971   */\n      tag_112\n      jump\t// in\n    tag_222:\n        /* \"#utility.yul\":10996:10998   */\n      0x20\n        /* \"#utility.yul\":10991:10994   */\n      dup3\n        /* \"#utility.yul\":10987:10999   */\n      add\n        /* \"#utility.yul\":10980:10999   */\n      swap1\n      pop\n        /* \"#utility.yul\":10640:11005   */\n      swap2\n      swap1\n      pop\n      jump\t// out\n        /* \"#utility.yul\":11011:11430   */\n    tag_72:\n        /* \"#utility.yul\":11177:11181   */\n      0x00\n        /* \"#utility.yul\":11215:11217   */\n      0x20\n        /* \"#utility.yul\":11204:11213   */\n      dup3\n        /* \"#utility.yul\":11200:11218   */\n      add\n        /* \"#utility.yul\":11192:11218   */\n      swap1\n      pop\n        /* \"#utility.yul\":11264:11273   */\n      dup2\n        /* \"#utility.yul\":11258:11262   */\n      dup2\n        /* \"#utility.yul\":11254:11274   */\n      sub\n        /* \"#utility.yul\":11250:11251   */\n      0x00\n        /* \"#utility.yul\":11239:11248   */\n      dup4\n        /* \"#utility.yul\":11235:11252   */\n      add\n        /* \"#utility.yul\":11228:11275   */\n      mstore\n        /* \"#utility.yul\":11292:11423   */\n      tag_224\n        /* \"#utility.yul\":11418:11422   */\n      dup2\n        /* \"#utility.yul\":11292:11423   */\n      tag_113\n      jump\t// in\n    tag_224:\n        /* \"#utility.yul\":11284:11423   */\n      swap1\n      pop\n        /* \"#utility.yul\":11011:11430   */\n      swap2\n      swap1\n      pop\n      jump\t// out\n        /* \"#utility.yul\":11436:11768   */\n    tag_78:\n        /* \"#utility.yul\":11557:11561   */\n      0x00\n        /* \"#utility.yul\":11595:11597   */\n      0x40\n        /* \"#utility.yul\":11584:11593   */\n      dup3\n        /* \"#utility.yul\":11580:11598   */\n      add\n        /* \"#utility.yul\":11572:11598   */\n      swap1\n      pop\n        /* \"#utility.yul\":11608:11679   */\n      tag_226\n        /* \"#utility.yul\":11676:11677   */\n      0x00\n        /* \"#utility.yul\":11665:11674   */\n      dup4\n        /* \"#utility.yul\":11661:11678   */\n      add\n        /* \"#utility.yul\":11652:11658   */\n      dup6\n        /* \"#utility.yul\":11608:11679   */\n      tag_100\n      jump\t// in\n    tag_226:\n        /* \"#utility.yul\":11689:11761   */\n      tag_227\n        /* \"#utility.yul\":11757:11759   */\n      0x20\n        /* \"#utility.yul\":11746:11755   */\n      dup4\n        /* \"#utility.yul\":11742:11760   */\n      add\n        /* \"#utility.yul\":11733:11739   */\n      dup5\n        /* \"#utility.yul\":11689:11761   */\n      tag_100\n      jump\t// in\n    tag_227:\n        /* \"#utility.yul\":11436:11768   */\n      swap4\n      swap3\n      pop\n      pop\n      pop\n      jump\t// out\n\n    auxdata: 0xa2646970667358221220acef3e8639ed9503ac0cfd4d1af6c90661edee054c7ddcfa7deb7a0eecbd854864736f6c634300081e0033\n}\n",
				"bytecode": {
					"linkReferences": {},
					"object": "610120604052348015610010575f5ffd5b50604051611161380380611161833981810160405281019061003291906102b5565b5f73ffffffffffffffffffffffffffffffffffffffff168473ffffffffffffffffffffffffffffffffffffffff161415801561009a57505f73ffffffffffffffffffffffffffffffffffffffff168373ffffffffffffffffffffffffffffffffffffffff1614155b80156100d257505f73ffffffffffffffffffffffffffffffffffffffff168273ffffffffffffffffffffffffffffffffffffffff1614155b801561010a57505f73ffffffffffffffffffffffffffffffffffffffff168173ffffffffffffffffffffffffffffffffffffffff1614155b610149576040517f08c379a000000000000000000000000000000000000000000000000000000000815260040161014090610373565b60405180910390fd5b8373ffffffffffffffffffffffffffffffffffffffff1660e08173ffffffffffffffffffffffffffffffffffffffff16815250508273ffffffffffffffffffffffffffffffffffffffff1660808173ffffffffffffffffffffffffffffffffffffffff16815250508173ffffffffffffffffffffffffffffffffffffffff1660a08173ffffffffffffffffffffffffffffffffffffffff16815250508073ffffffffffffffffffffffffffffffffffffffff1660c08173ffffffffffffffffffffffffffffffffffffffff16815250503373ffffffffffffffffffffffffffffffffffffffff166101008173ffffffffffffffffffffffffffffffffffffffff168152505050505050610391565b5f5ffd5b5f73ffffffffffffffffffffffffffffffffffffffff82169050919050565b5f6102848261025b565b9050919050565b6102948161027a565b811461029e575f5ffd5b50565b5f815190506102af8161028b565b92915050565b5f5f5f5f608085870312156102cd576102cc610257565b5b5f6102da878288016102a1565b94505060206102eb878288016102a1565b93505060406102fc878288016102a1565b925050606061030d878288016102a1565b91505092959194509250565b5f82825260208201905092915050565b7f5a65726f206164647265737300000000000000000000000000000000000000005f82015250565b5f61035d600c83610319565b915061036882610329565b602082019050919050565b5f6020820190508181035f83015261038a81610351565b9050919050565b60805160a05160c05160e05161010051610d4d6104145f395f818161065b015261073f01525f818161029b015281816104b4015261078701525f81816103d6015261071b01525f8181610445015281816105430152818161061f015261076301525f8181610118015281816101c10152818161025f01526103680152610d4d5ff3fe608060405234801561000f575f5ffd5b5060043610610060575f3560e01c80632f48ab7d14610064578063728e261f146100825780638d72647e1461009e5780638da5cb5b146100bc578063b5e37041146100da578063f887ea40146100f8575b5f5ffd5b61006c610116565b6040516100799190610823565b60405180910390f35b61009c60048036038101906100979190610873565b61013a565b005b6100a6610719565b6040516100b39190610823565b60405180910390f35b6100c461073d565b6040516100d191906108e3565b60405180910390f35b6100e2610761565b6040516100ef9190610823565b60405180910390f35b610100610785565b60405161010d919061091c565b60405180910390f35b7f000000000000000000000000000000000000000000000000000000000000000081565b5f831161017c576040517f08c379a00000000000000000000000000000000000000000000000000000000081526004016101739061098f565b60405180910390fd5b428110156101bf576040517f08c379a00000000000000000000000000000000000000000000000000000000081526004016101b6906109f7565b60405180910390fd5b7f000000000000000000000000000000000000000000000000000000000000000073ffffffffffffffffffffffffffffffffffffffff166323b872dd3330866040518463ffffffff1660e01b815260040161021c93929190610a24565b6020604051808303815f875af1158015610238573d5f5f3e3d5ffd5b505050506040513d601f19601f8201168201806040525081019061025c9190610a8e565b507f000000000000000000000000000000000000000000000000000000000000000073ffffffffffffffffffffffffffffffffffffffff1663095ea7b37f0000000000000000000000000000000000000000000000000000000000000000856040518363ffffffff1660e01b81526004016102d8929190610ab9565b6020604051808303815f875af11580156102f4573d5f5f3e3d5ffd5b505050506040513d601f19601f820116820180604052508101906103189190610a8e565b505f600367ffffffffffffffff81111561033557610334610ae0565b5b6040519080825280602002602001820160405280156103635781602001602082028036833780820191505090505b5090507f0000000000000000000000000000000000000000000000000000000000000000815f8151811061039a57610399610b0d565b5b602002602001019073ffffffffffffffffffffffffffffffffffffffff16908173ffffffffffffffffffffffffffffffffffffffff16815250507f00000000000000000000000000000000000000000000000000000000000000008160018151811061040957610408610b0d565b5b602002602001019073ffffffffffffffffffffffffffffffffffffffff16908173ffffffffffffffffffffffffffffffffffffffff16815250507f00000000000000000000000000000000000000000000000000000000000000008160028151811061047857610477610b0d565b5b602002602001019073ffffffffffffffffffffffffffffffffffffffff16908173ffffffffffffffffffffffffffffffffffffffff16815250507f000000000000000000000000000000000000000000000000000000000000000073ffffffffffffffffffffffffffffffffffffffff16635c11d79585858430876040518663ffffffff1660e01b8152600401610513959493929190610bf1565b5f604051808303815f87803b15801561052a575f5ffd5b505af115801561053c573d5f5f3e3d5ffd5b505050505f7f000000000000000000000000000000000000000000000000000000000000000073ffffffffffffffffffffffffffffffffffffffff166370a08231306040518263ffffffff1660e01b815260040161059a91906108e3565b602060405180830381865afa1580156105b5573d5f5f3e3d5ffd5b505050506040513d601f19601f820116820180604052508101906105d99190610c5d565b90505f811161061d576040517f08c379a000000000000000000000000000000000000000000000000000000000815260040161061490610cd2565b60405180910390fd5b7f000000000000000000000000000000000000000000000000000000000000000073ffffffffffffffffffffffffffffffffffffffff1663a9059cbb7f0000000000000000000000000000000000000000000000000000000000000000836040518363ffffffff1660e01b8152600401610698929190610ab9565b6020604051808303815f875af11580156106b4573d5f5f3e3d5ffd5b505050506040513d601f19601f820116820180604052508101906106d89190610a8e565b507f5a6443be634d8594e0dff76c972a6a74f88bf761fb6e334d88dd979516f3bc8f858260405161070a929190610cf0565b60405180910390a15050505050565b7f000000000000000000000000000000000000000000000000000000000000000081565b7f000000000000000000000000000000000000000000000000000000000000000081565b7f000000000000000000000000000000000000000000000000000000000000000081565b7f000000000000000000000000000000000000000000000000000000000000000081565b5f73ffffffffffffffffffffffffffffffffffffffff82169050919050565b5f819050919050565b5f6107eb6107e66107e1846107a9565b6107c8565b6107a9565b9050919050565b5f6107fc826107d1565b9050919050565b5f61080d826107f2565b9050919050565b61081d81610803565b82525050565b5f6020820190506108365f830184610814565b92915050565b5f5ffd5b5f819050919050565b61085281610840565b811461085c575f5ffd5b50565b5f8135905061086d81610849565b92915050565b5f5f5f6060848603121561088a5761088961083c565b5b5f6108978682870161085f565b93505060206108a88682870161085f565b92505060406108b98682870161085f565b9150509250925092565b5f6108cd826107a9565b9050919050565b6108dd816108c3565b82525050565b5f6020820190506108f65f8301846108d4565b92915050565b5f610906826107f2565b9050919050565b610916816108fc565b82525050565b5f60208201905061092f5f83018461090d565b92915050565b5f82825260208201905092915050565b7f5a65726f20616d6f756e74496e000000000000000000000000000000000000005f82015250565b5f610979600d83610935565b915061098482610945565b602082019050919050565b5f6020820190508181035f8301526109a68161096d565b9050919050565b7f446561646c696e652070617373656400000000000000000000000000000000005f82015250565b5f6109e1600f83610935565b91506109ec826109ad565b602082019050919050565b5f6020820190508181035f830152610a0e816109d5565b9050919050565b610a1e81610840565b82525050565b5f606082019050610a375f8301866108d4565b610a4460208301856108d4565b610a516040830184610a15565b949350505050565b5f8115159050919050565b610a6d81610a59565b8114610a77575f5ffd5b50565b5f81519050610a8881610a64565b92915050565b5f60208284031215610aa357610aa261083c565b5b5f610ab084828501610a7a565b91505092915050565b5f604082019050610acc5f8301856108d4565b610ad96020830184610a15565b9392505050565b7f4e487b71000000000000000000000000000000000000000000000000000000005f52604160045260245ffd5b7f4e487b71000000000000000000000000000000000000000000000000000000005f52603260045260245ffd5b5f81519050919050565b5f82825260208201905092915050565b5f819050602082019050919050565b610b6c816108c3565b82525050565b5f610b7d8383610b63565b60208301905092915050565b5f602082019050919050565b5f610b9f82610b3a565b610ba98185610b44565b9350610bb483610b54565b805f5b83811015610be4578151610bcb8882610b72565b9750610bd683610b89565b925050600181019050610bb7565b5085935050505092915050565b5f60a082019050610c045f830188610a15565b610c116020830187610a15565b8181036040830152610c238186610b95565b9050610c3260608301856108d4565b610c3f6080830184610a15565b9695505050505050565b5f81519050610c5781610849565b92915050565b5f60208284031215610c7257610c7161083c565b5b5f610c7f84828501610c49565b91505092915050565b7f4e6f206f757470757400000000000000000000000000000000000000000000005f82015250565b5f610cbc600983610935565b9150610cc782610c88565b602082019050919050565b5f6020820190508181035f830152610ce981610cb0565b9050919050565b5f604082019050610d035f830185610a15565b610d106020830184610a15565b939250505056fea2646970667358221220acef3e8639ed9503ac0cfd4d1af6c90661edee054c7ddcfa7deb7a0eecbd854864736f6c634300081e0033",
					"opcodes": "PUSH2 0x120 PUSH1 0x40 MSTORE CALLVALUE DUP1 ISZERO PUSH2 0x10 JUMPI PUSH0 PUSH0 REVERT JUMPDEST POP PUSH1 0x40 MLOAD PUSH2 0x1161 CODESIZE SUB DUP1 PUSH2 0x1161 DUP4 CODECOPY DUP2 DUP2 ADD PUSH1 0x40 MSTORE DUP2 ADD SWAP1 PUSH2 0x32 SWAP2 SWAP1 PUSH2 0x2B5 JUMP JUMPDEST PUSH0 PUSH20 0xFFFFFFFFFFFFFFFFFFFFFFFFFFFFFFFFFFFFFFFF AND DUP5 PUSH20 0xFFFFFFFFFFFFFFFFFFFFFFFFFFFFFFFFFFFFFFFF AND EQ ISZERO DUP1 ISZERO PUSH2 0x9A JUMPI POP PUSH0 PUSH20 0xFFFFFFFFFFFFFFFFFFFFFFFFFFFFFFFFFFFFFFFF AND DUP4 PUSH20 0xFFFFFFFFFFFFFFFFFFFFFFFFFFFFFFFFFFFFFFFF AND EQ ISZERO JUMPDEST DUP1 ISZERO PUSH2 0xD2 JUMPI POP PUSH0 PUSH20 0xFFFFFFFFFFFFFFFFFFFFFFFFFFFFFFFFFFFFFFFF AND DUP3 PUSH20 0xFFFFFFFFFFFFFFFFFFFFFFFFFFFFFFFFFFFFFFFF AND EQ ISZERO JUMPDEST DUP1 ISZERO PUSH2 0x10A JUMPI POP PUSH0 PUSH20 0xFFFFFFFFFFFFFFFFFFFFFFFFFFFFFFFFFFFFFFFF AND DUP2 PUSH20 0xFFFFFFFFFFFFFFFFFFFFFFFFFFFFFFFFFFFFFFFF AND EQ ISZERO JUMPDEST PUSH2 0x149 JUMPI PUSH1 0x40 MLOAD PUSH32 0x8C379A000000000000000000000000000000000000000000000000000000000 DUP2 MSTORE PUSH1 0x4 ADD PUSH2 0x140 SWAP1 PUSH2 0x373 JUMP JUMPDEST PUSH1 0x40 MLOAD DUP1 SWAP2 SUB SWAP1 REVERT JUMPDEST DUP4 PUSH20 0xFFFFFFFFFFFFFFFFFFFFFFFFFFFFFFFFFFFFFFFF AND PUSH1 0xE0 DUP2 PUSH20 0xFFFFFFFFFFFFFFFFFFFFFFFFFFFFFFFFFFFFFFFF AND DUP2 MSTORE POP POP DUP3 PUSH20 0xFFFFFFFFFFFFFFFFFFFFFFFFFFFFFFFFFFFFFFFF AND PUSH1 0x80 DUP2 PUSH20 0xFFFFFFFFFFFFFFFFFFFFFFFFFFFFFFFFFFFFFFFF AND DUP2 MSTORE POP POP DUP2 PUSH20 0xFFFFFFFFFFFFFFFFFFFFFFFFFFFFFFFFFFFFFFFF AND PUSH1 0xA0 DUP2 PUSH20 0xFFFFFFFFFFFFFFFFFFFFFFFFFFFFFFFFFFFFFFFF AND DUP2 MSTORE POP POP DUP1 PUSH20 0xFFFFFFFFFFFFFFFFFFFFFFFFFFFFFFFFFFFFFFFF AND PUSH1 0xC0 DUP2 PUSH20 0xFFFFFFFFFFFFFFFFFFFFFFFFFFFFFFFFFFFFFFFF AND DUP2 MSTORE POP POP CALLER PUSH20 0xFFFFFFFFFFFFFFFFFFFFFFFFFFFFFFFFFFFFFFFF AND PUSH2 0x100 DUP2 PUSH20 0xFFFFFFFFFFFFFFFFFFFFFFFFFFFFFFFFFFFFFFFF AND DUP2 MSTORE POP POP POP POP POP POP PUSH2 0x391 JUMP JUMPDEST PUSH0 PUSH0 REVERT JUMPDEST PUSH0 PUSH20 0xFFFFFFFFFFFFFFFFFFFFFFFFFFFFFFFFFFFFFFFF DUP3 AND SWAP1 POP SWAP2 SWAP1 POP JUMP JUMPDEST PUSH0 PUSH2 0x284 DUP3 PUSH2 0x25B JUMP JUMPDEST SWAP1 POP SWAP2 SWAP1 POP JUMP JUMPDEST PUSH2 0x294 DUP2 PUSH2 0x27A JUMP JUMPDEST DUP2 EQ PUSH2 0x29E JUMPI PUSH0 PUSH0 REVERT JUMPDEST POP JUMP JUMPDEST PUSH0 DUP2 MLOAD SWAP1 POP PUSH2 0x2AF DUP2 PUSH2 0x28B JUMP JUMPDEST SWAP3 SWAP2 POP POP JUMP JUMPDEST PUSH0 PUSH0 PUSH0 PUSH0 PUSH1 0x80 DUP6 DUP8 SUB SLT ISZERO PUSH2 0x2CD JUMPI PUSH2 0x2CC PUSH2 0x257 JUMP JUMPDEST JUMPDEST PUSH0 PUSH2 0x2DA DUP8 DUP3 DUP9 ADD PUSH2 0x2A1 JUMP JUMPDEST SWAP5 POP POP PUSH1 0x20 PUSH2 0x2EB DUP8 DUP3 DUP9 ADD PUSH2 0x2A1 JUMP JUMPDEST SWAP4 POP POP PUSH1 0x40 PUSH2 0x2FC DUP8 DUP3 DUP9 ADD PUSH2 0x2A1 JUMP JUMPDEST SWAP3 POP POP PUSH1 0x60 PUSH2 0x30D DUP8 DUP3 DUP9 ADD PUSH2 0x2A1 JUMP JUMPDEST SWAP2 POP POP SWAP3 SWAP6 SWAP2 SWAP5 POP SWAP3 POP JUMP JUMPDEST PUSH0 DUP3 DUP3 MSTORE PUSH1 0x20 DUP3 ADD SWAP1 POP SWAP3 SWAP2 POP POP JUMP JUMPDEST PUSH32 0x5A65726F20616464726573730000000000000000000000000000000000000000 PUSH0 DUP3 ADD MSTORE POP JUMP JUMPDEST PUSH0 PUSH2 0x35D PUSH1 0xC DUP4 PUSH2 0x319 JUMP JUMPDEST SWAP2 POP PUSH2 0x368 DUP3 PUSH2 0x329 JUMP JUMPDEST PUSH1 0x20 DUP3 ADD SWAP1 POP SWAP2 SWAP1 POP JUMP JUMPDEST PUSH0 PUSH1 0x20 DUP3 ADD SWAP1 POP DUP2 DUP2 SUB PUSH0 DUP4 ADD MSTORE PUSH2 0x38A DUP2 PUSH2 0x351 JUMP JUMPDEST SWAP1 POP SWAP2 SWAP1 POP JUMP JUMPDEST PUSH1 0x80 MLOAD PUSH1 0xA0 MLOAD PUSH1 0xC0 MLOAD PUSH1 0xE0 MLOAD PUSH2 0x100 MLOAD PUSH2 0xD4D PUSH2 0x414 PUSH0 CODECOPY PUSH0 DUP2 DUP2 PUSH2 0x65B ADD MSTORE PUSH2 0x73F ADD MSTORE PUSH0 DUP2 DUP2 PUSH2 0x29B ADD MSTORE DUP2 DUP2 PUSH2 0x4B4 ADD MSTORE PUSH2 0x787 ADD MSTORE PUSH0 DUP2 DUP2 PUSH2 0x3D6 ADD MSTORE PUSH2 0x71B ADD MSTORE PUSH0 DUP2 DUP2 PUSH2 0x445 ADD MSTORE DUP2 DUP2 PUSH2 0x543 ADD MSTORE DUP2 DUP2 PUSH2 0x61F ADD MSTORE PUSH2 0x763 ADD MSTORE PUSH0 DUP2 DUP2 PUSH2 0x118 ADD MSTORE DUP2 DUP2 PUSH2 0x1C1 ADD MSTORE DUP2 DUP2 PUSH2 0x25F ADD MSTORE PUSH2 0x368 ADD MSTORE PUSH2 0xD4D PUSH0 RETURN INVALID PUSH1 0x80 PUSH1 0x40 MSTORE CALLVALUE DUP1 ISZERO PUSH2 0xF JUMPI PUSH0 PUSH0 REVERT JUMPDEST POP PUSH1 0x4 CALLDATASIZE LT PUSH2 0x60 JUMPI PUSH0 CALLDATALOAD PUSH1 0xE0 SHR DUP1 PUSH4 0x2F48AB7D EQ PUSH2 0x64 JUMPI DUP1 PUSH4 0x728E261F EQ PUSH2 0x82 JUMPI DUP1 PUSH4 0x8D72647E EQ PUSH2 0x9E JUMPI DUP1 PUSH4 0x8DA5CB5B EQ PUSH2 0xBC JUMPI DUP1 PUSH4 0xB5E37041 EQ PUSH2 0xDA JUMPI DUP1 PUSH4 0xF887EA40 EQ PUSH2 0xF8 JUMPI JUMPDEST PUSH0 PUSH0 REVERT JUMPDEST PUSH2 0x6C PUSH2 0x116 JUMP JUMPDEST PUSH1 0x40 MLOAD PUSH2 0x79 SWAP2 SWAP1 PUSH2 0x823 JUMP JUMPDEST PUSH1 0x40 MLOAD DUP1 SWAP2 SUB SWAP1 RETURN JUMPDEST PUSH2 0x9C PUSH1 0x4 DUP1 CALLDATASIZE SUB DUP2 ADD SWAP1 PUSH2 0x97 SWAP2 SWAP1 PUSH2 0x873 JUMP JUMPDEST PUSH2 0x13A JUMP JUMPDEST STOP JUMPDEST PUSH2 0xA6 PUSH2 0x719 JUMP JUMPDEST PUSH1 0x40 MLOAD PUSH2 0xB3 SWAP2 SWAP1 PUSH2 0x823 JUMP JUMPDEST PUSH1 0x40 MLOAD DUP1 SWAP2 SUB SWAP1 RETURN JUMPDEST PUSH2 0xC4 PUSH2 0x73D JUMP JUMPDEST PUSH1 0x40 MLOAD PUSH2 0xD1 SWAP2 SWAP1 PUSH2 0x8E3 JUMP JUMPDEST PUSH1 0x40 MLOAD DUP1 SWAP2 SUB SWAP1 RETURN JUMPDEST PUSH2 0xE2 PUSH2 0x761 JUMP JUMPDEST PUSH1 0x40 MLOAD PUSH2 0xEF SWAP2 SWAP1 PUSH2 0x823 JUMP JUMPDEST PUSH1 0x40 MLOAD DUP1 SWAP2 SUB SWAP1 RETURN JUMPDEST PUSH2 0x100 PUSH2 0x785 JUMP JUMPDEST PUSH1 0x40 MLOAD PUSH2 0x10D SWAP2 SWAP1 PUSH2 0x91C JUMP JUMPDEST PUSH1 0x40 MLOAD DUP1 SWAP2 SUB SWAP1 RETURN JUMPDEST PUSH32 0x0 DUP2 JUMP JUMPDEST PUSH0 DUP4 GT PUSH2 0x17C JUMPI PUSH1 0x40 MLOAD PUSH32 0x8C379A000000000000000000000000000000000000000000000000000000000 DUP2 MSTORE PUSH1 0x4 ADD PUSH2 0x173 SWAP1 PUSH2 0x98F JUMP JUMPDEST PUSH1 0x40 MLOAD DUP1 SWAP2 SUB SWAP1 REVERT JUMPDEST TIMESTAMP DUP2 LT ISZERO PUSH2 0x1BF JUMPI PUSH1 0x40 MLOAD PUSH32 0x8C379A000000000000000000000000000000000000000000000000000000000 DUP2 MSTORE PUSH1 0x4 ADD PUSH2 0x1B6 SWAP1 PUSH2 0x9F7 JUMP JUMPDEST PUSH1 0x40 MLOAD DUP1 SWAP2 SUB SWAP1 REVERT JUMPDEST PUSH32 0x0 PUSH20 0xFFFFFFFFFFFFFFFFFFFFFFFFFFFFFFFFFFFFFFFF AND PUSH4 0x23B872DD CALLER ADDRESS DUP7 PUSH1 0x40 MLOAD DUP5 PUSH4 0xFFFFFFFF AND PUSH1 0xE0 SHL DUP2 MSTORE PUSH1 0x4 ADD PUSH2 0x21C SWAP4 SWAP3 SWAP2 SWAP1 PUSH2 0xA24 JUMP JUMPDEST PUSH1 0x20 PUSH1 0x40 MLOAD DUP1 DUP4 SUB DUP2 PUSH0 DUP8 GAS CALL ISZERO DUP1 ISZERO PUSH2 0x238 JUMPI RETURNDATASIZE PUSH0 PUSH0 RETURNDATACOPY RETURNDATASIZE PUSH0 REVERT JUMPDEST POP POP POP POP PUSH1 0x40 MLOAD RETURNDATASIZE PUSH1 0x1F NOT PUSH1 0x1F DUP3 ADD AND DUP3 ADD DUP1 PUSH1 0x40 MSTORE POP DUP2 ADD SWAP1 PUSH2 0x25C SWAP2 SWAP1 PUSH2 0xA8E JUMP JUMPDEST POP PUSH32 0x0 PUSH20 0xFFFFFFFFFFFFFFFFFFFFFFFFFFFFFFFFFFFFFFFF AND PUSH4 0x95EA7B3 PUSH32 0x0 DUP6 PUSH1 0x40 MLOAD DUP4 PUSH4 0xFFFFFFFF AND PUSH1 0xE0 SHL DUP2 MSTORE PUSH1 0x4 ADD PUSH2 0x2D8 SWAP3 SWAP2 SWAP1 PUSH2 0xAB9 JUMP JUMPDEST PUSH1 0x20 PUSH1 0x40 MLOAD DUP1 DUP4 SUB DUP2 PUSH0 DUP8 GAS CALL ISZERO DUP1 ISZERO PUSH2 0x2F4 JUMPI RETURNDATASIZE PUSH0 PUSH0 RETURNDATACOPY RETURNDATASIZE PUSH0 REVERT JUMPDEST POP POP POP POP PUSH1 0x40 MLOAD RETURNDATASIZE PUSH1 0x1F NOT PUSH1 0x1F DUP3 ADD AND DUP3 ADD DUP1 PUSH1 0x40 MSTORE POP DUP2 ADD SWAP1 PUSH2 0x318 SWAP2 SWAP1 PUSH2 0xA8E JUMP JUMPDEST POP PUSH0 PUSH1 0x3 PUSH8 0xFFFFFFFFFFFFFFFF DUP2 GT ISZERO PUSH2 0x335 JUMPI PUSH2 0x334 PUSH2 0xAE0 JUMP JUMPDEST JUMPDEST PUSH1 0x40 MLOAD SWAP1 DUP1 DUP3 MSTORE DUP1 PUSH1 0x20 MUL PUSH1 0x20 ADD DUP3 ADD PUSH1 0x40 MSTORE DUP1 ISZERO PUSH2 0x363 JUMPI DUP2 PUSH1 0x20 ADD PUSH1 0x20 DUP3 MUL DUP1 CALLDATASIZE DUP4 CALLDATACOPY DUP1 DUP3 ADD SWAP2 POP POP SWAP1 POP JUMPDEST POP SWAP1 POP PUSH32 0x0 DUP2 PUSH0 DUP2 MLOAD DUP2 LT PUSH2 0x39A JUMPI PUSH2 0x399 PUSH2 0xB0D JUMP JUMPDEST JUMPDEST PUSH1 0x20 MUL PUSH1 0x20 ADD ADD SWAP1 PUSH20 0xFFFFFFFFFFFFFFFFFFFFFFFFFFFFFFFFFFFFFFFF AND SWAP1 DUP2 PUSH20 0xFFFFFFFFFFFFFFFFFFFFFFFFFFFFFFFFFFFFFFFF AND DUP2 MSTORE POP POP PUSH32 0x0 DUP2 PUSH1 0x1 DUP2 MLOAD DUP2 LT PUSH2 0x409 JUMPI PUSH2 0x408 PUSH2 0xB0D JUMP JUMPDEST JUMPDEST PUSH1 0x20 MUL PUSH1 0x20 ADD ADD SWAP1 PUSH20 0xFFFFFFFFFFFFFFFFFFFFFFFFFFFFFFFFFFFFFFFF AND SWAP1 DUP2 PUSH20 0xFFFFFFFFFFFFFFFFFFFFFFFFFFFFFFFFFFFFFFFF AND DUP2 MSTORE POP POP PUSH32 0x0 DUP2 PUSH1 0x2 DUP2 MLOAD DUP2 LT PUSH2 0x478 JUMPI PUSH2 0x477 PUSH2 0xB0D JUMP JUMPDEST JUMPDEST PUSH1 0x20 MUL PUSH1 0x20 ADD ADD SWAP1 PUSH20 0xFFFFFFFFFFFFFFFFFFFFFFFFFFFFFFFFFFFFFFFF AND SWAP1 DUP2 PUSH20 0xFFFFFFFFFFFFFFFFFFFFFFFFFFFFFFFFFFFFFFFF AND DUP2 MSTORE POP POP PUSH32 0x0 PUSH20 0xFFFFFFFFFFFFFFFFFFFFFFFFFFFFFFFFFFFFFFFF AND PUSH4 0x5C11D795 DUP6 DUP6 DUP5 ADDRESS DUP8 PUSH1 0x40 MLOAD DUP7 PUSH4 0xFFFFFFFF AND PUSH1 0xE0 SHL DUP2 MSTORE PUSH1 0x4 ADD PUSH2 0x513 SWAP6 SWAP5 SWAP4 SWAP3 SWAP2 SWAP1 PUSH2 0xBF1 JUMP JUMPDEST PUSH0 PUSH1 0x40 MLOAD DUP1 DUP4 SUB DUP2 PUSH0 DUP8 DUP1 EXTCODESIZE ISZERO DUP1 ISZERO PUSH2 0x52A JUMPI PUSH0 PUSH0 REVERT JUMPDEST POP GAS CALL ISZERO DUP1 ISZERO PUSH2 0x53C JUMPI RETURNDATASIZE PUSH0 PUSH0 RETURNDATACOPY RETURNDATASIZE PUSH0 REVERT JUMPDEST POP POP POP POP PUSH0 PUSH32 0x0 PUSH20 0xFFFFFFFFFFFFFFFFFFFFFFFFFFFFFFFFFFFFFFFF AND PUSH4 0x70A08231 ADDRESS PUSH1 0x40 MLOAD DUP3 PUSH4 0xFFFFFFFF AND PUSH1 0xE0 SHL DUP2 MSTORE PUSH1 0x4 ADD PUSH2 0x59A SWAP2 SWAP1 PUSH2 0x8E3 JUMP JUMPDEST PUSH1 0x20 PUSH1 0x40 MLOAD DUP1 DUP4 SUB DUP2 DUP7 GAS STATICCALL ISZERO DUP1 ISZERO PUSH2 0x5B5 JUMPI RETURNDATASIZE PUSH0 PUSH0 RETURNDATACOPY RETURNDATASIZE PUSH0 REVERT JUMPDEST POP POP POP POP PUSH1 0x40 MLOAD RETURNDATASIZE PUSH1 0x1F NOT PUSH1 0x1F DUP3 ADD AND DUP3 ADD DUP1 PUSH1 0x40 MSTORE POP DUP2 ADD SWAP1 PUSH2 0x5D9 SWAP2 SWAP1 PUSH2 0xC5D JUMP JUMPDEST SWAP1 POP PUSH0 DUP2 GT PUSH2 0x61D JUMPI PUSH1 0x40 MLOAD PUSH32 0x8C379A000000000000000000000000000000000000000000000000000000000 DUP2 MSTORE PUSH1 0x4 ADD PUSH2 0x614 SWAP1 PUSH2 0xCD2 JUMP JUMPDEST PUSH1 0x40 MLOAD DUP1 SWAP2 SUB SWAP1 REVERT JUMPDEST PUSH32 0x0 PUSH20 0xFFFFFFFFFFFFFFFFFFFFFFFFFFFFFFFFFFFFFFFF AND PUSH4 0xA9059CBB PUSH32 0x0 DUP4 PUSH1 0x40 MLOAD DUP4 PUSH4 0xFFFFFFFF AND PUSH1 0xE0 SHL DUP2 MSTORE PUSH1 0x4 ADD PUSH2 0x698 SWAP3 SWAP2 SWAP1 PUSH2 0xAB9 JUMP JUMPDEST PUSH1 0x20 PUSH1 0x40 MLOAD DUP1 DUP4 SUB DUP2 PUSH0 DUP8 GAS CALL ISZERO DUP1 ISZERO PUSH2 0x6B4 JUMPI RETURNDATASIZE PUSH0 PUSH0 RETURNDATACOPY RETURNDATASIZE PUSH0 REVERT JUMPDEST POP POP POP POP PUSH1 0x40 MLOAD RETURNDATASIZE PUSH1 0x1F NOT PUSH1 0x1F DUP3 ADD AND DUP3 ADD DUP1 PUSH1 0x40 MSTORE POP DUP2 ADD SWAP1 PUSH2 0x6D8 SWAP2 SWAP1 PUSH2 0xA8E JUMP JUMPDEST POP PUSH32 0x5A6443BE634D8594E0DFF76C972A6A74F88BF761FB6E334D88DD979516F3BC8F DUP6 DUP3 PUSH1 0x40 MLOAD PUSH2 0x70A SWAP3 SWAP2 SWAP1 PUSH2 0xCF0 JUMP JUMPDEST PUSH1 0x40 MLOAD DUP1 SWAP2 SUB SWAP1 LOG1 POP POP POP POP POP JUMP JUMPDEST PUSH32 0x0 DUP2 JUMP JUMPDEST PUSH32 0x0 DUP2 JUMP JUMPDEST PUSH32 0x0 DUP2 JUMP JUMPDEST PUSH32 0x0 DUP2 JUMP JUMPDEST PUSH0 PUSH20 0xFFFFFFFFFFFFFFFFFFFFFFFFFFFFFFFFFFFFFFFF DUP3 AND SWAP1 POP SWAP2 SWAP1 POP JUMP JUMPDEST PUSH0 DUP2 SWAP1 POP SWAP2 SWAP1 POP JUMP JUMPDEST PUSH0 PUSH2 0x7EB PUSH2 0x7E6 PUSH2 0x7E1 DUP5 PUSH2 0x7A9 JUMP JUMPDEST PUSH2 0x7C8 JUMP JUMPDEST PUSH2 0x7A9 JUMP JUMPDEST SWAP1 POP SWAP2 SWAP1 POP JUMP JUMPDEST PUSH0 PUSH2 0x7FC DUP3 PUSH2 0x7D1 JUMP JUMPDEST SWAP1 POP SWAP2 SWAP1 POP JUMP JUMPDEST PUSH0 PUSH2 0x80D DUP3 PUSH2 0x7F2 JUMP JUMPDEST SWAP1 POP SWAP2 SWAP1 POP JUMP JUMPDEST PUSH2 0x81D DUP2 PUSH2 0x803 JUMP JUMPDEST DUP3 MSTORE POP POP JUMP JUMPDEST PUSH0 PUSH1 0x20 DUP3 ADD SWAP1 POP PUSH2 0x836 PUSH0 DUP4 ADD DUP5 PUSH2 0x814 JUMP JUMPDEST SWAP3 SWAP2 POP POP JUMP JUMPDEST PUSH0 PUSH0 REVERT JUMPDEST PUSH0 DUP2 SWAP1 POP SWAP2 SWAP1 POP JUMP JUMPDEST PUSH2 0x852 DUP2 PUSH2 0x840 JUMP JUMPDEST DUP2 EQ PUSH2 0x85C JUMPI PUSH0 PUSH0 REVERT JUMPDEST POP JUMP JUMPDEST PUSH0 DUP2 CALLDATALOAD SWAP1 POP PUSH2 0x86D DUP2 PUSH2 0x849 JUMP JUMPDEST SWAP3 SWAP2 POP POP JUMP JUMPDEST PUSH0 PUSH0 PUSH0 PUSH1 0x60 DUP5 DUP7 SUB SLT ISZERO PUSH2 0x88A JUMPI PUSH2 0x889 PUSH2 0x83C JUMP JUMPDEST JUMPDEST PUSH0 PUSH2 0x897 DUP7 DUP3 DUP8 ADD PUSH2 0x85F JUMP JUMPDEST SWAP4 POP POP PUSH1 0x20 PUSH2 0x8A8 DUP7 DUP3 DUP8 ADD PUSH2 0x85F JUMP JUMPDEST SWAP3 POP POP PUSH1 0x40 PUSH2 0x8B9 DUP7 DUP3 DUP8 ADD PUSH2 0x85F JUMP JUMPDEST SWAP2 POP POP SWAP3 POP SWAP3 POP SWAP3 JUMP JUMPDEST PUSH0 PUSH2 0x8CD DUP3 PUSH2 0x7A9 JUMP JUMPDEST SWAP1 POP SWAP2 SWAP1 POP JUMP JUMPDEST PUSH2 0x8DD DUP2 PUSH2 0x8C3 JUMP JUMPDEST DUP3 MSTORE POP POP JUMP JUMPDEST PUSH0 PUSH1 0x20 DUP3 ADD SWAP1 POP PUSH2 0x8F6 PUSH0 DUP4 ADD DUP5 PUSH2 0x8D4 JUMP JUMPDEST SWAP3 SWAP2 POP POP JUMP JUMPDEST PUSH0 PUSH2 0x906 DUP3 PUSH2 0x7F2 JUMP JUMPDEST SWAP1 POP SWAP2 SWAP1 POP JUMP JUMPDEST PUSH2 0x916 DUP2 PUSH2 0x8FC JUMP JUMPDEST DUP3 MSTORE POP POP JUMP JUMPDEST PUSH0 PUSH1 0x20 DUP3 ADD SWAP1 POP PUSH2 0x92F PUSH0 DUP4 ADD DUP5 PUSH2 0x90D JUMP JUMPDEST SWAP3 SWAP2 POP POP JUMP JUMPDEST PUSH0 DUP3 DUP3 MSTORE PUSH1 0x20 DUP3 ADD SWAP1 POP SWAP3 SWAP2 POP POP JUMP JUMPDEST PUSH32 0x5A65726F20616D6F756E74496E00000000000000000000000000000000000000 PUSH0 DUP3 ADD MSTORE POP JUMP JUMPDEST PUSH0 PUSH2 0x979 PUSH1 0xD DUP4 PUSH2 0x935 JUMP JUMPDEST SWAP2 POP PUSH2 0x984 DUP3 PUSH2 0x945 JUMP JUMPDEST PUSH1 0x20 DUP3 ADD SWAP1 POP SWAP2 SWAP1 POP JUMP JUMPDEST PUSH0 PUSH1 0x20 DUP3 ADD SWAP1 POP DUP2 DUP2 SUB PUSH0 DUP4 ADD MSTORE PUSH2 0x9A6 DUP2 PUSH2 0x96D JUMP JUMPDEST SWAP1 POP SWAP2 SWAP1 POP JUMP JUMPDEST PUSH32 0x446561646C696E65207061737365640000000000000000000000000000000000 PUSH0 DUP3 ADD MSTORE POP JUMP JUMPDEST PUSH0 PUSH2 0x9E1 PUSH1 0xF DUP4 PUSH2 0x935 JUMP JUMPDEST SWAP2 POP PUSH2 0x9EC DUP3 PUSH2 0x9AD JUMP JUMPDEST PUSH1 0x20 DUP3 ADD SWAP1 POP SWAP2 SWAP1 POP JUMP JUMPDEST PUSH0 PUSH1 0x20 DUP3 ADD SWAP1 POP DUP2 DUP2 SUB PUSH0 DUP4 ADD MSTORE PUSH2 0xA0E DUP2 PUSH2 0x9D5 JUMP JUMPDEST SWAP1 POP SWAP2 SWAP1 POP JUMP JUMPDEST PUSH2 0xA1E DUP2 PUSH2 0x840 JUMP JUMPDEST DUP3 MSTORE POP POP JUMP JUMPDEST PUSH0 PUSH1 0x60 DUP3 ADD SWAP1 POP PUSH2 0xA37 PUSH0 DUP4 ADD DUP7 PUSH2 0x8D4 JUMP JUMPDEST PUSH2 0xA44 PUSH1 0x20 DUP4 ADD DUP6 PUSH2 0x8D4 JUMP JUMPDEST PUSH2 0xA51 PUSH1 0x40 DUP4 ADD DUP5 PUSH2 0xA15 JUMP JUMPDEST SWAP5 SWAP4 POP POP POP POP JUMP JUMPDEST PUSH0 DUP2 ISZERO ISZERO SWAP1 POP SWAP2 SWAP1 POP JUMP JUMPDEST PUSH2 0xA6D DUP2 PUSH2 0xA59 JUMP JUMPDEST DUP2 EQ PUSH2 0xA77 JUMPI PUSH0 PUSH0 REVERT JUMPDEST POP JUMP JUMPDEST PUSH0 DUP2 MLOAD SWAP1 POP PUSH2 0xA88 DUP2 PUSH2 0xA64 JUMP JUMPDEST SWAP3 SWAP2 POP POP JUMP JUMPDEST PUSH0 PUSH1 0x20 DUP3 DUP5 SUB SLT ISZERO PUSH2 0xAA3 JUMPI PUSH2 0xAA2 PUSH2 0x83C JUMP JUMPDEST JUMPDEST PUSH0 PUSH2 0xAB0 DUP5 DUP3 DUP6 ADD PUSH2 0xA7A JUMP JUMPDEST SWAP2 POP POP SWAP3 SWAP2 POP POP JUMP JUMPDEST PUSH0 PUSH1 0x40 DUP3 ADD SWAP1 POP PUSH2 0xACC PUSH0 DUP4 ADD DUP6 PUSH2 0x8D4 JUMP JUMPDEST PUSH2 0xAD9 PUSH1 0x20 DUP4 ADD DUP5 PUSH2 0xA15 JUMP JUMPDEST SWAP4 SWAP3 POP POP POP JUMP JUMPDEST PUSH32 0x4E487B7100000000000000000000000000000000000000000000000000000000 PUSH0 MSTORE PUSH1 0x41 PUSH1 0x4 MSTORE PUSH1 0x24 PUSH0 REVERT JUMPDEST PUSH32 0x4E487B7100000000000000000000000000000000000000000000000000000000 PUSH0 MSTORE PUSH1 0x32 PUSH1 0x4 MSTORE PUSH1 0x24 PUSH0 REVERT JUMPDEST PUSH0 DUP2 MLOAD SWAP1 POP SWAP2 SWAP1 POP JUMP JUMPDEST PUSH0 DUP3 DUP3 MSTORE PUSH1 0x20 DUP3 ADD SWAP1 POP SWAP3 SWAP2 POP POP JUMP JUMPDEST PUSH0 DUP2 SWAP1 POP PUSH1 0x20 DUP3 ADD SWAP1 POP SWAP2 SWAP1 POP JUMP JUMPDEST PUSH2 0xB6C DUP2 PUSH2 0x8C3 JUMP JUMPDEST DUP3 MSTORE POP POP JUMP JUMPDEST PUSH0 PUSH2 0xB7D DUP4 DUP4 PUSH2 0xB63 JUMP JUMPDEST PUSH1 0x20 DUP4 ADD SWAP1 POP SWAP3 SWAP2 POP POP JUMP JUMPDEST PUSH0 PUSH1 0x20 DUP3 ADD SWAP1 POP SWAP2 SWAP1 POP JUMP JUMPDEST PUSH0 PUSH2 0xB9F DUP3 PUSH2 0xB3A JUMP JUMPDEST PUSH2 0xBA9 DUP2 DUP6 PUSH2 0xB44 JUMP JUMPDEST SWAP4 POP PUSH2 0xBB4 DUP4 PUSH2 0xB54 JUMP JUMPDEST DUP1 PUSH0 JUMPDEST DUP4 DUP2 LT ISZERO PUSH2 0xBE4 JUMPI DUP2 MLOAD PUSH2 0xBCB DUP9 DUP3 PUSH2 0xB72 JUMP JUMPDEST SWAP8 POP PUSH2 0xBD6 DUP4 PUSH2 0xB89 JUMP JUMPDEST SWAP3 POP POP PUSH1 0x1 DUP2 ADD SWAP1 POP PUSH2 0xBB7 JUMP JUMPDEST POP DUP6 SWAP4 POP POP POP POP SWAP3 SWAP2 POP POP JUMP JUMPDEST PUSH0 PUSH1 0xA0 DUP3 ADD SWAP1 POP PUSH2 0xC04 PUSH0 DUP4 ADD DUP9 PUSH2 0xA15 JUMP JUMPDEST PUSH2 0xC11 PUSH1 0x20 DUP4 ADD DUP8 PUSH2 0xA15 JUMP JUMPDEST DUP2 DUP2 SUB PUSH1 0x40 DUP4 ADD MSTORE PUSH2 0xC23 DUP2 DUP7 PUSH2 0xB95 JUMP JUMPDEST SWAP1 POP PUSH2 0xC32 PUSH1 0x60 DUP4 ADD DUP6 PUSH2 0x8D4 JUMP JUMPDEST PUSH2 0xC3F PUSH1 0x80 DUP4 ADD DUP5 PUSH2 0xA15 JUMP JUMPDEST SWAP7 SWAP6 POP POP POP POP POP POP JUMP JUMPDEST PUSH0 DUP2 MLOAD SWAP1 POP PUSH2 0xC57 DUP2 PUSH2 0x849 JUMP JUMPDEST SWAP3 SWAP2 POP POP JUMP JUMPDEST PUSH0 PUSH1 0x20 DUP3 DUP5 SUB SLT ISZERO PUSH2 0xC72 JUMPI PUSH2 0xC71 PUSH2 0x83C JUMP JUMPDEST JUMPDEST PUSH0 PUSH2 0xC7F DUP5 DUP3 DUP6 ADD PUSH2 0xC49 JUMP JUMPDEST SWAP2 POP POP SWAP3 SWAP2 POP POP JUMP JUMPDEST PUSH32 0x4E6F206F75747075740000000000000000000000000000000000000000000000 PUSH0 DUP3 ADD MSTORE POP JUMP JUMPDEST PUSH0 PUSH2 0xCBC PUSH1 0x9 DUP4 PUSH2 0x935 JUMP JUMPDEST SWAP2 POP PUSH2 0xCC7 DUP3 PUSH2 0xC88 JUMP JUMPDEST PUSH1 0x20 DUP3 ADD SWAP1 POP SWAP2 SWAP1 POP JUMP JUMPDEST PUSH0 PUSH1 0x20 DUP3 ADD SWAP1 POP DUP2 DUP2 SUB PUSH0 DUP4 ADD MSTORE PUSH2 0xCE9 DUP2 PUSH2 0xCB0 JUMP JUMPDEST SWAP1 POP SWAP2 SWAP1 POP JUMP JUMPDEST PUSH0 PUSH1 0x40 DUP3 ADD SWAP1 POP PUSH2 0xD03 PUSH0 DUP4 ADD DUP6 PUSH2 0xA15 JUMP JUMPDEST PUSH2 0xD10 PUSH1 0x20 DUP4 ADD DUP5 PUSH2 0xA15 JUMP JUMPDEST SWAP4 SWAP3 POP POP POP JUMP INVALID LOG2 PUSH5 0x6970667358 0x22 SLT KECCAK256 0xAC 0xEF RETURNDATACOPY DUP7 CODECOPY 0xED SWAP6 SUB 0xAC 0xC REVERT 0x4D BYTE 0xF6 0xC9 MOD PUSH2 0xEDEE SDIV 0x4C PUSH30 0xDCFA7DEB7A0EECBD854864736F6C634300081E0033000000000000000000 "
				},
				"gasEstimates": {
					"creation": {
						"codeDepositCost": "681000",
						"executionCost": "infinite",
						"totalCost": "infinite"
					},
					"external": {
						"hope()": "infinite",
						"owner()": "infinite",
						"router()": "infinite",
						"swapThenForward(uint256,uint256,uint256)": "infinite",
						"usdt()": "infinite",
						"wbnb()": "infinite"
					}
				},
				"methodIdentifiers": {
					"hope()": "b5e37041",
					"owner()": "8da5cb5b",
					"router()": "f887ea40",
					"swapThenForward(uint256,uint256,uint256)": "728e261f",
					"usdt()": "2f48ab7d",
					"wbnb()": "8d72647e"
				}
			},
			"storageLayout": {
				"storage": [],
				"types": null
			},
			"userdoc": {
				"kind": "user",
				"methods": {},
				"version": 1
			}
		}
	}
}